
Encoder.elf:     file format elf32-littlearm

Sections:
Idx Name          Size      VMA       LMA       File off  Algn
  0 .isr_vector   0000010c  08000000  08000000  00010000  2**0
                  CONTENTS, ALLOC, LOAD, READONLY, DATA
  1 .text         00002ca8  0800010c  0800010c  0001010c  2**2
                  CONTENTS, ALLOC, LOAD, READONLY, CODE
  2 .rodata       00000088  08002db4  08002db4  00012db4  2**0
                  CONTENTS, ALLOC, LOAD, READONLY, DATA
  3 .init_array   00000004  08002e3c  08002e3c  00012e3c  2**2
                  CONTENTS, ALLOC, LOAD, DATA
  4 .fini_array   00000004  08002e40  08002e40  00012e40  2**2
                  CONTENTS, ALLOC, LOAD, DATA
  5 .data         000000e4  20000000  08002e44  00020000  2**2
                  CONTENTS, ALLOC, LOAD, DATA
  6 .bss          0000097c  200000e4  08002f28  000200e4  2**2
                  ALLOC
  7 ._user_heap_stack 00000600  20000a60  08002f28  00020a60  2**0
                  ALLOC
  8 .ARM.attributes 00000029  00000000  00000000  000200e4  2**0
                  CONTENTS, READONLY
  9 .debug_info   0001ba77  00000000  00000000  0002010d  2**0
                  CONTENTS, READONLY, DEBUGGING
 10 .debug_abbrev 000039ff  00000000  00000000  0003bb84  2**0
                  CONTENTS, READONLY, DEBUGGING
 11 .debug_loc    00008058  00000000  00000000  0003f583  2**0
                  CONTENTS, READONLY, DEBUGGING
 12 .debug_aranges 00000ba0  00000000  00000000  000475e0  2**3
                  CONTENTS, READONLY, DEBUGGING
 13 .debug_ranges 00001020  00000000  00000000  00048180  2**3
                  CONTENTS, READONLY, DEBUGGING
 14 .debug_line   00006cd8  00000000  00000000  000491a0  2**0
                  CONTENTS, READONLY, DEBUGGING
 15 .debug_str    0000415f  00000000  00000000  0004fe78  2**0
                  CONTENTS, READONLY, DEBUGGING
 16 .comment      0000007c  00000000  00000000  00053fd7  2**0
                  CONTENTS, READONLY
 17 .debug_frame  00001f60  00000000  00000000  00054054  2**2
                  CONTENTS, READONLY, DEBUGGING

Disassembly of section .text:

0800010c <__do_global_dtors_aux>:
 800010c:	b510      	push	{r4, lr}
 800010e:	4c05      	ldr	r4, [pc, #20]	; (8000124 <__do_global_dtors_aux+0x18>)
 8000110:	7823      	ldrb	r3, [r4, #0]
 8000112:	b933      	cbnz	r3, 8000122 <__do_global_dtors_aux+0x16>
 8000114:	4b04      	ldr	r3, [pc, #16]	; (8000128 <__do_global_dtors_aux+0x1c>)
 8000116:	b113      	cbz	r3, 800011e <__do_global_dtors_aux+0x12>
 8000118:	4804      	ldr	r0, [pc, #16]	; (800012c <__do_global_dtors_aux+0x20>)
 800011a:	f3af 8000 	nop.w
 800011e:	2301      	movs	r3, #1
 8000120:	7023      	strb	r3, [r4, #0]
 8000122:	bd10      	pop	{r4, pc}
 8000124:	200000e4 	.word	0x200000e4
 8000128:	00000000 	.word	0x00000000
 800012c:	08002d9c 	.word	0x08002d9c

08000130 <frame_dummy>:
 8000130:	b508      	push	{r3, lr}
 8000132:	4b03      	ldr	r3, [pc, #12]	; (8000140 <frame_dummy+0x10>)
 8000134:	b11b      	cbz	r3, 800013e <frame_dummy+0xe>
 8000136:	4903      	ldr	r1, [pc, #12]	; (8000144 <frame_dummy+0x14>)
 8000138:	4803      	ldr	r0, [pc, #12]	; (8000148 <frame_dummy+0x18>)
 800013a:	f3af 8000 	nop.w
 800013e:	bd08      	pop	{r3, pc}
 8000140:	00000000 	.word	0x00000000
 8000144:	200000e8 	.word	0x200000e8
 8000148:	08002d9c 	.word	0x08002d9c

0800014c <HAL_InitTick>:
  *       implementation  in user file.
  * @param TickPriority Tick interrupt priority.
  * @retval HAL status
  */
__weak HAL_StatusTypeDef HAL_InitTick(uint32_t TickPriority)
{
 800014c:	b538      	push	{r3, r4, r5, lr}
  /* Configure the SysTick to have interrupt in 1ms time basis*/
  if (HAL_SYSTICK_Config(SystemCoreClock / (1000U / uwTickFreq)) > 0U)
 800014e:	4b0e      	ldr	r3, [pc, #56]	; (8000188 <HAL_InitTick+0x3c>)
{
 8000150:	4605      	mov	r5, r0
  if (HAL_SYSTICK_Config(SystemCoreClock / (1000U / uwTickFreq)) > 0U)
 8000152:	7818      	ldrb	r0, [r3, #0]
 8000154:	f44f 737a 	mov.w	r3, #1000	; 0x3e8
 8000158:	fbb3 f3f0 	udiv	r3, r3, r0
 800015c:	4a0b      	ldr	r2, [pc, #44]	; (800018c <HAL_InitTick+0x40>)
 800015e:	6810      	ldr	r0, [r2, #0]
 8000160:	fbb0 f0f3 	udiv	r0, r0, r3
 8000164:	f000 f89e 	bl	80002a4 <HAL_SYSTICK_Config>
 8000168:	4604      	mov	r4, r0
 800016a:	b958      	cbnz	r0, 8000184 <HAL_InitTick+0x38>
  {
    return HAL_ERROR;
  }

  /* Configure the SysTick IRQ priority */
  if (TickPriority < (1UL << __NVIC_PRIO_BITS))
 800016c:	2d0f      	cmp	r5, #15
 800016e:	d809      	bhi.n	8000184 <HAL_InitTick+0x38>
  {
    HAL_NVIC_SetPriority(SysTick_IRQn, TickPriority, 0U);
 8000170:	4602      	mov	r2, r0
 8000172:	4629      	mov	r1, r5
 8000174:	f04f 30ff 	mov.w	r0, #4294967295
 8000178:	f000 f854 	bl	8000224 <HAL_NVIC_SetPriority>
    uwTickPrio = TickPriority;
 800017c:	4b04      	ldr	r3, [pc, #16]	; (8000190 <HAL_InitTick+0x44>)
 800017e:	4620      	mov	r0, r4
 8000180:	601d      	str	r5, [r3, #0]
 8000182:	bd38      	pop	{r3, r4, r5, pc}
    return HAL_ERROR;
 8000184:	2001      	movs	r0, #1
    return HAL_ERROR;
  }

  /* Return function status */
  return HAL_OK;
}
 8000186:	bd38      	pop	{r3, r4, r5, pc}
 8000188:	20000000 	.word	0x20000000
 800018c:	200000ac 	.word	0x200000ac
 8000190:	20000004 	.word	0x20000004

08000194 <HAL_Init>:
  __HAL_FLASH_PREFETCH_BUFFER_ENABLE();
 8000194:	4a07      	ldr	r2, [pc, #28]	; (80001b4 <HAL_Init+0x20>)
{
 8000196:	b508      	push	{r3, lr}
  __HAL_FLASH_PREFETCH_BUFFER_ENABLE();
 8000198:	6813      	ldr	r3, [r2, #0]
  HAL_NVIC_SetPriorityGrouping(NVIC_PRIORITYGROUP_4);
 800019a:	2003      	movs	r0, #3
  __HAL_FLASH_PREFETCH_BUFFER_ENABLE();
 800019c:	f043 0310 	orr.w	r3, r3, #16
 80001a0:	6013      	str	r3, [r2, #0]
  HAL_NVIC_SetPriorityGrouping(NVIC_PRIORITYGROUP_4);
 80001a2:	f000 f82d 	bl	8000200 <HAL_NVIC_SetPriorityGrouping>
  HAL_InitTick(TICK_INT_PRIORITY);
 80001a6:	2000      	movs	r0, #0
 80001a8:	f7ff ffd0 	bl	800014c <HAL_InitTick>
  HAL_MspInit();
 80001ac:	f002 fb22 	bl	80027f4 <HAL_MspInit>
}
 80001b0:	2000      	movs	r0, #0
 80001b2:	bd08      	pop	{r3, pc}
 80001b4:	40022000 	.word	0x40022000

080001b8 <HAL_IncTick>:
  *      implementations in user file.
  * @retval None
  */
__weak void HAL_IncTick(void)
{
  uwTick += uwTickFreq;
 80001b8:	4a03      	ldr	r2, [pc, #12]	; (80001c8 <HAL_IncTick+0x10>)
 80001ba:	4b04      	ldr	r3, [pc, #16]	; (80001cc <HAL_IncTick+0x14>)
 80001bc:	6811      	ldr	r1, [r2, #0]
 80001be:	781b      	ldrb	r3, [r3, #0]
 80001c0:	440b      	add	r3, r1
 80001c2:	6013      	str	r3, [r2, #0]
 80001c4:	4770      	bx	lr
 80001c6:	bf00      	nop
 80001c8:	20000118 	.word	0x20000118
 80001cc:	20000000 	.word	0x20000000

080001d0 <HAL_GetTick>:
  *       implementations in user file.
  * @retval tick value
  */
__weak uint32_t HAL_GetTick(void)
{
  return uwTick;
 80001d0:	4b01      	ldr	r3, [pc, #4]	; (80001d8 <HAL_GetTick+0x8>)
 80001d2:	6818      	ldr	r0, [r3, #0]
}
 80001d4:	4770      	bx	lr
 80001d6:	bf00      	nop
 80001d8:	20000118 	.word	0x20000118

080001dc <HAL_Delay>:
  *       implementations in user file.
  * @param Delay specifies the delay time length, in milliseconds.
  * @retval None
  */
__weak void HAL_Delay(uint32_t Delay)
{
 80001dc:	b538      	push	{r3, r4, r5, lr}
 80001de:	4604      	mov	r4, r0
  uint32_t tickstart = HAL_GetTick();
 80001e0:	f7ff fff6 	bl	80001d0 <HAL_GetTick>
 80001e4:	4605      	mov	r5, r0
  uint32_t wait = Delay;

  /* Add a freq to guarantee minimum wait */
  if (wait < HAL_MAX_DELAY)
 80001e6:	1c63      	adds	r3, r4, #1
  {
    wait += (uint32_t)(uwTickFreq);
 80001e8:	bf1e      	ittt	ne
 80001ea:	4b04      	ldrne	r3, [pc, #16]	; (80001fc <HAL_Delay+0x20>)
 80001ec:	781b      	ldrbne	r3, [r3, #0]
 80001ee:	18e4      	addne	r4, r4, r3
  }

  while ((HAL_GetTick() - tickstart) < wait)
 80001f0:	f7ff ffee 	bl	80001d0 <HAL_GetTick>
 80001f4:	1b40      	subs	r0, r0, r5
 80001f6:	4284      	cmp	r4, r0
 80001f8:	d8fa      	bhi.n	80001f0 <HAL_Delay+0x14>
  {
  }
}
 80001fa:	bd38      	pop	{r3, r4, r5, pc}
 80001fc:	20000000 	.word	0x20000000

08000200 <HAL_NVIC_SetPriorityGrouping>:
__STATIC_INLINE void NVIC_SetPriorityGrouping(uint32_t PriorityGroup)
{
  uint32_t reg_value;
  uint32_t PriorityGroupTmp = (PriorityGroup & (uint32_t)0x07UL);             /* only values 0..7 are used          */

  reg_value  =  SCB->AIRCR;                                                   /* read old register configuration    */
 8000200:	4a07      	ldr	r2, [pc, #28]	; (8000220 <HAL_NVIC_SetPriorityGrouping+0x20>)
  reg_value &= ~((uint32_t)(SCB_AIRCR_VECTKEY_Msk | SCB_AIRCR_PRIGROUP_Msk)); /* clear bits to change               */
  reg_value  =  (reg_value                                   |
                ((uint32_t)0x5FAUL << SCB_AIRCR_VECTKEY_Pos) |
                (PriorityGroupTmp << 8U)                      );              /* Insert write key and priorty group */
 8000202:	0200      	lsls	r0, r0, #8
  reg_value  =  SCB->AIRCR;                                                   /* read old register configuration    */
 8000204:	68d3      	ldr	r3, [r2, #12]
                (PriorityGroupTmp << 8U)                      );              /* Insert write key and priorty group */
 8000206:	f400 60e0 	and.w	r0, r0, #1792	; 0x700
  reg_value &= ~((uint32_t)(SCB_AIRCR_VECTKEY_Msk | SCB_AIRCR_PRIGROUP_Msk)); /* clear bits to change               */
 800020a:	f423 63e0 	bic.w	r3, r3, #1792	; 0x700
 800020e:	041b      	lsls	r3, r3, #16
 8000210:	0c1b      	lsrs	r3, r3, #16
 8000212:	f043 63bf 	orr.w	r3, r3, #100139008	; 0x5f80000
 8000216:	f443 3300 	orr.w	r3, r3, #131072	; 0x20000
  reg_value  =  (reg_value                                   |
 800021a:	4303      	orrs	r3, r0
  SCB->AIRCR =  reg_value;
 800021c:	60d3      	str	r3, [r2, #12]
 800021e:	4770      	bx	lr
 8000220:	e000ed00 	.word	0xe000ed00

08000224 <HAL_NVIC_SetPriority>:
  \details Reads the priority grouping field from the NVIC Interrupt Controller.
  \return                Priority grouping field (SCB->AIRCR [10:8] PRIGROUP field).
 */
__STATIC_INLINE uint32_t NVIC_GetPriorityGrouping(void)
{
  return ((uint32_t)((SCB->AIRCR & SCB_AIRCR_PRIGROUP_Msk) >> SCB_AIRCR_PRIGROUP_Pos));
 8000224:	4b17      	ldr	r3, [pc, #92]	; (8000284 <HAL_NVIC_SetPriority+0x60>)
  *         This parameter can be a value between 0 and 15
  *         A lower priority value indicates a higher priority.          
  * @retval None
  */
void HAL_NVIC_SetPriority(IRQn_Type IRQn, uint32_t PreemptPriority, uint32_t SubPriority)
{ 
 8000226:	b530      	push	{r4, r5, lr}
 8000228:	68dc      	ldr	r4, [r3, #12]
 800022a:	f3c4 2402 	ubfx	r4, r4, #8, #3
{
  uint32_t PriorityGroupTmp = (PriorityGroup & (uint32_t)0x07UL);   /* only values 0..7 are used          */
  uint32_t PreemptPriorityBits;
  uint32_t SubPriorityBits;

  PreemptPriorityBits = ((7UL - PriorityGroupTmp) > (uint32_t)(__NVIC_PRIO_BITS)) ? (uint32_t)(__NVIC_PRIO_BITS) : (uint32_t)(7UL - PriorityGroupTmp);
 800022e:	f1c4 0307 	rsb	r3, r4, #7
  SubPriorityBits     = ((PriorityGroupTmp + (uint32_t)(__NVIC_PRIO_BITS)) < (uint32_t)7UL) ? (uint32_t)0UL : (uint32_t)((PriorityGroupTmp - 7UL) + (uint32_t)(__NVIC_PRIO_BITS));
 8000232:	1d25      	adds	r5, r4, #4
  PreemptPriorityBits = ((7UL - PriorityGroupTmp) > (uint32_t)(__NVIC_PRIO_BITS)) ? (uint32_t)(__NVIC_PRIO_BITS) : (uint32_t)(7UL - PriorityGroupTmp);
 8000234:	2b04      	cmp	r3, #4
 8000236:	bf28      	it	cs
 8000238:	2304      	movcs	r3, #4
  SubPriorityBits     = ((PriorityGroupTmp + (uint32_t)(__NVIC_PRIO_BITS)) < (uint32_t)7UL) ? (uint32_t)0UL : (uint32_t)((PriorityGroupTmp - 7UL) + (uint32_t)(__NVIC_PRIO_BITS));
 800023a:	2d06      	cmp	r5, #6

  return (
           ((PreemptPriority & (uint32_t)((1UL << (PreemptPriorityBits)) - 1UL)) << SubPriorityBits) |
 800023c:	f04f 0501 	mov.w	r5, #1
  SubPriorityBits     = ((PriorityGroupTmp + (uint32_t)(__NVIC_PRIO_BITS)) < (uint32_t)7UL) ? (uint32_t)0UL : (uint32_t)((PriorityGroupTmp - 7UL) + (uint32_t)(__NVIC_PRIO_BITS));
 8000240:	bf98      	it	ls
 8000242:	2400      	movls	r4, #0
           ((PreemptPriority & (uint32_t)((1UL << (PreemptPriorityBits)) - 1UL)) << SubPriorityBits) |
 8000244:	fa05 f303 	lsl.w	r3, r5, r3
 8000248:	f103 33ff 	add.w	r3, r3, #4294967295
  SubPriorityBits     = ((PriorityGroupTmp + (uint32_t)(__NVIC_PRIO_BITS)) < (uint32_t)7UL) ? (uint32_t)0UL : (uint32_t)((PriorityGroupTmp - 7UL) + (uint32_t)(__NVIC_PRIO_BITS));
 800024c:	bf88      	it	hi
 800024e:	3c03      	subhi	r4, #3
           ((PreemptPriority & (uint32_t)((1UL << (PreemptPriorityBits)) - 1UL)) << SubPriorityBits) |
 8000250:	4019      	ands	r1, r3
 8000252:	40a1      	lsls	r1, r4
           ((SubPriority     & (uint32_t)((1UL << (SubPriorityBits    )) - 1UL)))
 8000254:	fa05 f404 	lsl.w	r4, r5, r4
 8000258:	3c01      	subs	r4, #1
 800025a:	4022      	ands	r2, r4
  if ((int32_t)(IRQn) < 0)
 800025c:	2800      	cmp	r0, #0
           ((PreemptPriority & (uint32_t)((1UL << (PreemptPriorityBits)) - 1UL)) << SubPriorityBits) |
 800025e:	ea42 0201 	orr.w	r2, r2, r1
 8000262:	ea4f 1202 	mov.w	r2, r2, lsl #4
    NVIC->IP[((uint32_t)(int32_t)IRQn)]               = (uint8_t)((priority << (8U - __NVIC_PRIO_BITS)) & (uint32_t)0xFFUL);
 8000266:	bfaf      	iteee	ge
 8000268:	f100 4060 	addge.w	r0, r0, #3758096384	; 0xe0000000
    SCB->SHP[(((uint32_t)(int32_t)IRQn) & 0xFUL)-4UL] = (uint8_t)((priority << (8U - __NVIC_PRIO_BITS)) & (uint32_t)0xFFUL);
 800026c:	4b06      	ldrlt	r3, [pc, #24]	; (8000288 <HAL_NVIC_SetPriority+0x64>)
 800026e:	f000 000f 	andlt.w	r0, r0, #15
 8000272:	b2d2      	uxtblt	r2, r2
    NVIC->IP[((uint32_t)(int32_t)IRQn)]               = (uint8_t)((priority << (8U - __NVIC_PRIO_BITS)) & (uint32_t)0xFFUL);
 8000274:	bfa5      	ittet	ge
 8000276:	b2d2      	uxtbge	r2, r2
 8000278:	f500 4061 	addge.w	r0, r0, #57600	; 0xe100
    SCB->SHP[(((uint32_t)(int32_t)IRQn) & 0xFUL)-4UL] = (uint8_t)((priority << (8U - __NVIC_PRIO_BITS)) & (uint32_t)0xFFUL);
 800027c:	541a      	strblt	r2, [r3, r0]
    NVIC->IP[((uint32_t)(int32_t)IRQn)]               = (uint8_t)((priority << (8U - __NVIC_PRIO_BITS)) & (uint32_t)0xFFUL);
 800027e:	f880 2300 	strbge.w	r2, [r0, #768]	; 0x300
 8000282:	bd30      	pop	{r4, r5, pc}
 8000284:	e000ed00 	.word	0xe000ed00
 8000288:	e000ed14 	.word	0xe000ed14

0800028c <HAL_NVIC_EnableIRQ>:
  NVIC->ISER[(((uint32_t)(int32_t)IRQn) >> 5UL)] = (uint32_t)(1UL << (((uint32_t)(int32_t)IRQn) & 0x1FUL));
 800028c:	2301      	movs	r3, #1
 800028e:	0942      	lsrs	r2, r0, #5
 8000290:	f000 001f 	and.w	r0, r0, #31
 8000294:	fa03 f000 	lsl.w	r0, r3, r0
 8000298:	4b01      	ldr	r3, [pc, #4]	; (80002a0 <HAL_NVIC_EnableIRQ+0x14>)
 800029a:	f843 0022 	str.w	r0, [r3, r2, lsl #2]
 800029e:	4770      	bx	lr
 80002a0:	e000e100 	.word	0xe000e100

080002a4 <HAL_SYSTICK_Config>:
           function <b>SysTick_Config</b> is not included. In this case, the file <b><i>device</i>.h</b>
           must contain a vendor-specific implementation of this function.
 */
__STATIC_INLINE uint32_t SysTick_Config(uint32_t ticks)
{
  if ((ticks - 1UL) > SysTick_LOAD_RELOAD_Msk)
 80002a4:	3801      	subs	r0, #1
 80002a6:	f1b0 7f80 	cmp.w	r0, #16777216	; 0x1000000
 80002aa:	d20a      	bcs.n	80002c2 <HAL_SYSTICK_Config+0x1e>
    SCB->SHP[(((uint32_t)(int32_t)IRQn) & 0xFUL)-4UL] = (uint8_t)((priority << (8U - __NVIC_PRIO_BITS)) & (uint32_t)0xFFUL);
 80002ac:	21f0      	movs	r1, #240	; 0xf0
  {
    return (1UL);                                                   /* Reload value impossible */
  }

  SysTick->LOAD  = (uint32_t)(ticks - 1UL);                         /* set reload register */
 80002ae:	4b06      	ldr	r3, [pc, #24]	; (80002c8 <HAL_SYSTICK_Config+0x24>)
    SCB->SHP[(((uint32_t)(int32_t)IRQn) & 0xFUL)-4UL] = (uint8_t)((priority << (8U - __NVIC_PRIO_BITS)) & (uint32_t)0xFFUL);
 80002b0:	4a06      	ldr	r2, [pc, #24]	; (80002cc <HAL_SYSTICK_Config+0x28>)
  SysTick->LOAD  = (uint32_t)(ticks - 1UL);                         /* set reload register */
 80002b2:	6058      	str	r0, [r3, #4]
    SCB->SHP[(((uint32_t)(int32_t)IRQn) & 0xFUL)-4UL] = (uint8_t)((priority << (8U - __NVIC_PRIO_BITS)) & (uint32_t)0xFFUL);
 80002b4:	f882 1023 	strb.w	r1, [r2, #35]	; 0x23
  NVIC_SetPriority (SysTick_IRQn, (1UL << __NVIC_PRIO_BITS) - 1UL); /* set Priority for Systick Interrupt */
  SysTick->VAL   = 0UL;                                             /* Load the SysTick Counter Value */
 80002b8:	2000      	movs	r0, #0
  SysTick->CTRL  = SysTick_CTRL_CLKSOURCE_Msk |
 80002ba:	2207      	movs	r2, #7
  SysTick->VAL   = 0UL;                                             /* Load the SysTick Counter Value */
 80002bc:	6098      	str	r0, [r3, #8]
  SysTick->CTRL  = SysTick_CTRL_CLKSOURCE_Msk |
 80002be:	601a      	str	r2, [r3, #0]
 80002c0:	4770      	bx	lr
    return (1UL);                                                   /* Reload value impossible */
 80002c2:	2001      	movs	r0, #1
  *                  - 1  Function failed.
  */
uint32_t HAL_SYSTICK_Config(uint32_t TicksNumb)
{
   return SysTick_Config(TicksNumb);
}
 80002c4:	4770      	bx	lr
 80002c6:	bf00      	nop
 80002c8:	e000e010 	.word	0xe000e010
 80002cc:	e000ed00 	.word	0xe000ed00

080002d0 <HAL_SYSTICK_CLKSourceConfig>:
  *             @arg SYSTICK_CLKSOURCE_HCLK_DIV8: AHB clock divided by 8 selected as SysTick clock source.
  *             @arg SYSTICK_CLKSOURCE_HCLK: AHB clock selected as SysTick clock source.
  * @retval None
  */
void HAL_SYSTICK_CLKSourceConfig(uint32_t CLKSource)
{
 80002d0:	4b04      	ldr	r3, [pc, #16]	; (80002e4 <HAL_SYSTICK_CLKSourceConfig+0x14>)
  /* Check the parameters */
  assert_param(IS_SYSTICK_CLK_SOURCE(CLKSource));
  if (CLKSource == SYSTICK_CLKSOURCE_HCLK)
 80002d2:	2804      	cmp	r0, #4
  {
    SysTick->CTRL |= SYSTICK_CLKSOURCE_HCLK;
 80002d4:	681a      	ldr	r2, [r3, #0]
 80002d6:	bf0c      	ite	eq
 80002d8:	f042 0204 	orreq.w	r2, r2, #4
  }
  else
  {
    SysTick->CTRL &= ~SYSTICK_CLKSOURCE_HCLK;
 80002dc:	f022 0204 	bicne.w	r2, r2, #4
 80002e0:	601a      	str	r2, [r3, #0]
 80002e2:	4770      	bx	lr
 80002e4:	e000e010 	.word	0xe000e010

080002e8 <HAL_SYSTICK_Callback>:
/**
  * @brief  SYSTICK callback.
  * @retval None
  */
__weak void HAL_SYSTICK_Callback(void)
{
 80002e8:	4770      	bx	lr

080002ea <HAL_SYSTICK_IRQHandler>:
{
 80002ea:	b508      	push	{r3, lr}
  HAL_SYSTICK_Callback();
 80002ec:	f7ff fffc 	bl	80002e8 <HAL_SYSTICK_Callback>
 80002f0:	bd08      	pop	{r3, pc}
	...

080002f4 <HAL_GPIO_Init>:
  * @param  GPIO_Init: pointer to a GPIO_InitTypeDef structure that contains
  *         the configuration information for the specified GPIO peripheral.
  * @retval None
  */
void HAL_GPIO_Init(GPIO_TypeDef  *GPIOx, GPIO_InitTypeDef *GPIO_Init)
{
 80002f4:	e92d 4ff7 	stmdb	sp!, {r0, r1, r2, r4, r5, r6, r7, r8, r9, sl, fp, lr}
  uint32_t position;
  uint32_t ioposition = 0x00U;
  uint32_t iocurrent = 0x00U;
  uint32_t temp = 0x00U;
  uint32_t config = 0x00U;
 80002f8:	2200      	movs	r2, #0
  assert_param(IS_GPIO_ALL_INSTANCE(GPIOx));
  assert_param(IS_GPIO_PIN(GPIO_Init->Pin));
  assert_param(IS_GPIO_MODE(GPIO_Init->Mode));

  /* Configure the port pins */
  for (position = 0U; position < GPIO_NUMBER; position++)
 80002fa:	4616      	mov	r6, r2
 80002fc:	4b65      	ldr	r3, [pc, #404]	; (8000494 <HAL_GPIO_Init+0x1a0>)
    {
      /* Check the Alternate function parameters */
      assert_param(IS_GPIO_AF_INSTANCE(GPIOx));

      /* Based on the required mode, filling config variable with MODEy[1:0] and CNFy[3:2] corresponding bits */
      switch (GPIO_Init->Mode)
 80002fe:	f8df e1a4 	ldr.w	lr, [pc, #420]	; 80004a4 <HAL_GPIO_Init+0x1b0>
 8000302:	f8df c1a4 	ldr.w	ip, [pc, #420]	; 80004a8 <HAL_GPIO_Init+0x1b4>
    ioposition = (0x01U << position);
 8000306:	f04f 0801 	mov.w	r8, #1
    iocurrent = (uint32_t)(GPIO_Init->Pin) & ioposition;
 800030a:	680c      	ldr	r4, [r1, #0]
    ioposition = (0x01U << position);
 800030c:	fa08 f806 	lsl.w	r8, r8, r6
    iocurrent = (uint32_t)(GPIO_Init->Pin) & ioposition;
 8000310:	ea08 0404 	and.w	r4, r8, r4
    if (iocurrent == ioposition)
 8000314:	45a0      	cmp	r8, r4
 8000316:	d17f      	bne.n	8000418 <HAL_GPIO_Init+0x124>
      switch (GPIO_Init->Mode)
 8000318:	684d      	ldr	r5, [r1, #4]
 800031a:	2d12      	cmp	r5, #18
 800031c:	f000 80af 	beq.w	800047e <HAL_GPIO_Init+0x18a>
 8000320:	f200 8088 	bhi.w	8000434 <HAL_GPIO_Init+0x140>
 8000324:	2d02      	cmp	r5, #2
 8000326:	f000 80a7 	beq.w	8000478 <HAL_GPIO_Init+0x184>
 800032a:	d87c      	bhi.n	8000426 <HAL_GPIO_Init+0x132>
 800032c:	2d00      	cmp	r5, #0
 800032e:	f000 808e 	beq.w	800044e <HAL_GPIO_Init+0x15a>
 8000332:	2d01      	cmp	r5, #1
 8000334:	f000 809e 	beq.w	8000474 <HAL_GPIO_Init+0x180>
       in order to address CRH or CRL register*/
      configregister = (iocurrent < GPIO_PIN_8) ? &GPIOx->CRL     : &GPIOx->CRH;
      registeroffset = (iocurrent < GPIO_PIN_8) ? (position << 2U) : ((position - 8U) << 2U);

      /* Apply the new configuration of the pin to the register */
      MODIFY_REG((*configregister), ((GPIO_CRL_MODE0 | GPIO_CRL_CNF0) << registeroffset), (config << registeroffset));
 8000338:	f04f 090f 	mov.w	r9, #15
      configregister = (iocurrent < GPIO_PIN_8) ? &GPIOx->CRL     : &GPIOx->CRH;
 800033c:	2cff      	cmp	r4, #255	; 0xff
 800033e:	bf93      	iteet	ls
 8000340:	4682      	movls	sl, r0
 8000342:	f106 4580 	addhi.w	r5, r6, #1073741824	; 0x40000000
 8000346:	3d08      	subhi	r5, #8
 8000348:	f8d0 b000 	ldrls.w	fp, [r0]
 800034c:	bf92      	itee	ls
 800034e:	00b5      	lslls	r5, r6, #2
 8000350:	f8d0 b004 	ldrhi.w	fp, [r0, #4]
 8000354:	00ad      	lslhi	r5, r5, #2
      MODIFY_REG((*configregister), ((GPIO_CRL_MODE0 | GPIO_CRL_CNF0) << registeroffset), (config << registeroffset));
 8000356:	fa09 f805 	lsl.w	r8, r9, r5
 800035a:	ea2b 0808 	bic.w	r8, fp, r8
 800035e:	fa02 f505 	lsl.w	r5, r2, r5
      configregister = (iocurrent < GPIO_PIN_8) ? &GPIOx->CRL     : &GPIOx->CRH;
 8000362:	bf88      	it	hi
 8000364:	f100 0a04 	addhi.w	sl, r0, #4
      MODIFY_REG((*configregister), ((GPIO_CRL_MODE0 | GPIO_CRL_CNF0) << registeroffset), (config << registeroffset));
 8000368:	ea48 0505 	orr.w	r5, r8, r5
 800036c:	f8ca 5000 	str.w	r5, [sl]

      /*--------------------- EXTI Mode Configuration ------------------------*/
      /* Configure the External Interrupt or event for the current IO */
      if ((GPIO_Init->Mode & EXTI_MODE) == EXTI_MODE)
 8000370:	f8d1 a004 	ldr.w	sl, [r1, #4]
 8000374:	f01a 5f80 	tst.w	sl, #268435456	; 0x10000000
 8000378:	d04e      	beq.n	8000418 <HAL_GPIO_Init+0x124>
      {
        /* Enable AFIO Clock */
        __HAL_RCC_AFIO_CLK_ENABLE();
 800037a:	4d47      	ldr	r5, [pc, #284]	; (8000498 <HAL_GPIO_Init+0x1a4>)
 800037c:	4f46      	ldr	r7, [pc, #280]	; (8000498 <HAL_GPIO_Init+0x1a4>)
 800037e:	69ad      	ldr	r5, [r5, #24]
 8000380:	f026 0803 	bic.w	r8, r6, #3
 8000384:	f045 0501 	orr.w	r5, r5, #1
 8000388:	61bd      	str	r5, [r7, #24]
 800038a:	69bd      	ldr	r5, [r7, #24]
 800038c:	f108 4880 	add.w	r8, r8, #1073741824	; 0x40000000
 8000390:	f005 0501 	and.w	r5, r5, #1
 8000394:	9501      	str	r5, [sp, #4]
 8000396:	f508 3880 	add.w	r8, r8, #65536	; 0x10000
        temp = AFIO->EXTICR[position >> 2U];
        CLEAR_BIT(temp, (0x0FU) << (4U * (position & 0x03U)));
 800039a:	f006 0b03 	and.w	fp, r6, #3
        __HAL_RCC_AFIO_CLK_ENABLE();
 800039e:	9d01      	ldr	r5, [sp, #4]
        CLEAR_BIT(temp, (0x0FU) << (4U * (position & 0x03U)));
 80003a0:	ea4f 0b8b 	mov.w	fp, fp, lsl #2
        temp = AFIO->EXTICR[position >> 2U];
 80003a4:	f8d8 5008 	ldr.w	r5, [r8, #8]
        CLEAR_BIT(temp, (0x0FU) << (4U * (position & 0x03U)));
 80003a8:	fa09 f90b 	lsl.w	r9, r9, fp
 80003ac:	ea25 0909 	bic.w	r9, r5, r9
        SET_BIT(temp, (GPIO_GET_INDEX(GPIOx)) << (4U * (position & 0x03U)));
 80003b0:	4d3a      	ldr	r5, [pc, #232]	; (800049c <HAL_GPIO_Init+0x1a8>)
 80003b2:	42a8      	cmp	r0, r5
 80003b4:	d068      	beq.n	8000488 <HAL_GPIO_Init+0x194>
 80003b6:	f505 6580 	add.w	r5, r5, #1024	; 0x400
 80003ba:	42a8      	cmp	r0, r5
 80003bc:	d066      	beq.n	800048c <HAL_GPIO_Init+0x198>
 80003be:	f505 6580 	add.w	r5, r5, #1024	; 0x400
 80003c2:	42a8      	cmp	r0, r5
 80003c4:	d064      	beq.n	8000490 <HAL_GPIO_Init+0x19c>
 80003c6:	f505 6580 	add.w	r5, r5, #1024	; 0x400
 80003ca:	42a8      	cmp	r0, r5
 80003cc:	bf0c      	ite	eq
 80003ce:	2503      	moveq	r5, #3
 80003d0:	2504      	movne	r5, #4
 80003d2:	fa05 f50b 	lsl.w	r5, r5, fp
 80003d6:	ea45 0509 	orr.w	r5, r5, r9
        AFIO->EXTICR[position >> 2U] = temp;
 80003da:	f8c8 5008 	str.w	r5, [r8, #8]


        /* Configure the interrupt mask */
        if ((GPIO_Init->Mode & GPIO_MODE_IT) == GPIO_MODE_IT)
        {
          SET_BIT(EXTI->IMR, iocurrent);
 80003de:	681d      	ldr	r5, [r3, #0]
        if ((GPIO_Init->Mode & GPIO_MODE_IT) == GPIO_MODE_IT)
 80003e0:	f41a 3f80 	tst.w	sl, #65536	; 0x10000
          SET_BIT(EXTI->IMR, iocurrent);
 80003e4:	bf14      	ite	ne
 80003e6:	4325      	orrne	r5, r4
        }
        else
        {
          CLEAR_BIT(EXTI->IMR, iocurrent);
 80003e8:	43a5      	biceq	r5, r4
 80003ea:	601d      	str	r5, [r3, #0]
        }

        /* Configure the event mask */
        if ((GPIO_Init->Mode & GPIO_MODE_EVT) == GPIO_MODE_EVT)
        {
          SET_BIT(EXTI->EMR, iocurrent);
 80003ec:	685d      	ldr	r5, [r3, #4]
        if ((GPIO_Init->Mode & GPIO_MODE_EVT) == GPIO_MODE_EVT)
 80003ee:	f41a 3f00 	tst.w	sl, #131072	; 0x20000
          SET_BIT(EXTI->EMR, iocurrent);
 80003f2:	bf14      	ite	ne
 80003f4:	4325      	orrne	r5, r4
        }
        else
        {
          CLEAR_BIT(EXTI->EMR, iocurrent);
 80003f6:	43a5      	biceq	r5, r4
 80003f8:	605d      	str	r5, [r3, #4]
        }

        /* Enable or disable the rising trigger */
        if ((GPIO_Init->Mode & RISING_EDGE) == RISING_EDGE)
        {
          SET_BIT(EXTI->RTSR, iocurrent);
 80003fa:	689d      	ldr	r5, [r3, #8]
        if ((GPIO_Init->Mode & RISING_EDGE) == RISING_EDGE)
 80003fc:	f41a 1f80 	tst.w	sl, #1048576	; 0x100000
          SET_BIT(EXTI->RTSR, iocurrent);
 8000400:	bf14      	ite	ne
 8000402:	4325      	orrne	r5, r4
        }
        else
        {
          CLEAR_BIT(EXTI->RTSR, iocurrent);
 8000404:	43a5      	biceq	r5, r4
 8000406:	609d      	str	r5, [r3, #8]
        }

        /* Enable or disable the falling trigger */
        if ((GPIO_Init->Mode & FALLING_EDGE) == FALLING_EDGE)
        {
          SET_BIT(EXTI->FTSR, iocurrent);
 8000408:	68dd      	ldr	r5, [r3, #12]
        if ((GPIO_Init->Mode & FALLING_EDGE) == FALLING_EDGE)
 800040a:	f41a 1f00 	tst.w	sl, #2097152	; 0x200000
          SET_BIT(EXTI->FTSR, iocurrent);
 800040e:	bf14      	ite	ne
 8000410:	432c      	orrne	r4, r5
        }
        else
        {
          CLEAR_BIT(EXTI->FTSR, iocurrent);
 8000412:	ea25 0404 	biceq.w	r4, r5, r4
 8000416:	60dc      	str	r4, [r3, #12]
  for (position = 0U; position < GPIO_NUMBER; position++)
 8000418:	3601      	adds	r6, #1
 800041a:	2e10      	cmp	r6, #16
 800041c:	f47f af73 	bne.w	8000306 <HAL_GPIO_Init+0x12>
        }
      }
    }
  }
}
 8000420:	b003      	add	sp, #12
 8000422:	e8bd 8ff0 	ldmia.w	sp!, {r4, r5, r6, r7, r8, r9, sl, fp, pc}
      switch (GPIO_Init->Mode)
 8000426:	2d03      	cmp	r5, #3
 8000428:	d022      	beq.n	8000470 <HAL_GPIO_Init+0x17c>
 800042a:	2d11      	cmp	r5, #17
 800042c:	d184      	bne.n	8000338 <HAL_GPIO_Init+0x44>
          config = GPIO_Init->Speed + GPIO_CR_CNF_GP_OUTPUT_OD;
 800042e:	68ca      	ldr	r2, [r1, #12]
 8000430:	3204      	adds	r2, #4
          break;
 8000432:	e781      	b.n	8000338 <HAL_GPIO_Init+0x44>
      switch (GPIO_Init->Mode)
 8000434:	4f1a      	ldr	r7, [pc, #104]	; (80004a0 <HAL_GPIO_Init+0x1ac>)
 8000436:	42bd      	cmp	r5, r7
 8000438:	d009      	beq.n	800044e <HAL_GPIO_Init+0x15a>
 800043a:	d812      	bhi.n	8000462 <HAL_GPIO_Init+0x16e>
 800043c:	f8df 906c 	ldr.w	r9, [pc, #108]	; 80004ac <HAL_GPIO_Init+0x1b8>
 8000440:	454d      	cmp	r5, r9
 8000442:	d004      	beq.n	800044e <HAL_GPIO_Init+0x15a>
 8000444:	f509 3980 	add.w	r9, r9, #65536	; 0x10000
 8000448:	454d      	cmp	r5, r9
 800044a:	f47f af75 	bne.w	8000338 <HAL_GPIO_Init+0x44>
          if (GPIO_Init->Pull == GPIO_NOPULL)
 800044e:	688a      	ldr	r2, [r1, #8]
 8000450:	b1c2      	cbz	r2, 8000484 <HAL_GPIO_Init+0x190>
          else if (GPIO_Init->Pull == GPIO_PULLUP)
 8000452:	2a01      	cmp	r2, #1
            GPIOx->BSRR = ioposition;
 8000454:	bf0c      	ite	eq
 8000456:	f8c0 8010 	streq.w	r8, [r0, #16]
            GPIOx->BRR = ioposition;
 800045a:	f8c0 8014 	strne.w	r8, [r0, #20]
            config = GPIO_CR_MODE_INPUT + GPIO_CR_CNF_INPUT_PU_PD;
 800045e:	2208      	movs	r2, #8
 8000460:	e76a      	b.n	8000338 <HAL_GPIO_Init+0x44>
      switch (GPIO_Init->Mode)
 8000462:	4575      	cmp	r5, lr
 8000464:	d0f3      	beq.n	800044e <HAL_GPIO_Init+0x15a>
 8000466:	4565      	cmp	r5, ip
 8000468:	d0f1      	beq.n	800044e <HAL_GPIO_Init+0x15a>
 800046a:	f8df 9044 	ldr.w	r9, [pc, #68]	; 80004b0 <HAL_GPIO_Init+0x1bc>
 800046e:	e7eb      	b.n	8000448 <HAL_GPIO_Init+0x154>
          config = GPIO_CR_MODE_INPUT + GPIO_CR_CNF_ANALOG;
 8000470:	2200      	movs	r2, #0
 8000472:	e761      	b.n	8000338 <HAL_GPIO_Init+0x44>
          config = GPIO_Init->Speed + GPIO_CR_CNF_GP_OUTPUT_PP;
 8000474:	68ca      	ldr	r2, [r1, #12]
          break;
 8000476:	e75f      	b.n	8000338 <HAL_GPIO_Init+0x44>
          config = GPIO_Init->Speed + GPIO_CR_CNF_AF_OUTPUT_PP;
 8000478:	68ca      	ldr	r2, [r1, #12]
 800047a:	3208      	adds	r2, #8
          break;
 800047c:	e75c      	b.n	8000338 <HAL_GPIO_Init+0x44>
          config = GPIO_Init->Speed + GPIO_CR_CNF_AF_OUTPUT_OD;
 800047e:	68ca      	ldr	r2, [r1, #12]
 8000480:	320c      	adds	r2, #12
          break;
 8000482:	e759      	b.n	8000338 <HAL_GPIO_Init+0x44>
            config = GPIO_CR_MODE_INPUT + GPIO_CR_CNF_INPUT_FLOATING;
 8000484:	2204      	movs	r2, #4
 8000486:	e757      	b.n	8000338 <HAL_GPIO_Init+0x44>
        SET_BIT(temp, (GPIO_GET_INDEX(GPIOx)) << (4U * (position & 0x03U)));
 8000488:	2500      	movs	r5, #0
 800048a:	e7a2      	b.n	80003d2 <HAL_GPIO_Init+0xde>
 800048c:	2501      	movs	r5, #1
 800048e:	e7a0      	b.n	80003d2 <HAL_GPIO_Init+0xde>
 8000490:	2502      	movs	r5, #2
 8000492:	e79e      	b.n	80003d2 <HAL_GPIO_Init+0xde>
 8000494:	40010400 	.word	0x40010400
 8000498:	40021000 	.word	0x40021000
 800049c:	40010800 	.word	0x40010800
 80004a0:	10210000 	.word	0x10210000
 80004a4:	10310000 	.word	0x10310000
 80004a8:	10320000 	.word	0x10320000
 80004ac:	10110000 	.word	0x10110000
 80004b0:	10220000 	.word	0x10220000

080004b4 <HAL_GPIO_WritePin>:
{
  /* Check the parameters */
  assert_param(IS_GPIO_PIN(GPIO_Pin));
  assert_param(IS_GPIO_PIN_ACTION(PinState));

  if (PinState != GPIO_PIN_RESET)
 80004b4:	b10a      	cbz	r2, 80004ba <HAL_GPIO_WritePin+0x6>
  {
    GPIOx->BSRR = GPIO_Pin;
  }
  else
  {
    GPIOx->BSRR = (uint32_t)GPIO_Pin << 16U;
 80004b6:	6101      	str	r1, [r0, #16]
 80004b8:	4770      	bx	lr
 80004ba:	0409      	lsls	r1, r1, #16
 80004bc:	e7fb      	b.n	80004b6 <HAL_GPIO_WritePin+0x2>

080004be <HAL_PCD_Init>:
  *         parameters in the PCD_InitTypeDef and create the associated handle.
  * @param  hpcd: PCD handle
  * @retval HAL status
  */
HAL_StatusTypeDef HAL_PCD_Init(PCD_HandleTypeDef *hpcd)
{
 80004be:	e92d 41f0 	stmdb	sp!, {r4, r5, r6, r7, r8, lr}
  uint32_t index = 0U;
  
  /* Check the PCD handle allocation */
  if(hpcd == NULL)
 80004c2:	4604      	mov	r4, r0
{
 80004c4:	b086      	sub	sp, #24
  if(hpcd == NULL)
 80004c6:	2800      	cmp	r0, #0
 80004c8:	d060      	beq.n	800058c <HAL_PCD_Init+0xce>
  }
  
  /* Check the parameters */
  assert_param(IS_PCD_ALL_INSTANCE(hpcd->Instance));

  if(hpcd->State == HAL_PCD_STATE_RESET)
 80004ca:	f890 3429 	ldrb.w	r3, [r0, #1065]	; 0x429
 80004ce:	f003 02ff 	and.w	r2, r3, #255	; 0xff
 80004d2:	b91b      	cbnz	r3, 80004dc <HAL_PCD_Init+0x1e>
  {  
    /* Allocate lock resource and initialize it */
    hpcd->Lock = HAL_UNLOCKED;
 80004d4:	f880 2428 	strb.w	r2, [r0, #1064]	; 0x428

    /* Init the low level hardware : GPIO, CLOCK, NVIC... */
    HAL_PCD_MspInit(hpcd);
 80004d8:	f002 faac 	bl	8002a34 <HAL_PCD_MspInit>
  }
  
  hpcd->State = HAL_PCD_STATE_BUSY;
  
  /* Disable the Interrupts */
  __HAL_PCD_DISABLE(hpcd);
 80004dc:	4625      	mov	r5, r4
  hpcd->State = HAL_PCD_STATE_BUSY;
 80004de:	2303      	movs	r3, #3

  /*Init the Core (common init.) */
  USB_CoreInit(hpcd->Instance, hpcd->Init);
 80004e0:	466e      	mov	r6, sp
  __HAL_PCD_DISABLE(hpcd);
 80004e2:	f855 0b10 	ldr.w	r0, [r5], #16
  hpcd->State = HAL_PCD_STATE_BUSY;
 80004e6:	f884 3429 	strb.w	r3, [r4, #1065]	; 0x429
  __HAL_PCD_DISABLE(hpcd);
 80004ea:	f001 f848 	bl	800157e <USB_DisableGlobalInt>
  USB_CoreInit(hpcd->Instance, hpcd->Init);
 80004ee:	cd0f      	ldmia	r5!, {r0, r1, r2, r3}
 80004f0:	c60f      	stmia	r6!, {r0, r1, r2, r3}
 80004f2:	682b      	ldr	r3, [r5, #0]
 80004f4:	f104 0804 	add.w	r8, r4, #4
 80004f8:	6033      	str	r3, [r6, #0]
 80004fa:	e898 000e 	ldmia.w	r8, {r1, r2, r3}
 80004fe:	6820      	ldr	r0, [r4, #0]
 8000500:	f001 f82d 	bl	800155e <USB_CoreInit>
 
  /* Force Device Mode*/
  USB_SetCurrentMode(hpcd->Instance , USB_DEVICE_MODE);
 8000504:	2100      	movs	r1, #0
 8000506:	6820      	ldr	r0, [r4, #0]
 8000508:	f001 f843 	bl	8001592 <USB_SetCurrentMode>
 
  /* Init endpoints structures */
  for (index = 0U; index < 15U ; index++)
 800050c:	2100      	movs	r1, #0
 800050e:	4623      	mov	r3, r4
  USB_SetCurrentMode(hpcd->Instance , USB_DEVICE_MODE);
 8000510:	4622      	mov	r2, r4
  {
    /* Init ep structure */
    hpcd->IN_ep[index].is_in = 1U;
 8000512:	2601      	movs	r6, #1
    hpcd->IN_ep[index].num = index;
    hpcd->IN_ep[index].tx_fifo_num = index;
    /* Control until ep is actvated */
    hpcd->IN_ep[index].type = EP_TYPE_CTRL;
 8000514:	4608      	mov	r0, r1
 8000516:	f104 0510 	add.w	r5, r4, #16
    hpcd->IN_ep[index].num = index;
 800051a:	f882 1028 	strb.w	r1, [r2, #40]	; 0x28
    hpcd->IN_ep[index].tx_fifo_num = index;
 800051e:	8691      	strh	r1, [r2, #52]	; 0x34
  for (index = 0U; index < 15U ; index++)
 8000520:	3101      	adds	r1, #1
 8000522:	290f      	cmp	r1, #15
    hpcd->IN_ep[index].is_in = 1U;
 8000524:	f882 6029 	strb.w	r6, [r2, #41]	; 0x29
    hpcd->IN_ep[index].type = EP_TYPE_CTRL;
 8000528:	f882 002b 	strb.w	r0, [r2, #43]	; 0x2b
    hpcd->IN_ep[index].maxpacket =  0U;
 800052c:	6390      	str	r0, [r2, #56]	; 0x38
    hpcd->IN_ep[index].xfer_buff = 0U;
 800052e:	63d0      	str	r0, [r2, #60]	; 0x3c
    hpcd->IN_ep[index].xfer_len = 0U;
 8000530:	6410      	str	r0, [r2, #64]	; 0x40
 8000532:	f102 0220 	add.w	r2, r2, #32
  for (index = 0U; index < 15U ; index++)
 8000536:	d1f0      	bne.n	800051a <HAL_PCD_Init+0x5c>
 8000538:	2200      	movs	r2, #0
  }
 
  for (index = 0U; index < 15U ; index++)
  {
    hpcd->OUT_ep[index].is_in = 0U;
 800053a:	4617      	mov	r7, r2
    hpcd->OUT_ep[index].num = index;
 800053c:	f883 2228 	strb.w	r2, [r3, #552]	; 0x228
    hpcd->IN_ep[index].tx_fifo_num = index;
 8000540:	869a      	strh	r2, [r3, #52]	; 0x34
  for (index = 0U; index < 15U ; index++)
 8000542:	3201      	adds	r2, #1
 8000544:	2a0f      	cmp	r2, #15
    hpcd->OUT_ep[index].is_in = 0U;
 8000546:	f883 7229 	strb.w	r7, [r3, #553]	; 0x229
    /* Control until ep is activated */
    hpcd->OUT_ep[index].type = EP_TYPE_CTRL;
 800054a:	f883 722b 	strb.w	r7, [r3, #555]	; 0x22b
    hpcd->OUT_ep[index].maxpacket = 0U;
 800054e:	f8c3 7238 	str.w	r7, [r3, #568]	; 0x238
    hpcd->OUT_ep[index].xfer_buff = 0U;
 8000552:	f8c3 723c 	str.w	r7, [r3, #572]	; 0x23c
    hpcd->OUT_ep[index].xfer_len = 0U;
 8000556:	f8c3 7240 	str.w	r7, [r3, #576]	; 0x240
 800055a:	f103 0320 	add.w	r3, r3, #32
  for (index = 0U; index < 15U ; index++)
 800055e:	d1ed      	bne.n	800053c <HAL_PCD_Init+0x7e>
  }
  
  /* Init Device */
  USB_DevInit(hpcd->Instance, hpcd->Init);
 8000560:	466e      	mov	r6, sp
 8000562:	cd0f      	ldmia	r5!, {r0, r1, r2, r3}
 8000564:	c60f      	stmia	r6!, {r0, r1, r2, r3}
 8000566:	682b      	ldr	r3, [r5, #0]
 8000568:	6033      	str	r3, [r6, #0]
 800056a:	e898 000e 	ldmia.w	r8, {r1, r2, r3}
 800056e:	6820      	ldr	r0, [r4, #0]
 8000570:	f001 f811 	bl	8001596 <USB_DevInit>
  
  hpcd->USB_Address = 0U;
  hpcd->State= HAL_PCD_STATE_READY;
 8000574:	2301      	movs	r3, #1
  hpcd->USB_Address = 0U;
 8000576:	f884 7024 	strb.w	r7, [r4, #36]	; 0x24
  
  USB_DevDisconnect (hpcd->Instance);  
 800057a:	6820      	ldr	r0, [r4, #0]
  hpcd->State= HAL_PCD_STATE_READY;
 800057c:	f884 3429 	strb.w	r3, [r4, #1065]	; 0x429
  USB_DevDisconnect (hpcd->Instance);  
 8000580:	f001 fae0 	bl	8001b44 <USB_DevDisconnect>
  return HAL_OK;
 8000584:	2000      	movs	r0, #0
}
 8000586:	b006      	add	sp, #24
 8000588:	e8bd 81f0 	ldmia.w	sp!, {r4, r5, r6, r7, r8, pc}
    return HAL_ERROR;
 800058c:	2001      	movs	r0, #1
 800058e:	e7fa      	b.n	8000586 <HAL_PCD_Init+0xc8>

08000590 <HAL_PCD_Start>:
  * @param  hpcd: PCD handle
  * @retval HAL status
  */
HAL_StatusTypeDef HAL_PCD_Start(PCD_HandleTypeDef *hpcd)
{
  __HAL_LOCK(hpcd);
 8000590:	f890 3428 	ldrb.w	r3, [r0, #1064]	; 0x428
{
 8000594:	b510      	push	{r4, lr}
  __HAL_LOCK(hpcd);
 8000596:	2b01      	cmp	r3, #1
{
 8000598:	4604      	mov	r4, r0
  __HAL_LOCK(hpcd);
 800059a:	d00e      	beq.n	80005ba <HAL_PCD_Start+0x2a>
 800059c:	2101      	movs	r1, #1
 800059e:	f880 1428 	strb.w	r1, [r0, #1064]	; 0x428
  HAL_PCDEx_SetConnectionState (hpcd, 1);
 80005a2:	f002 fb5e 	bl	8002c62 <HAL_PCDEx_SetConnectionState>
  USB_DevConnect (hpcd->Instance);
 80005a6:	6820      	ldr	r0, [r4, #0]
 80005a8:	f001 faca 	bl	8001b40 <USB_DevConnect>
  __HAL_PCD_ENABLE(hpcd);
 80005ac:	6820      	ldr	r0, [r4, #0]
 80005ae:	f000 ffdd 	bl	800156c <USB_EnableGlobalInt>
  __HAL_UNLOCK(hpcd);
 80005b2:	2000      	movs	r0, #0
 80005b4:	f884 0428 	strb.w	r0, [r4, #1064]	; 0x428
  return HAL_OK;
 80005b8:	bd10      	pop	{r4, pc}
  __HAL_LOCK(hpcd);
 80005ba:	2002      	movs	r0, #2
}
 80005bc:	bd10      	pop	{r4, pc}

080005be <HAL_PCD_SetAddress>:
  * @param  address: new device address
  * @retval HAL status
  */
HAL_StatusTypeDef HAL_PCD_SetAddress(PCD_HandleTypeDef *hpcd, uint8_t address)
{
  __HAL_LOCK(hpcd);
 80005be:	f890 2428 	ldrb.w	r2, [r0, #1064]	; 0x428
{
 80005c2:	b510      	push	{r4, lr}
  __HAL_LOCK(hpcd);
 80005c4:	2a01      	cmp	r2, #1
{
 80005c6:	4604      	mov	r4, r0
  __HAL_LOCK(hpcd);
 80005c8:	d00b      	beq.n	80005e2 <HAL_PCD_SetAddress+0x24>
 80005ca:	2201      	movs	r2, #1
 80005cc:	f880 2428 	strb.w	r2, [r0, #1064]	; 0x428
  hpcd->USB_Address = address;
 80005d0:	f884 1024 	strb.w	r1, [r4, #36]	; 0x24
  USB_SetDevAddress(hpcd->Instance, address);
 80005d4:	6800      	ldr	r0, [r0, #0]
 80005d6:	f001 faad 	bl	8001b34 <USB_SetDevAddress>
  __HAL_UNLOCK(hpcd);
 80005da:	2000      	movs	r0, #0
 80005dc:	f884 0428 	strb.w	r0, [r4, #1064]	; 0x428
 80005e0:	bd10      	pop	{r4, pc}
  __HAL_LOCK(hpcd);
 80005e2:	2002      	movs	r0, #2
  return HAL_OK;
}
 80005e4:	bd10      	pop	{r4, pc}

080005e6 <HAL_PCD_EP_Open>:
  * @param  ep_mps: endpoint max packet size
  * @param  ep_type: endpoint type   
  * @retval HAL status
  */
HAL_StatusTypeDef HAL_PCD_EP_Open(PCD_HandleTypeDef *hpcd, uint8_t ep_addr, uint16_t ep_mps, uint8_t ep_type)
{
 80005e6:	b538      	push	{r3, r4, r5, lr}
 80005e8:	4604      	mov	r4, r0
  HAL_StatusTypeDef  ret = HAL_OK;
  PCD_EPTypeDef *ep = NULL;
  
  if ((ep_addr & 0x80U) == 0x80U)
 80005ea:	b248      	sxtb	r0, r1
 80005ec:	2800      	cmp	r0, #0
 80005ee:	f001 057f 	and.w	r5, r1, #127	; 0x7f
  {
    ep = &hpcd->IN_ep[ep_addr & 0x7FU];
 80005f2:	bfb5      	itete	lt
 80005f4:	eb04 1145 	addlt.w	r1, r4, r5, lsl #5
  }
  else
  {
    ep = &hpcd->OUT_ep[ep_addr & 0x7FU];
 80005f8:	eb04 1141 	addge.w	r1, r4, r1, lsl #5
    ep = &hpcd->IN_ep[ep_addr & 0x7FU];
 80005fc:	3128      	addlt	r1, #40	; 0x28
    ep = &hpcd->OUT_ep[ep_addr & 0x7FU];
 80005fe:	f501 710a 	addge.w	r1, r1, #552	; 0x228
  }
  ep->num   = ep_addr & 0x7FU;
  
  ep->is_in = (0x80U & ep_addr) != 0U;
 8000602:	0fc0      	lsrs	r0, r0, #31
  ep->num   = ep_addr & 0x7FU;
 8000604:	700d      	strb	r5, [r1, #0]
  ep->is_in = (0x80U & ep_addr) != 0U;
 8000606:	7048      	strb	r0, [r1, #1]
  ep->maxpacket = ep_mps;
  ep->type = ep_type;
 8000608:	70cb      	strb	r3, [r1, #3]
    
  __HAL_LOCK(hpcd);
 800060a:	f894 3428 	ldrb.w	r3, [r4, #1064]	; 0x428
  ep->maxpacket = ep_mps;
 800060e:	610a      	str	r2, [r1, #16]
  __HAL_LOCK(hpcd);
 8000610:	2b01      	cmp	r3, #1
 8000612:	d009      	beq.n	8000628 <HAL_PCD_EP_Open+0x42>
 8000614:	2301      	movs	r3, #1
  USB_ActivateEndpoint(hpcd->Instance , ep);
 8000616:	6820      	ldr	r0, [r4, #0]
  __HAL_LOCK(hpcd);
 8000618:	f884 3428 	strb.w	r3, [r4, #1064]	; 0x428
  USB_ActivateEndpoint(hpcd->Instance , ep);
 800061c:	f000 ffd6 	bl	80015cc <USB_ActivateEndpoint>
  __HAL_UNLOCK(hpcd);
 8000620:	2000      	movs	r0, #0
 8000622:	f884 0428 	strb.w	r0, [r4, #1064]	; 0x428
  return ret;
 8000626:	bd38      	pop	{r3, r4, r5, pc}
  __HAL_LOCK(hpcd);
 8000628:	2002      	movs	r0, #2
}
 800062a:	bd38      	pop	{r3, r4, r5, pc}

0800062c <HAL_PCD_EP_Close>:
  */
HAL_StatusTypeDef HAL_PCD_EP_Close(PCD_HandleTypeDef *hpcd, uint8_t ep_addr)
{  
  PCD_EPTypeDef *ep = NULL;
  
  if ((ep_addr & 0x80U) == 0x80U)
 800062c:	b24b      	sxtb	r3, r1
 800062e:	2b00      	cmp	r3, #0
 8000630:	f001 027f 	and.w	r2, r1, #127	; 0x7f
  {
    ep = &hpcd->IN_ep[ep_addr & 0x7FU];
 8000634:	bfb5      	itete	lt
 8000636:	eb00 1142 	addlt.w	r1, r0, r2, lsl #5
  }
  else
  {
    ep = &hpcd->OUT_ep[ep_addr & 0x7FU];
 800063a:	eb00 1141 	addge.w	r1, r0, r1, lsl #5
    ep = &hpcd->IN_ep[ep_addr & 0x7FU];
 800063e:	3128      	addlt	r1, #40	; 0x28
    ep = &hpcd->OUT_ep[ep_addr & 0x7FU];
 8000640:	f501 710a 	addge.w	r1, r1, #552	; 0x228
  }
  ep->num   = ep_addr & 0x7FU;
  
  ep->is_in = (0x80U & ep_addr) != 0U;
 8000644:	0fdb      	lsrs	r3, r3, #31
{  
 8000646:	b510      	push	{r4, lr}
  ep->num   = ep_addr & 0x7FU;
 8000648:	700a      	strb	r2, [r1, #0]
  ep->is_in = (0x80U & ep_addr) != 0U;
 800064a:	704b      	strb	r3, [r1, #1]
  
  __HAL_LOCK(hpcd);
 800064c:	f890 3428 	ldrb.w	r3, [r0, #1064]	; 0x428
{  
 8000650:	4604      	mov	r4, r0
  __HAL_LOCK(hpcd);
 8000652:	2b01      	cmp	r3, #1
 8000654:	d009      	beq.n	800066a <HAL_PCD_EP_Close+0x3e>
 8000656:	2301      	movs	r3, #1
 8000658:	f880 3428 	strb.w	r3, [r0, #1064]	; 0x428
  USB_DeactivateEndpoint(hpcd->Instance , ep);
 800065c:	6800      	ldr	r0, [r0, #0]
 800065e:	f001 f927 	bl	80018b0 <USB_DeactivateEndpoint>
  __HAL_UNLOCK(hpcd);
 8000662:	2000      	movs	r0, #0
 8000664:	f884 0428 	strb.w	r0, [r4, #1064]	; 0x428
  return HAL_OK;
 8000668:	bd10      	pop	{r4, pc}
  __HAL_LOCK(hpcd);
 800066a:	2002      	movs	r0, #2
}
 800066c:	bd10      	pop	{r4, pc}

0800066e <HAL_PCD_EP_Receive>:
  * @param  pBuf: pointer to the reception buffer
  * @param  len: amount of data to be received
  * @retval HAL status
  */
HAL_StatusTypeDef HAL_PCD_EP_Receive(PCD_HandleTypeDef *hpcd, uint8_t ep_addr, uint8_t *pBuf, uint32_t len)
{
 800066e:	b570      	push	{r4, r5, r6, lr}
  ep = &hpcd->OUT_ep[ep_addr & 0x7FU];
  
  /*setup and start the Xfer */
  ep->xfer_buff = pBuf;  
  ep->xfer_len = len;
  ep->xfer_count = 0U;
 8000670:	2600      	movs	r6, #0
 8000672:	f001 017f 	and.w	r1, r1, #127	; 0x7f
 8000676:	014d      	lsls	r5, r1, #5
  ep->xfer_buff = pBuf;  
 8000678:	1944      	adds	r4, r0, r5
  ep->is_in = 0U;
  ep->num = ep_addr & 0x7FU;
 800067a:	f884 1228 	strb.w	r1, [r4, #552]	; 0x228
  ep = &hpcd->OUT_ep[ep_addr & 0x7FU];
 800067e:	f505 710a 	add.w	r1, r5, #552	; 0x228
  {
    USB_EP0StartXfer(hpcd->Instance , ep);
  }
  else
  {
    USB_EPStartXfer(hpcd->Instance , ep);
 8000682:	4401      	add	r1, r0
  ep->xfer_buff = pBuf;  
 8000684:	f8c4 223c 	str.w	r2, [r4, #572]	; 0x23c
  ep->xfer_len = len;
 8000688:	f8c4 3240 	str.w	r3, [r4, #576]	; 0x240
  ep->xfer_count = 0U;
 800068c:	f8c4 6244 	str.w	r6, [r4, #580]	; 0x244
  ep->is_in = 0U;
 8000690:	f884 6229 	strb.w	r6, [r4, #553]	; 0x229
    USB_EPStartXfer(hpcd->Instance , ep);
 8000694:	6800      	ldr	r0, [r0, #0]
 8000696:	f001 fa6f 	bl	8001b78 <USB_EPStartXfer>
  }

  return HAL_OK;
}
 800069a:	4630      	mov	r0, r6
 800069c:	bd70      	pop	{r4, r5, r6, pc}

0800069e <HAL_PCD_EP_Transmit>:
  * @param  pBuf: pointer to the transmission buffer
  * @param  len: amount of data to be sent
  * @retval HAL status
  */
HAL_StatusTypeDef HAL_PCD_EP_Transmit(PCD_HandleTypeDef *hpcd, uint8_t ep_addr, uint8_t *pBuf, uint32_t len)
{
 800069e:	f001 017f 	and.w	r1, r1, #127	; 0x7f
 80006a2:	b570      	push	{r4, r5, r6, lr}
 80006a4:	014d      	lsls	r5, r1, #5
  PCD_EPTypeDef *ep = NULL;
  
  ep = &hpcd->IN_ep[ep_addr & 0x7FU];
  
  /*setup and start the Xfer */
  ep->xfer_buff = pBuf;  
 80006a6:	1944      	adds	r4, r0, r5
  ep->xfer_len = len;
 80006a8:	6423      	str	r3, [r4, #64]	; 0x40
  ep->xfer_count = 0U;
 80006aa:	2600      	movs	r6, #0
  ep->is_in = 1U;
 80006ac:	2301      	movs	r3, #1
  ep->num = ep_addr & 0x7FU;
 80006ae:	f884 1028 	strb.w	r1, [r4, #40]	; 0x28
  ep = &hpcd->IN_ep[ep_addr & 0x7FU];
 80006b2:	f105 0128 	add.w	r1, r5, #40	; 0x28
  {
    USB_EP0StartXfer(hpcd->Instance , ep);
  }
  else
  {
    USB_EPStartXfer(hpcd->Instance , ep);
 80006b6:	4401      	add	r1, r0
  ep->xfer_buff = pBuf;  
 80006b8:	63e2      	str	r2, [r4, #60]	; 0x3c
  ep->xfer_count = 0U;
 80006ba:	6466      	str	r6, [r4, #68]	; 0x44
  ep->is_in = 1U;
 80006bc:	f884 3029 	strb.w	r3, [r4, #41]	; 0x29
    USB_EPStartXfer(hpcd->Instance , ep);
 80006c0:	6800      	ldr	r0, [r0, #0]
 80006c2:	f001 fa59 	bl	8001b78 <USB_EPStartXfer>
  }

  return HAL_OK;
}
 80006c6:	4630      	mov	r0, r6
 80006c8:	bd70      	pop	{r4, r5, r6, pc}
	...

080006cc <HAL_PCD_IRQHandler>:
{ 
 80006cc:	e92d 47f3 	stmdb	sp!, {r0, r1, r4, r5, r6, r7, r8, r9, sl, lr}
 80006d0:	4604      	mov	r4, r0
  if (__HAL_PCD_GET_FLAG (hpcd, USB_ISTR_CTR))
 80006d2:	6800      	ldr	r0, [r0, #0]
 80006d4:	f001 fa38 	bl	8001b48 <USB_ReadInterrupts>
 80006d8:	0400      	lsls	r0, r0, #16
 80006da:	f100 8098 	bmi.w	800080e <HAL_PCD_IRQHandler+0x142>
  if (__HAL_PCD_GET_FLAG (hpcd, USB_ISTR_RESET))
 80006de:	6820      	ldr	r0, [r4, #0]
 80006e0:	f001 fa32 	bl	8001b48 <USB_ReadInterrupts>
 80006e4:	0541      	lsls	r1, r0, #21
 80006e6:	d50f      	bpl.n	8000708 <HAL_PCD_IRQHandler+0x3c>
    __HAL_PCD_CLEAR_FLAG(hpcd, USB_ISTR_RESET);
 80006e8:	6822      	ldr	r2, [r4, #0]
    HAL_PCD_ResetCallback(hpcd);
 80006ea:	4620      	mov	r0, r4
    __HAL_PCD_CLEAR_FLAG(hpcd, USB_ISTR_RESET);
 80006ec:	f8b2 3044 	ldrh.w	r3, [r2, #68]	; 0x44
 80006f0:	f423 6380 	bic.w	r3, r3, #1024	; 0x400
 80006f4:	041b      	lsls	r3, r3, #16
 80006f6:	0c1b      	lsrs	r3, r3, #16
 80006f8:	f8a2 3044 	strh.w	r3, [r2, #68]	; 0x44
    HAL_PCD_ResetCallback(hpcd);
 80006fc:	f002 f9d1 	bl	8002aa2 <HAL_PCD_ResetCallback>
    HAL_PCD_SetAddress(hpcd, 0U);
 8000700:	2100      	movs	r1, #0
 8000702:	4620      	mov	r0, r4
 8000704:	f7ff ff5b 	bl	80005be <HAL_PCD_SetAddress>
  if (__HAL_PCD_GET_FLAG (hpcd, USB_ISTR_PMAOVR))
 8000708:	6820      	ldr	r0, [r4, #0]
 800070a:	f001 fa1d 	bl	8001b48 <USB_ReadInterrupts>
 800070e:	0447      	lsls	r7, r0, #17
 8000710:	d508      	bpl.n	8000724 <HAL_PCD_IRQHandler+0x58>
    __HAL_PCD_CLEAR_FLAG(hpcd, USB_ISTR_PMAOVR);    
 8000712:	6822      	ldr	r2, [r4, #0]
 8000714:	f8b2 3044 	ldrh.w	r3, [r2, #68]	; 0x44
 8000718:	f423 4380 	bic.w	r3, r3, #16384	; 0x4000
 800071c:	041b      	lsls	r3, r3, #16
 800071e:	0c1b      	lsrs	r3, r3, #16
 8000720:	f8a2 3044 	strh.w	r3, [r2, #68]	; 0x44
  if (__HAL_PCD_GET_FLAG (hpcd, USB_ISTR_ERR))
 8000724:	6820      	ldr	r0, [r4, #0]
 8000726:	f001 fa0f 	bl	8001b48 <USB_ReadInterrupts>
 800072a:	0486      	lsls	r6, r0, #18
 800072c:	d508      	bpl.n	8000740 <HAL_PCD_IRQHandler+0x74>
    __HAL_PCD_CLEAR_FLAG(hpcd, USB_ISTR_ERR); 
 800072e:	6822      	ldr	r2, [r4, #0]
 8000730:	f8b2 3044 	ldrh.w	r3, [r2, #68]	; 0x44
 8000734:	f423 5300 	bic.w	r3, r3, #8192	; 0x2000
 8000738:	041b      	lsls	r3, r3, #16
 800073a:	0c1b      	lsrs	r3, r3, #16
 800073c:	f8a2 3044 	strh.w	r3, [r2, #68]	; 0x44
  if (__HAL_PCD_GET_FLAG (hpcd, USB_ISTR_WKUP))
 8000740:	6820      	ldr	r0, [r4, #0]
 8000742:	f001 fa01 	bl	8001b48 <USB_ReadInterrupts>
 8000746:	04c5      	lsls	r5, r0, #19
 8000748:	d51c      	bpl.n	8000784 <HAL_PCD_IRQHandler+0xb8>
    hpcd->Instance->CNTR &= ~(USB_CNTR_LP_MODE);
 800074a:	6822      	ldr	r2, [r4, #0]
    HAL_PCD_ResumeCallback(hpcd);
 800074c:	4620      	mov	r0, r4
    hpcd->Instance->CNTR &= ~(USB_CNTR_LP_MODE);
 800074e:	f8b2 3040 	ldrh.w	r3, [r2, #64]	; 0x40
 8000752:	f023 0304 	bic.w	r3, r3, #4
 8000756:	041b      	lsls	r3, r3, #16
 8000758:	0c1b      	lsrs	r3, r3, #16
 800075a:	f8a2 3040 	strh.w	r3, [r2, #64]	; 0x40
    hpcd->Instance->CNTR &= ~(USB_CNTR_FSUSP);
 800075e:	f8b2 3040 	ldrh.w	r3, [r2, #64]	; 0x40
 8000762:	f023 0308 	bic.w	r3, r3, #8
 8000766:	041b      	lsls	r3, r3, #16
 8000768:	0c1b      	lsrs	r3, r3, #16
 800076a:	f8a2 3040 	strh.w	r3, [r2, #64]	; 0x40
    HAL_PCD_ResumeCallback(hpcd);
 800076e:	f002 f9b5 	bl	8002adc <HAL_PCD_ResumeCallback>
    __HAL_PCD_CLEAR_FLAG(hpcd, USB_ISTR_WKUP);     
 8000772:	6822      	ldr	r2, [r4, #0]
 8000774:	f8b2 3044 	ldrh.w	r3, [r2, #68]	; 0x44
 8000778:	f423 5380 	bic.w	r3, r3, #4096	; 0x1000
 800077c:	041b      	lsls	r3, r3, #16
 800077e:	0c1b      	lsrs	r3, r3, #16
 8000780:	f8a2 3044 	strh.w	r3, [r2, #68]	; 0x44
  if (__HAL_PCD_GET_FLAG (hpcd, USB_ISTR_SUSP))
 8000784:	6820      	ldr	r0, [r4, #0]
 8000786:	f001 f9df 	bl	8001b48 <USB_ReadInterrupts>
 800078a:	0500      	lsls	r0, r0, #20
 800078c:	d51d      	bpl.n	80007ca <HAL_PCD_IRQHandler+0xfe>
    hpcd->Instance->CNTR |= USB_CNTR_FSUSP;
 800078e:	6820      	ldr	r0, [r4, #0]
 8000790:	f8b0 3040 	ldrh.w	r3, [r0, #64]	; 0x40
 8000794:	b29b      	uxth	r3, r3
 8000796:	f043 0308 	orr.w	r3, r3, #8
 800079a:	f8a0 3040 	strh.w	r3, [r0, #64]	; 0x40
    __HAL_PCD_CLEAR_FLAG(hpcd, USB_ISTR_SUSP);  
 800079e:	f8b0 3044 	ldrh.w	r3, [r0, #68]	; 0x44
 80007a2:	f423 6300 	bic.w	r3, r3, #2048	; 0x800
 80007a6:	041b      	lsls	r3, r3, #16
 80007a8:	0c1b      	lsrs	r3, r3, #16
 80007aa:	f8a0 3044 	strh.w	r3, [r0, #68]	; 0x44
    hpcd->Instance->CNTR |= USB_CNTR_LP_MODE;
 80007ae:	f8b0 3040 	ldrh.w	r3, [r0, #64]	; 0x40
 80007b2:	b29b      	uxth	r3, r3
 80007b4:	f043 0304 	orr.w	r3, r3, #4
 80007b8:	f8a0 3040 	strh.w	r3, [r0, #64]	; 0x40
    if (__HAL_PCD_GET_FLAG (hpcd, USB_ISTR_WKUP) == 0U)
 80007bc:	f001 f9c4 	bl	8001b48 <USB_ReadInterrupts>
 80007c0:	04c1      	lsls	r1, r0, #19
 80007c2:	d402      	bmi.n	80007ca <HAL_PCD_IRQHandler+0xfe>
      HAL_PCD_SuspendCallback(hpcd);
 80007c4:	4620      	mov	r0, r4
 80007c6:	f002 f979 	bl	8002abc <HAL_PCD_SuspendCallback>
  if (__HAL_PCD_GET_FLAG (hpcd, USB_ISTR_SOF))
 80007ca:	6820      	ldr	r0, [r4, #0]
 80007cc:	f001 f9bc 	bl	8001b48 <USB_ReadInterrupts>
 80007d0:	0582      	lsls	r2, r0, #22
 80007d2:	d50b      	bpl.n	80007ec <HAL_PCD_IRQHandler+0x120>
    __HAL_PCD_CLEAR_FLAG(hpcd, USB_ISTR_SOF); 
 80007d4:	6822      	ldr	r2, [r4, #0]
    HAL_PCD_SOFCallback(hpcd);
 80007d6:	4620      	mov	r0, r4
    __HAL_PCD_CLEAR_FLAG(hpcd, USB_ISTR_SOF); 
 80007d8:	f8b2 3044 	ldrh.w	r3, [r2, #68]	; 0x44
 80007dc:	f423 7300 	bic.w	r3, r3, #512	; 0x200
 80007e0:	041b      	lsls	r3, r3, #16
 80007e2:	0c1b      	lsrs	r3, r3, #16
 80007e4:	f8a2 3044 	strh.w	r3, [r2, #68]	; 0x44
    HAL_PCD_SOFCallback(hpcd);
 80007e8:	f002 f957 	bl	8002a9a <HAL_PCD_SOFCallback>
  if (__HAL_PCD_GET_FLAG (hpcd, USB_ISTR_ESOF))
 80007ec:	6820      	ldr	r0, [r4, #0]
 80007ee:	f001 f9ab 	bl	8001b48 <USB_ReadInterrupts>
 80007f2:	05c3      	lsls	r3, r0, #23
 80007f4:	d508      	bpl.n	8000808 <HAL_PCD_IRQHandler+0x13c>
    __HAL_PCD_CLEAR_FLAG(hpcd, USB_ISTR_ESOF); 
 80007f6:	6822      	ldr	r2, [r4, #0]
 80007f8:	f8b2 3044 	ldrh.w	r3, [r2, #68]	; 0x44
 80007fc:	f423 7380 	bic.w	r3, r3, #256	; 0x100
 8000800:	041b      	lsls	r3, r3, #16
 8000802:	0c1b      	lsrs	r3, r3, #16
 8000804:	f8a2 3044 	strh.w	r3, [r2, #68]	; 0x44
}
 8000808:	b002      	add	sp, #8
 800080a:	e8bd 87f0 	ldmia.w	sp!, {r4, r5, r6, r7, r8, r9, sl, pc}
static HAL_StatusTypeDef PCD_EP_ISR_Handler(PCD_HandleTypeDef *hpcd)
{
  PCD_EPTypeDef *ep = NULL;
  uint16_t count = 0;
  uint8_t epindex = 0;
  __IO uint16_t wIstr = 0;  
 800080e:	2300      	movs	r3, #0
      if ((wEPVal & USB_EP_CTR_TX) != 0U)
      {
        ep = &hpcd->IN_ep[epindex];
        
        /* clear int flag */
        PCD_CLEAR_TX_EP_CTR(hpcd->Instance, epindex);
 8000810:	4fc8      	ldr	r7, [pc, #800]	; (8000b34 <HAL_PCD_IRQHandler+0x468>)
          PCD_SET_EP_RX_STATUS(hpcd->Instance, PCD_ENDP0, USB_EP_RX_VALID);
 8000812:	f8df 8324 	ldr.w	r8, [pc, #804]	; 8000b38 <HAL_PCD_IRQHandler+0x46c>
          PCD_SET_EP_RX_CNT(hpcd->Instance, PCD_ENDP0, ep->maxpacket);
 8000816:	f8df 9324 	ldr.w	r9, [pc, #804]	; 8000b3c <HAL_PCD_IRQHandler+0x470>
  __IO uint16_t wIstr = 0;  
 800081a:	f8ad 3004 	strh.w	r3, [sp, #4]
  __IO uint16_t wEPVal = 0;
 800081e:	f8ad 3006 	strh.w	r3, [sp, #6]
  while (((wIstr = hpcd->Instance->ISTR) & USB_ISTR_CTR) != 0)
 8000822:	6820      	ldr	r0, [r4, #0]
 8000824:	f8b0 3044 	ldrh.w	r3, [r0, #68]	; 0x44
 8000828:	b29b      	uxth	r3, r3
 800082a:	f8ad 3004 	strh.w	r3, [sp, #4]
 800082e:	041b      	lsls	r3, r3, #16
 8000830:	f57f af55 	bpl.w	80006de <HAL_PCD_IRQHandler+0x12>
    epindex = (uint8_t)(wIstr & USB_ISTR_EP_ID);
 8000834:	f8bd 5004 	ldrh.w	r5, [sp, #4]
    if (epindex == 0)
 8000838:	f015 050f 	ands.w	r5, r5, #15
 800083c:	f040 80ab 	bne.w	8000996 <HAL_PCD_IRQHandler+0x2ca>
      if ((wIstr & USB_ISTR_DIR) == 0)
 8000840:	f8bd 1004 	ldrh.w	r1, [sp, #4]
        PCD_CLEAR_TX_EP_CTR(hpcd->Instance, PCD_ENDP0);
 8000844:	8803      	ldrh	r3, [r0, #0]
      if ((wIstr & USB_ISTR_DIR) == 0)
 8000846:	f011 0110 	ands.w	r1, r1, #16
        PCD_CLEAR_TX_EP_CTR(hpcd->Instance, PCD_ENDP0);
 800084a:	b29b      	uxth	r3, r3
      if ((wIstr & USB_ISTR_DIR) == 0)
 800084c:	d126      	bne.n	800089c <HAL_PCD_IRQHandler+0x1d0>
        PCD_CLEAR_TX_EP_CTR(hpcd->Instance, PCD_ENDP0);
 800084e:	403b      	ands	r3, r7
 8000850:	8003      	strh	r3, [r0, #0]
        ep->xfer_count = PCD_GET_EP_TX_CNT(hpcd->Instance, ep->num);
 8000852:	f8b0 3050 	ldrh.w	r3, [r0, #80]	; 0x50
 8000856:	f894 2028 	ldrb.w	r2, [r4, #40]	; 0x28
 800085a:	b29b      	uxth	r3, r3
 800085c:	eb03 03c2 	add.w	r3, r3, r2, lsl #3
 8000860:	eb00 0043 	add.w	r0, r0, r3, lsl #1
 8000864:	f8d0 3404 	ldr.w	r3, [r0, #1028]	; 0x404
        ep->xfer_buff += ep->xfer_count;
 8000868:	6be2      	ldr	r2, [r4, #60]	; 0x3c
        ep->xfer_count = PCD_GET_EP_TX_CNT(hpcd->Instance, ep->num);
 800086a:	f3c3 0309 	ubfx	r3, r3, #0, #10
 800086e:	6463      	str	r3, [r4, #68]	; 0x44
        ep->xfer_buff += ep->xfer_count;
 8000870:	4413      	add	r3, r2
 8000872:	63e3      	str	r3, [r4, #60]	; 0x3c
        HAL_PCD_DataInStageCallback(hpcd, 0U);
 8000874:	4620      	mov	r0, r4
 8000876:	f002 f909 	bl	8002a8c <HAL_PCD_DataInStageCallback>
        if((hpcd->USB_Address > 0U)&& ( ep->xfer_len == 0U))
 800087a:	f894 3024 	ldrb.w	r3, [r4, #36]	; 0x24
 800087e:	2b00      	cmp	r3, #0
 8000880:	d0cf      	beq.n	8000822 <HAL_PCD_IRQHandler+0x156>
 8000882:	6c22      	ldr	r2, [r4, #64]	; 0x40
 8000884:	2a00      	cmp	r2, #0
 8000886:	d1cc      	bne.n	8000822 <HAL_PCD_IRQHandler+0x156>
          hpcd->Instance->DADDR = (hpcd->USB_Address | USB_DADDR_EF);
 8000888:	f894 3024 	ldrb.w	r3, [r4, #36]	; 0x24
 800088c:	6821      	ldr	r1, [r4, #0]
 800088e:	f043 0380 	orr.w	r3, r3, #128	; 0x80
 8000892:	f8a1 304c 	strh.w	r3, [r1, #76]	; 0x4c
          hpcd->USB_Address = 0U;
 8000896:	f884 2024 	strb.w	r2, [r4, #36]	; 0x24
 800089a:	e7c2      	b.n	8000822 <HAL_PCD_IRQHandler+0x156>
        wEPVal = PCD_GET_ENDPOINT(hpcd->Instance, PCD_ENDP0);
 800089c:	f8ad 3006 	strh.w	r3, [sp, #6]
        if ((wEPVal & USB_EP_SETUP) != 0U)
 80008a0:	f8bd 3006 	ldrh.w	r3, [sp, #6]
 80008a4:	051a      	lsls	r2, r3, #20
 80008a6:	d51f      	bpl.n	80008e8 <HAL_PCD_IRQHandler+0x21c>
          ep->xfer_count = PCD_GET_EP_RX_CNT(hpcd->Instance, ep->num);
 80008a8:	f8b0 3050 	ldrh.w	r3, [r0, #80]	; 0x50
 80008ac:	f894 2228 	ldrb.w	r2, [r4, #552]	; 0x228
 80008b0:	b29b      	uxth	r3, r3
 80008b2:	eb03 03c2 	add.w	r3, r3, r2, lsl #3
 80008b6:	eb00 0343 	add.w	r3, r0, r3, lsl #1
 80008ba:	f8d3 340c 	ldr.w	r3, [r3, #1036]	; 0x40c
          USB_ReadPMA(hpcd->Instance, (uint8_t*)hpcd->Setup ,ep->pmaadress , ep->xfer_count);       
 80008be:	f8b4 222c 	ldrh.w	r2, [r4, #556]	; 0x22c
          ep->xfer_count = PCD_GET_EP_RX_CNT(hpcd->Instance, ep->num);
 80008c2:	f3c3 0309 	ubfx	r3, r3, #0, #10
 80008c6:	f8c4 3244 	str.w	r3, [r4, #580]	; 0x244
          USB_ReadPMA(hpcd->Instance, (uint8_t*)hpcd->Setup ,ep->pmaadress , ep->xfer_count);       
 80008ca:	f204 412c 	addw	r1, r4, #1068	; 0x42c
 80008ce:	f001 fa53 	bl	8001d78 <USB_ReadPMA>
          PCD_CLEAR_RX_EP_CTR(hpcd->Instance, PCD_ENDP0); 
 80008d2:	6822      	ldr	r2, [r4, #0]
          HAL_PCD_SetupStageCallback(hpcd);
 80008d4:	4620      	mov	r0, r4
          PCD_CLEAR_RX_EP_CTR(hpcd->Instance, PCD_ENDP0); 
 80008d6:	8813      	ldrh	r3, [r2, #0]
 80008d8:	f023 0370 	bic.w	r3, r3, #112	; 0x70
 80008dc:	051b      	lsls	r3, r3, #20
 80008de:	0d1b      	lsrs	r3, r3, #20
 80008e0:	8013      	strh	r3, [r2, #0]
          HAL_PCD_SetupStageCallback(hpcd);
 80008e2:	f002 f8c5 	bl	8002a70 <HAL_PCD_SetupStageCallback>
 80008e6:	e79c      	b.n	8000822 <HAL_PCD_IRQHandler+0x156>
        else if ((wEPVal & USB_EP_CTR_RX) != 0U)
 80008e8:	f8bd 3006 	ldrh.w	r3, [sp, #6]
 80008ec:	041b      	lsls	r3, r3, #16
 80008ee:	d598      	bpl.n	8000822 <HAL_PCD_IRQHandler+0x156>
          PCD_CLEAR_RX_EP_CTR(hpcd->Instance, PCD_ENDP0);
 80008f0:	8803      	ldrh	r3, [r0, #0]
 80008f2:	f023 0370 	bic.w	r3, r3, #112	; 0x70
 80008f6:	051b      	lsls	r3, r3, #20
 80008f8:	0d1b      	lsrs	r3, r3, #20
 80008fa:	8003      	strh	r3, [r0, #0]
          ep->xfer_count = PCD_GET_EP_RX_CNT(hpcd->Instance, ep->num);
 80008fc:	f8b0 3050 	ldrh.w	r3, [r0, #80]	; 0x50
 8000900:	f894 2228 	ldrb.w	r2, [r4, #552]	; 0x228
 8000904:	b29b      	uxth	r3, r3
 8000906:	eb03 03c2 	add.w	r3, r3, r2, lsl #3
 800090a:	eb00 0343 	add.w	r3, r0, r3, lsl #1
 800090e:	f8d3 340c 	ldr.w	r3, [r3, #1036]	; 0x40c
 8000912:	f3c3 0309 	ubfx	r3, r3, #0, #10
 8000916:	f8c4 3244 	str.w	r3, [r4, #580]	; 0x244
          if (ep->xfer_count != 0U)
 800091a:	b163      	cbz	r3, 8000936 <HAL_PCD_IRQHandler+0x26a>
            USB_ReadPMA(hpcd->Instance, ep->xfer_buff, ep->pmaadress, ep->xfer_count);
 800091c:	f8b4 222c 	ldrh.w	r2, [r4, #556]	; 0x22c
 8000920:	f8d4 123c 	ldr.w	r1, [r4, #572]	; 0x23c
 8000924:	f001 fa28 	bl	8001d78 <USB_ReadPMA>
            ep->xfer_buff+=ep->xfer_count;
 8000928:	f8d4 323c 	ldr.w	r3, [r4, #572]	; 0x23c
 800092c:	f8d4 2244 	ldr.w	r2, [r4, #580]	; 0x244
 8000930:	4413      	add	r3, r2
 8000932:	f8c4 323c 	str.w	r3, [r4, #572]	; 0x23c
           HAL_PCD_DataOutStageCallback(hpcd, 0U);
 8000936:	2100      	movs	r1, #0
 8000938:	4620      	mov	r0, r4
 800093a:	f002 f89f 	bl	8002a7c <HAL_PCD_DataOutStageCallback>
          PCD_SET_EP_RX_CNT(hpcd->Instance, PCD_ENDP0, ep->maxpacket);
 800093e:	6822      	ldr	r2, [r4, #0]
 8000940:	f8d4 5238 	ldr.w	r5, [r4, #568]	; 0x238
 8000944:	f8b2 1050 	ldrh.w	r1, [r2, #80]	; 0x50
 8000948:	2d3e      	cmp	r5, #62	; 0x3e
 800094a:	b289      	uxth	r1, r1
 800094c:	f101 0106 	add.w	r1, r1, #6
 8000950:	f502 6080 	add.w	r0, r2, #1024	; 0x400
 8000954:	d917      	bls.n	8000986 <HAL_PCD_IRQHandler+0x2ba>
 8000956:	f3c5 134f 	ubfx	r3, r5, #5, #16
 800095a:	06ee      	lsls	r6, r5, #27
 800095c:	bf04      	itt	eq
 800095e:	f103 33ff 	addeq.w	r3, r3, #4294967295
 8000962:	b29b      	uxtheq	r3, r3
 8000964:	ea49 2383 	orr.w	r3, r9, r3, lsl #10
 8000968:	b29b      	uxth	r3, r3
 800096a:	f840 3011 	str.w	r3, [r0, r1, lsl #1]
          PCD_SET_EP_RX_STATUS(hpcd->Instance, PCD_ENDP0, USB_EP_RX_VALID);
 800096e:	8813      	ldrh	r3, [r2, #0]
 8000970:	b29b      	uxth	r3, r3
 8000972:	ea03 0308 	and.w	r3, r3, r8
 8000976:	f483 5340 	eor.w	r3, r3, #12288	; 0x3000
 800097a:	f443 4300 	orr.w	r3, r3, #32768	; 0x8000
 800097e:	f043 0380 	orr.w	r3, r3, #128	; 0x80
 8000982:	8013      	strh	r3, [r2, #0]
 8000984:	e74d      	b.n	8000822 <HAL_PCD_IRQHandler+0x156>
          PCD_SET_EP_RX_CNT(hpcd->Instance, PCD_ENDP0, ep->maxpacket);
 8000986:	f3c5 034f 	ubfx	r3, r5, #1, #16
 800098a:	07ed      	lsls	r5, r5, #31
 800098c:	bf44      	itt	mi
 800098e:	3301      	addmi	r3, #1
 8000990:	b29b      	uxthmi	r3, r3
 8000992:	029b      	lsls	r3, r3, #10
 8000994:	e7e8      	b.n	8000968 <HAL_PCD_IRQHandler+0x29c>
      wEPVal = PCD_GET_ENDPOINT(hpcd->Instance, epindex);
 8000996:	f830 3025 	ldrh.w	r3, [r0, r5, lsl #2]
 800099a:	b29b      	uxth	r3, r3
 800099c:	f8ad 3006 	strh.w	r3, [sp, #6]
      if ((wEPVal & USB_EP_CTR_RX) != 0U)
 80009a0:	f8bd 3006 	ldrh.w	r3, [sp, #6]
 80009a4:	0419      	lsls	r1, r3, #16
 80009a6:	d53f      	bpl.n	8000a28 <HAL_PCD_IRQHandler+0x35c>
        PCD_CLEAR_RX_EP_CTR(hpcd->Instance, epindex);
 80009a8:	f830 3025 	ldrh.w	r3, [r0, r5, lsl #2]
        if (ep->doublebuffer == 0U)
 80009ac:	ea4f 1a45 	mov.w	sl, r5, lsl #5
        PCD_CLEAR_RX_EP_CTR(hpcd->Instance, epindex);
 80009b0:	f023 0370 	bic.w	r3, r3, #112	; 0x70
 80009b4:	051b      	lsls	r3, r3, #20
 80009b6:	0d1b      	lsrs	r3, r3, #20
 80009b8:	f820 3025 	strh.w	r3, [r0, r5, lsl #2]
        if (ep->doublebuffer == 0U)
 80009bc:	eb04 010a 	add.w	r1, r4, sl
 80009c0:	f891 3232 	ldrb.w	r3, [r1, #562]	; 0x232
 80009c4:	2b00      	cmp	r3, #0
 80009c6:	d174      	bne.n	8000ab2 <HAL_PCD_IRQHandler+0x3e6>
          count = PCD_GET_EP_RX_CNT(hpcd->Instance, ep->num);
 80009c8:	f8b0 3050 	ldrh.w	r3, [r0, #80]	; 0x50
 80009cc:	f891 2228 	ldrb.w	r2, [r1, #552]	; 0x228
 80009d0:	b29b      	uxth	r3, r3
 80009d2:	3306      	adds	r3, #6
 80009d4:	eb03 03c2 	add.w	r3, r3, r2, lsl #3
 80009d8:	eb00 0343 	add.w	r3, r0, r3, lsl #1
 80009dc:	f8d3 6400 	ldr.w	r6, [r3, #1024]	; 0x400
 80009e0:	f3c6 0609 	ubfx	r6, r6, #0, #10
          if (count != 0U)
 80009e4:	b136      	cbz	r6, 80009f4 <HAL_PCD_IRQHandler+0x328>
            USB_ReadPMA(hpcd->Instance, ep->xfer_buff, ep->pmaadress, count);
 80009e6:	f8b1 222c 	ldrh.w	r2, [r1, #556]	; 0x22c
 80009ea:	4633      	mov	r3, r6
 80009ec:	f8d1 123c 	ldr.w	r1, [r1, #572]	; 0x23c
 80009f0:	f001 f9c2 	bl	8001d78 <USB_ReadPMA>
 80009f4:	eb04 010a 	add.w	r1, r4, sl
        ep->xfer_count+=count;
 80009f8:	f8d1 3244 	ldr.w	r3, [r1, #580]	; 0x244
        ep->xfer_buff+=count;
 80009fc:	f8d1 223c 	ldr.w	r2, [r1, #572]	; 0x23c
        ep->xfer_count+=count;
 8000a00:	4433      	add	r3, r6
 8000a02:	f8c1 3244 	str.w	r3, [r1, #580]	; 0x244
        if ((ep->xfer_len == 0U) || (count < ep->maxpacket))
 8000a06:	f8d1 3240 	ldr.w	r3, [r1, #576]	; 0x240
        ep->xfer_buff+=count;
 8000a0a:	4432      	add	r2, r6
 8000a0c:	f8c1 223c 	str.w	r2, [r1, #572]	; 0x23c
        if ((ep->xfer_len == 0U) || (count < ep->maxpacket))
 8000a10:	b123      	cbz	r3, 8000a1c <HAL_PCD_IRQHandler+0x350>
 8000a12:	f8d1 0238 	ldr.w	r0, [r1, #568]	; 0x238
 8000a16:	4286      	cmp	r6, r0
 8000a18:	f080 8086 	bcs.w	8000b28 <HAL_PCD_IRQHandler+0x45c>
          HAL_PCD_DataOutStageCallback(hpcd, ep->num);
 8000a1c:	44a2      	add	sl, r4
 8000a1e:	f89a 1228 	ldrb.w	r1, [sl, #552]	; 0x228
 8000a22:	4620      	mov	r0, r4
 8000a24:	f002 f82a 	bl	8002a7c <HAL_PCD_DataOutStageCallback>
      if ((wEPVal & USB_EP_CTR_TX) != 0U)
 8000a28:	f8bd 3006 	ldrh.w	r3, [sp, #6]
 8000a2c:	061a      	lsls	r2, r3, #24
 8000a2e:	f57f aef8 	bpl.w	8000822 <HAL_PCD_IRQHandler+0x156>
        PCD_CLEAR_TX_EP_CTR(hpcd->Instance, epindex);
 8000a32:	6820      	ldr	r0, [r4, #0]
        
        /* IN double Buffering*/
        if (ep->doublebuffer == 0U)
 8000a34:	016e      	lsls	r6, r5, #5
        PCD_CLEAR_TX_EP_CTR(hpcd->Instance, epindex);
 8000a36:	f830 3025 	ldrh.w	r3, [r0, r5, lsl #2]
        if (ep->doublebuffer == 0U)
 8000a3a:	19a1      	adds	r1, r4, r6
        PCD_CLEAR_TX_EP_CTR(hpcd->Instance, epindex);
 8000a3c:	b29b      	uxth	r3, r3
 8000a3e:	403b      	ands	r3, r7
 8000a40:	f820 3025 	strh.w	r3, [r0, r5, lsl #2]
        if (ep->doublebuffer == 0U)
 8000a44:	f891 3032 	ldrb.w	r3, [r1, #50]	; 0x32
 8000a48:	3502      	adds	r5, #2
 8000a4a:	2b00      	cmp	r3, #0
 8000a4c:	d178      	bne.n	8000b40 <HAL_PCD_IRQHandler+0x474>
        {
          ep->xfer_count = PCD_GET_EP_TX_CNT(hpcd->Instance, ep->num);
 8000a4e:	f8b0 3050 	ldrh.w	r3, [r0, #80]	; 0x50
 8000a52:	f891 2028 	ldrb.w	r2, [r1, #40]	; 0x28
 8000a56:	b29b      	uxth	r3, r3
 8000a58:	3302      	adds	r3, #2
 8000a5a:	eb03 03c2 	add.w	r3, r3, r2, lsl #3
 8000a5e:	eb00 0343 	add.w	r3, r0, r3, lsl #1
 8000a62:	f8d3 3400 	ldr.w	r3, [r3, #1024]	; 0x400
 8000a66:	eb04 1545 	add.w	r5, r4, r5, lsl #5
 8000a6a:	f3c3 0309 	ubfx	r3, r3, #0, #10
 8000a6e:	606b      	str	r3, [r5, #4]
          if (ep->xfer_count != 0U)
 8000a70:	b11b      	cbz	r3, 8000a7a <HAL_PCD_IRQHandler+0x3ae>
          {
            USB_WritePMA(hpcd->Instance, ep->xfer_buff, ep->pmaadress, ep->xfer_count);
 8000a72:	8d8a      	ldrh	r2, [r1, #44]	; 0x2c
 8000a74:	6bc9      	ldr	r1, [r1, #60]	; 0x3c
 8000a76:	f001 f86d 	bl	8001b54 <USB_WritePMA>
            }
          }
          PCD_FreeUserBuffer(hpcd->Instance, ep->num, PCD_EP_DBUF_IN);  
        }
        /*multi-packet on the NON control IN endpoint*/
        ep->xfer_count = PCD_GET_EP_TX_CNT(hpcd->Instance, ep->num);
 8000a7a:	6822      	ldr	r2, [r4, #0]
 8000a7c:	4426      	add	r6, r4
 8000a7e:	f8b2 3050 	ldrh.w	r3, [r2, #80]	; 0x50
 8000a82:	f896 1028 	ldrb.w	r1, [r6, #40]	; 0x28
 8000a86:	b29b      	uxth	r3, r3
 8000a88:	3302      	adds	r3, #2
 8000a8a:	eb03 03c1 	add.w	r3, r3, r1, lsl #3
 8000a8e:	eb02 0343 	add.w	r3, r2, r3, lsl #1
 8000a92:	f8d3 2400 	ldr.w	r2, [r3, #1024]	; 0x400
        ep->xfer_buff+=ep->xfer_count;
 8000a96:	6bf3      	ldr	r3, [r6, #60]	; 0x3c
        ep->xfer_count = PCD_GET_EP_TX_CNT(hpcd->Instance, ep->num);
 8000a98:	f3c2 0209 	ubfx	r2, r2, #0, #10
 8000a9c:	6472      	str	r2, [r6, #68]	; 0x44
        ep->xfer_buff+=ep->xfer_count;
 8000a9e:	441a      	add	r2, r3
       
        /* Zero Length Packet? */
        if (ep->xfer_len == 0U)
 8000aa0:	6c33      	ldr	r3, [r6, #64]	; 0x40
        ep->xfer_buff+=ep->xfer_count;
 8000aa2:	63f2      	str	r2, [r6, #60]	; 0x3c
        {
          /* TX COMPLETE */
          HAL_PCD_DataInStageCallback(hpcd, ep->num);
 8000aa4:	4620      	mov	r0, r4
        if (ep->xfer_len == 0U)
 8000aa6:	2b00      	cmp	r3, #0
 8000aa8:	f040 8085 	bne.w	8000bb6 <HAL_PCD_IRQHandler+0x4ea>
          HAL_PCD_DataInStageCallback(hpcd, ep->num);
 8000aac:	f001 ffee 	bl	8002a8c <HAL_PCD_DataInStageCallback>
 8000ab0:	e6b7      	b.n	8000822 <HAL_PCD_IRQHandler+0x156>
          if (PCD_GET_ENDPOINT(hpcd->Instance, ep->num) & USB_EP_DTOG_RX)
 8000ab2:	f891 3228 	ldrb.w	r3, [r1, #552]	; 0x228
 8000ab6:	f830 2023 	ldrh.w	r2, [r0, r3, lsl #2]
 8000aba:	00db      	lsls	r3, r3, #3
 8000abc:	f412 4f80 	tst.w	r2, #16384	; 0x4000
            count = PCD_GET_EP_DBUF0_CNT(hpcd->Instance, ep->num);
 8000ac0:	f8b0 2050 	ldrh.w	r2, [r0, #80]	; 0x50
 8000ac4:	b292      	uxth	r2, r2
          if (PCD_GET_ENDPOINT(hpcd->Instance, ep->num) & USB_EP_DTOG_RX)
 8000ac6:	d021      	beq.n	8000b0c <HAL_PCD_IRQHandler+0x440>
            count = PCD_GET_EP_DBUF0_CNT(hpcd->Instance, ep->num);
 8000ac8:	3202      	adds	r2, #2
 8000aca:	4413      	add	r3, r2
 8000acc:	eb00 0343 	add.w	r3, r0, r3, lsl #1
 8000ad0:	f8d3 6400 	ldr.w	r6, [r3, #1024]	; 0x400
 8000ad4:	f3c6 0609 	ubfx	r6, r6, #0, #10
            if (count != 0U)
 8000ad8:	b136      	cbz	r6, 8000ae8 <HAL_PCD_IRQHandler+0x41c>
              USB_ReadPMA(hpcd->Instance, ep->xfer_buff, ep->pmaaddr0, count);
 8000ada:	4633      	mov	r3, r6
 8000adc:	f8b1 222e 	ldrh.w	r2, [r1, #558]	; 0x22e
              USB_ReadPMA(hpcd->Instance, ep->xfer_buff, ep->pmaaddr1, count);
 8000ae0:	f8d1 123c 	ldr.w	r1, [r1, #572]	; 0x23c
 8000ae4:	f001 f948 	bl	8001d78 <USB_ReadPMA>
          PCD_FreeUserBuffer(hpcd->Instance, ep->num, PCD_EP_DBUF_OUT);  
 8000ae8:	eb04 030a 	add.w	r3, r4, sl
 8000aec:	f893 1228 	ldrb.w	r1, [r3, #552]	; 0x228
 8000af0:	6822      	ldr	r2, [r4, #0]
 8000af2:	f832 3021 	ldrh.w	r3, [r2, r1, lsl #2]
 8000af6:	f023 03f0 	bic.w	r3, r3, #240	; 0xf0
 8000afa:	051b      	lsls	r3, r3, #20
 8000afc:	0d1b      	lsrs	r3, r3, #20
 8000afe:	f443 4300 	orr.w	r3, r3, #32768	; 0x8000
 8000b02:	f043 03c0 	orr.w	r3, r3, #192	; 0xc0
 8000b06:	f822 3021 	strh.w	r3, [r2, r1, lsl #2]
 8000b0a:	e773      	b.n	80009f4 <HAL_PCD_IRQHandler+0x328>
            count = PCD_GET_EP_DBUF1_CNT(hpcd->Instance, ep->num);
 8000b0c:	3206      	adds	r2, #6
 8000b0e:	4413      	add	r3, r2
 8000b10:	eb00 0343 	add.w	r3, r0, r3, lsl #1
 8000b14:	f8d3 6400 	ldr.w	r6, [r3, #1024]	; 0x400
 8000b18:	f3c6 0609 	ubfx	r6, r6, #0, #10
            if (count != 0U)
 8000b1c:	2e00      	cmp	r6, #0
 8000b1e:	d0e3      	beq.n	8000ae8 <HAL_PCD_IRQHandler+0x41c>
              USB_ReadPMA(hpcd->Instance, ep->xfer_buff, ep->pmaaddr1, count);
 8000b20:	4633      	mov	r3, r6
 8000b22:	f8b1 2230 	ldrh.w	r2, [r1, #560]	; 0x230
 8000b26:	e7db      	b.n	8000ae0 <HAL_PCD_IRQHandler+0x414>
          HAL_PCD_EP_Receive(hpcd, ep->num, ep->xfer_buff, ep->xfer_len);
 8000b28:	f891 1228 	ldrb.w	r1, [r1, #552]	; 0x228
 8000b2c:	4620      	mov	r0, r4
 8000b2e:	f7ff fd9e 	bl	800066e <HAL_PCD_EP_Receive>
 8000b32:	e779      	b.n	8000a28 <HAL_PCD_IRQHandler+0x35c>
 8000b34:	ffff8f0f 	.word	0xffff8f0f
 8000b38:	ffffbf8f 	.word	0xffffbf8f
 8000b3c:	ffff8000 	.word	0xffff8000
          if (PCD_GET_ENDPOINT(hpcd->Instance, ep->num) & USB_EP_DTOG_TX)
 8000b40:	f891 3028 	ldrb.w	r3, [r1, #40]	; 0x28
 8000b44:	f830 2023 	ldrh.w	r2, [r0, r3, lsl #2]
 8000b48:	00db      	lsls	r3, r3, #3
 8000b4a:	f012 0f40 	tst.w	r2, #64	; 0x40
            ep->xfer_count = PCD_GET_EP_DBUF0_CNT(hpcd->Instance, ep->num);
 8000b4e:	f8b0 2050 	ldrh.w	r2, [r0, #80]	; 0x50
 8000b52:	b292      	uxth	r2, r2
          if (PCD_GET_ENDPOINT(hpcd->Instance, ep->num) & USB_EP_DTOG_TX)
 8000b54:	d020      	beq.n	8000b98 <HAL_PCD_IRQHandler+0x4cc>
            ep->xfer_count = PCD_GET_EP_DBUF0_CNT(hpcd->Instance, ep->num);
 8000b56:	3202      	adds	r2, #2
 8000b58:	4413      	add	r3, r2
 8000b5a:	eb00 0343 	add.w	r3, r0, r3, lsl #1
 8000b5e:	f8d3 3400 	ldr.w	r3, [r3, #1024]	; 0x400
 8000b62:	eb04 1545 	add.w	r5, r4, r5, lsl #5
 8000b66:	f3c3 0309 	ubfx	r3, r3, #0, #10
 8000b6a:	606b      	str	r3, [r5, #4]
            if (ep->xfer_count != 0U)
 8000b6c:	b11b      	cbz	r3, 8000b76 <HAL_PCD_IRQHandler+0x4aa>
              USB_WritePMA(hpcd->Instance, ep->xfer_buff, ep->pmaaddr0, ep->xfer_count);
 8000b6e:	8dca      	ldrh	r2, [r1, #46]	; 0x2e
              USB_WritePMA(hpcd->Instance, ep->xfer_buff, ep->pmaaddr1, ep->xfer_count);
 8000b70:	6bc9      	ldr	r1, [r1, #60]	; 0x3c
 8000b72:	f000 ffef 	bl	8001b54 <USB_WritePMA>
          PCD_FreeUserBuffer(hpcd->Instance, ep->num, PCD_EP_DBUF_IN);  
 8000b76:	19a3      	adds	r3, r4, r6
 8000b78:	f893 1028 	ldrb.w	r1, [r3, #40]	; 0x28
 8000b7c:	6822      	ldr	r2, [r4, #0]
 8000b7e:	f832 3021 	ldrh.w	r3, [r2, r1, lsl #2]
 8000b82:	f023 03f0 	bic.w	r3, r3, #240	; 0xf0
 8000b86:	051b      	lsls	r3, r3, #20
 8000b88:	0d1b      	lsrs	r3, r3, #20
 8000b8a:	f443 4340 	orr.w	r3, r3, #49152	; 0xc000
 8000b8e:	f043 0380 	orr.w	r3, r3, #128	; 0x80
 8000b92:	f822 3021 	strh.w	r3, [r2, r1, lsl #2]
 8000b96:	e770      	b.n	8000a7a <HAL_PCD_IRQHandler+0x3ae>
            ep->xfer_count = PCD_GET_EP_DBUF1_CNT(hpcd->Instance, ep->num);
 8000b98:	3206      	adds	r2, #6
 8000b9a:	4413      	add	r3, r2
 8000b9c:	eb00 0343 	add.w	r3, r0, r3, lsl #1
 8000ba0:	f8d3 3400 	ldr.w	r3, [r3, #1024]	; 0x400
 8000ba4:	eb04 1545 	add.w	r5, r4, r5, lsl #5
 8000ba8:	f3c3 0309 	ubfx	r3, r3, #0, #10
 8000bac:	606b      	str	r3, [r5, #4]
            if (ep->xfer_count != 0U)
 8000bae:	2b00      	cmp	r3, #0
 8000bb0:	d0e1      	beq.n	8000b76 <HAL_PCD_IRQHandler+0x4aa>
              USB_WritePMA(hpcd->Instance, ep->xfer_buff, ep->pmaaddr1, ep->xfer_count);
 8000bb2:	8e0a      	ldrh	r2, [r1, #48]	; 0x30
 8000bb4:	e7dc      	b.n	8000b70 <HAL_PCD_IRQHandler+0x4a4>
        }
        else
        {
          HAL_PCD_EP_Transmit(hpcd, ep->num, ep->xfer_buff, ep->xfer_len);
 8000bb6:	f7ff fd72 	bl	800069e <HAL_PCD_EP_Transmit>
 8000bba:	e632      	b.n	8000822 <HAL_PCD_IRQHandler+0x156>

08000bbc <HAL_PCD_EP_SetStall>:
  ep->is_stall = 1U;
 8000bbc:	2201      	movs	r2, #1
{
 8000bbe:	b538      	push	{r3, r4, r5, lr}
  if ((0x80U & ep_addr) == 0x80U)
 8000bc0:	b24b      	sxtb	r3, r1
 8000bc2:	2b00      	cmp	r3, #0
 8000bc4:	f001 057f 	and.w	r5, r1, #127	; 0x7f
    ep = &hpcd->IN_ep[ep_addr & 0x7FU];
 8000bc8:	bfb5      	itete	lt
 8000bca:	eb00 1145 	addlt.w	r1, r0, r5, lsl #5
    ep = &hpcd->OUT_ep[ep_addr];
 8000bce:	eb00 1141 	addge.w	r1, r0, r1, lsl #5
    ep = &hpcd->IN_ep[ep_addr & 0x7FU];
 8000bd2:	3128      	addlt	r1, #40	; 0x28
    ep = &hpcd->OUT_ep[ep_addr];
 8000bd4:	f501 710a 	addge.w	r1, r1, #552	; 0x228
  ep->is_in = ((ep_addr & 0x80U) == 0x80U);
 8000bd8:	0fdb      	lsrs	r3, r3, #31
  ep->num   = ep_addr & 0x7FU;
 8000bda:	b2ed      	uxtb	r5, r5
  ep->is_stall = 1U;
 8000bdc:	708a      	strb	r2, [r1, #2]
  ep->num   = ep_addr & 0x7FU;
 8000bde:	700d      	strb	r5, [r1, #0]
  ep->is_in = ((ep_addr & 0x80U) == 0x80U);
 8000be0:	704b      	strb	r3, [r1, #1]
  __HAL_LOCK(hpcd);
 8000be2:	f890 3428 	ldrb.w	r3, [r0, #1064]	; 0x428
{
 8000be6:	4604      	mov	r4, r0
  __HAL_LOCK(hpcd);
 8000be8:	4293      	cmp	r3, r2
 8000bea:	d00e      	beq.n	8000c0a <HAL_PCD_EP_SetStall+0x4e>
 8000bec:	f880 2428 	strb.w	r2, [r0, #1064]	; 0x428
  USB_EPSetStall(hpcd->Instance , ep);
 8000bf0:	6800      	ldr	r0, [r0, #0]
 8000bf2:	f000 ff2b 	bl	8001a4c <USB_EPSetStall>
  if((ep_addr & 0x7FU) == 0U)
 8000bf6:	b925      	cbnz	r5, 8000c02 <HAL_PCD_EP_SetStall+0x46>
    USB_EP0_OutStart(hpcd->Instance, (uint8_t *)hpcd->Setup);
 8000bf8:	f204 412c 	addw	r1, r4, #1068	; 0x42c
 8000bfc:	6820      	ldr	r0, [r4, #0]
 8000bfe:	f000 ffa7 	bl	8001b50 <USB_EP0_OutStart>
  __HAL_UNLOCK(hpcd); 
 8000c02:	2000      	movs	r0, #0
 8000c04:	f884 0428 	strb.w	r0, [r4, #1064]	; 0x428
  return HAL_OK;
 8000c08:	bd38      	pop	{r3, r4, r5, pc}
  __HAL_LOCK(hpcd);
 8000c0a:	2002      	movs	r0, #2
}
 8000c0c:	bd38      	pop	{r3, r4, r5, pc}

08000c0e <HAL_PCD_EP_ClrStall>:
{
 8000c0e:	b538      	push	{r3, r4, r5, lr}
  ep->is_stall = 0U;
 8000c10:	2400      	movs	r4, #0
  if ((0x80U & ep_addr) == 0x80U)
 8000c12:	b24b      	sxtb	r3, r1
 8000c14:	2b00      	cmp	r3, #0
 8000c16:	f001 027f 	and.w	r2, r1, #127	; 0x7f
    ep = &hpcd->IN_ep[ep_addr & 0x7FU];
 8000c1a:	bfb5      	itete	lt
 8000c1c:	eb00 1142 	addlt.w	r1, r0, r2, lsl #5
    ep = &hpcd->OUT_ep[ep_addr];
 8000c20:	eb00 1141 	addge.w	r1, r0, r1, lsl #5
    ep = &hpcd->IN_ep[ep_addr & 0x7FU];
 8000c24:	3128      	addlt	r1, #40	; 0x28
    ep = &hpcd->OUT_ep[ep_addr];
 8000c26:	f501 710a 	addge.w	r1, r1, #552	; 0x228
  ep->is_in = ((ep_addr & 0x80U) == 0x80U);
 8000c2a:	0fdb      	lsrs	r3, r3, #31
  ep->is_stall = 0U;
 8000c2c:	708c      	strb	r4, [r1, #2]
  ep->num   = ep_addr & 0x7FU;
 8000c2e:	700a      	strb	r2, [r1, #0]
  ep->is_in = ((ep_addr & 0x80U) == 0x80U);
 8000c30:	704b      	strb	r3, [r1, #1]
  __HAL_LOCK(hpcd); 
 8000c32:	f890 3428 	ldrb.w	r3, [r0, #1064]	; 0x428
{
 8000c36:	4605      	mov	r5, r0
  __HAL_LOCK(hpcd); 
 8000c38:	2b01      	cmp	r3, #1
 8000c3a:	d009      	beq.n	8000c50 <HAL_PCD_EP_ClrStall+0x42>
 8000c3c:	2301      	movs	r3, #1
 8000c3e:	f880 3428 	strb.w	r3, [r0, #1064]	; 0x428
  USB_EPClearStall(hpcd->Instance , ep);
 8000c42:	6800      	ldr	r0, [r0, #0]
 8000c44:	f000 ff34 	bl	8001ab0 <USB_EPClearStall>
  __HAL_UNLOCK(hpcd); 
 8000c48:	f885 4428 	strb.w	r4, [r5, #1064]	; 0x428
  return HAL_OK;
 8000c4c:	4620      	mov	r0, r4
 8000c4e:	bd38      	pop	{r3, r4, r5, pc}
  __HAL_LOCK(hpcd); 
 8000c50:	2002      	movs	r0, #2
}
 8000c52:	bd38      	pop	{r3, r4, r5, pc}

08000c54 <HAL_PCDEx_PMAConfig>:

{
  PCD_EPTypeDef *ep = NULL;
  
  /* initialize ep structure*/
  if ((ep_addr & 0x80U) == 0x80U)
 8000c54:	f011 0f80 	tst.w	r1, #128	; 0x80
  {
    ep = &hpcd->IN_ep[ep_addr & 0x7FU];
 8000c58:	bf1b      	ittet	ne
 8000c5a:	f001 017f 	andne.w	r1, r1, #127	; 0x7f
 8000c5e:	eb00 1041 	addne.w	r0, r0, r1, lsl #5
  }
  else
  {
    ep = &hpcd->OUT_ep[ep_addr];
 8000c62:	eb00 1041 	addeq.w	r0, r0, r1, lsl #5
    ep = &hpcd->IN_ep[ep_addr & 0x7FU];
 8000c66:	3028      	addne	r0, #40	; 0x28
    ep = &hpcd->OUT_ep[ep_addr];
 8000c68:	bf08      	it	eq
 8000c6a:	f500 700a 	addeq.w	r0, r0, #552	; 0x228
  }
  
  /* Here we check if the endpoint is single or double Buffer*/
  if (ep_kind == PCD_SNG_BUF)
 8000c6e:	b91a      	cbnz	r2, 8000c78 <HAL_PCDEx_PMAConfig+0x24>
  {
    /*Single Buffer*/
    ep->doublebuffer = 0U;
 8000c70:	7282      	strb	r2, [r0, #10]
    /*Configure te PMA*/
    ep->pmaadress = (uint16_t)pmaadress;
 8000c72:	8083      	strh	r3, [r0, #4]
    ep->pmaaddr0 =  pmaadress & 0x0000FFFFU;
    ep->pmaaddr1 =  (pmaadress & 0xFFFF0000U) >> 16U;
  }
  
  return HAL_OK; 
}
 8000c74:	2000      	movs	r0, #0
 8000c76:	4770      	bx	lr
    ep->doublebuffer = 1U;
 8000c78:	2201      	movs	r2, #1
    ep->pmaaddr0 =  pmaadress & 0x0000FFFFU;
 8000c7a:	80c3      	strh	r3, [r0, #6]
    ep->pmaaddr1 =  (pmaadress & 0xFFFF0000U) >> 16U;
 8000c7c:	0c1b      	lsrs	r3, r3, #16
    ep->doublebuffer = 1U;
 8000c7e:	7282      	strb	r2, [r0, #10]
    ep->pmaaddr1 =  (pmaadress & 0xFFFF0000U) >> 16U;
 8000c80:	8103      	strh	r3, [r0, #8]
 8000c82:	e7f7      	b.n	8000c74 <HAL_PCDEx_PMAConfig+0x20>

08000c84 <HAL_RCC_OscConfig>:
  /* Check the parameters */
  assert_param(RCC_OscInitStruct != NULL);
  assert_param(IS_RCC_OSCILLATORTYPE(RCC_OscInitStruct->OscillatorType));
  
  /*------------------------------- HSE Configuration ------------------------*/ 
  if(((RCC_OscInitStruct->OscillatorType) & RCC_OSCILLATORTYPE_HSE) == RCC_OSCILLATORTYPE_HSE)
 8000c84:	6803      	ldr	r3, [r0, #0]
{
 8000c86:	e92d 41f3 	stmdb	sp!, {r0, r1, r4, r5, r6, r7, r8, lr}
  if(((RCC_OscInitStruct->OscillatorType) & RCC_OSCILLATORTYPE_HSE) == RCC_OSCILLATORTYPE_HSE)
 8000c8a:	07db      	lsls	r3, r3, #31
{
 8000c8c:	4605      	mov	r5, r0
  if(((RCC_OscInitStruct->OscillatorType) & RCC_OSCILLATORTYPE_HSE) == RCC_OSCILLATORTYPE_HSE)
 8000c8e:	d410      	bmi.n	8000cb2 <HAL_RCC_OscConfig+0x2e>
        }
      }
    }
  }
  /*----------------------------- HSI Configuration --------------------------*/ 
  if(((RCC_OscInitStruct->OscillatorType) & RCC_OSCILLATORTYPE_HSI) == RCC_OSCILLATORTYPE_HSI)
 8000c90:	682b      	ldr	r3, [r5, #0]
 8000c92:	079f      	lsls	r7, r3, #30
 8000c94:	d45e      	bmi.n	8000d54 <HAL_RCC_OscConfig+0xd0>
        }
      }
    }
  }
  /*------------------------------ LSI Configuration -------------------------*/ 
  if(((RCC_OscInitStruct->OscillatorType) & RCC_OSCILLATORTYPE_LSI) == RCC_OSCILLATORTYPE_LSI)
 8000c96:	682b      	ldr	r3, [r5, #0]
 8000c98:	0719      	lsls	r1, r3, #28
 8000c9a:	f100 8095 	bmi.w	8000dc8 <HAL_RCC_OscConfig+0x144>
        }
      }
    }
  }
  /*------------------------------ LSE Configuration -------------------------*/ 
  if(((RCC_OscInitStruct->OscillatorType) & RCC_OSCILLATORTYPE_LSE) == RCC_OSCILLATORTYPE_LSE)
 8000c9e:	682b      	ldr	r3, [r5, #0]
 8000ca0:	075a      	lsls	r2, r3, #29
 8000ca2:	f100 80bf 	bmi.w	8000e24 <HAL_RCC_OscConfig+0x1a0>

#endif /* RCC_CR_PLL2ON */
  /*-------------------------------- PLL Configuration -----------------------*/
  /* Check the parameters */
  assert_param(IS_RCC_PLL(RCC_OscInitStruct->PLL.PLLState));
  if ((RCC_OscInitStruct->PLL.PLLState) != RCC_PLL_NONE)
 8000ca6:	69ea      	ldr	r2, [r5, #28]
 8000ca8:	2a00      	cmp	r2, #0
 8000caa:	f040 812d 	bne.w	8000f08 <HAL_RCC_OscConfig+0x284>
    {
      return HAL_ERROR;
    }
  }
  
  return HAL_OK;
 8000cae:	2000      	movs	r0, #0
 8000cb0:	e014      	b.n	8000cdc <HAL_RCC_OscConfig+0x58>
    if((__HAL_RCC_GET_SYSCLK_SOURCE() == RCC_SYSCLKSOURCE_STATUS_HSE) 
 8000cb2:	4c90      	ldr	r4, [pc, #576]	; (8000ef4 <HAL_RCC_OscConfig+0x270>)
 8000cb4:	6863      	ldr	r3, [r4, #4]
 8000cb6:	f003 030c 	and.w	r3, r3, #12
 8000cba:	2b04      	cmp	r3, #4
 8000cbc:	d007      	beq.n	8000cce <HAL_RCC_OscConfig+0x4a>
       || ((__HAL_RCC_GET_SYSCLK_SOURCE() == RCC_SYSCLKSOURCE_STATUS_PLLCLK) && (__HAL_RCC_GET_PLL_OSCSOURCE() == RCC_PLLSOURCE_HSE)))
 8000cbe:	6863      	ldr	r3, [r4, #4]
 8000cc0:	f003 030c 	and.w	r3, r3, #12
 8000cc4:	2b08      	cmp	r3, #8
 8000cc6:	d10c      	bne.n	8000ce2 <HAL_RCC_OscConfig+0x5e>
 8000cc8:	6863      	ldr	r3, [r4, #4]
 8000cca:	03de      	lsls	r6, r3, #15
 8000ccc:	d509      	bpl.n	8000ce2 <HAL_RCC_OscConfig+0x5e>
      if((__HAL_RCC_GET_FLAG(RCC_FLAG_HSERDY) != RESET) && (RCC_OscInitStruct->HSEState == RCC_HSE_OFF))
 8000cce:	6823      	ldr	r3, [r4, #0]
 8000cd0:	039c      	lsls	r4, r3, #14
 8000cd2:	d5dd      	bpl.n	8000c90 <HAL_RCC_OscConfig+0xc>
 8000cd4:	686b      	ldr	r3, [r5, #4]
 8000cd6:	2b00      	cmp	r3, #0
 8000cd8:	d1da      	bne.n	8000c90 <HAL_RCC_OscConfig+0xc>
        return HAL_ERROR;
 8000cda:	2001      	movs	r0, #1
}
 8000cdc:	b002      	add	sp, #8
 8000cde:	e8bd 81f0 	ldmia.w	sp!, {r4, r5, r6, r7, r8, pc}
      __HAL_RCC_HSE_CONFIG(RCC_OscInitStruct->HSEState);
 8000ce2:	686b      	ldr	r3, [r5, #4]
 8000ce4:	f5b3 3f80 	cmp.w	r3, #65536	; 0x10000
 8000ce8:	d110      	bne.n	8000d0c <HAL_RCC_OscConfig+0x88>
 8000cea:	6823      	ldr	r3, [r4, #0]
 8000cec:	f443 3380 	orr.w	r3, r3, #65536	; 0x10000
 8000cf0:	6023      	str	r3, [r4, #0]
        tickstart = HAL_GetTick();
 8000cf2:	f7ff fa6d 	bl	80001d0 <HAL_GetTick>
 8000cf6:	4606      	mov	r6, r0
        while(__HAL_RCC_GET_FLAG(RCC_FLAG_HSERDY) == RESET)
 8000cf8:	6823      	ldr	r3, [r4, #0]
 8000cfa:	0398      	lsls	r0, r3, #14
 8000cfc:	d4c8      	bmi.n	8000c90 <HAL_RCC_OscConfig+0xc>
          if((HAL_GetTick() - tickstart ) > HSE_TIMEOUT_VALUE)
 8000cfe:	f7ff fa67 	bl	80001d0 <HAL_GetTick>
 8000d02:	1b80      	subs	r0, r0, r6
 8000d04:	2864      	cmp	r0, #100	; 0x64
 8000d06:	d9f7      	bls.n	8000cf8 <HAL_RCC_OscConfig+0x74>
            return HAL_TIMEOUT;
 8000d08:	2003      	movs	r0, #3
 8000d0a:	e7e7      	b.n	8000cdc <HAL_RCC_OscConfig+0x58>
      __HAL_RCC_HSE_CONFIG(RCC_OscInitStruct->HSEState);
 8000d0c:	b99b      	cbnz	r3, 8000d36 <HAL_RCC_OscConfig+0xb2>
 8000d0e:	6823      	ldr	r3, [r4, #0]
 8000d10:	f423 3380 	bic.w	r3, r3, #65536	; 0x10000
 8000d14:	6023      	str	r3, [r4, #0]
 8000d16:	6823      	ldr	r3, [r4, #0]
 8000d18:	f423 2380 	bic.w	r3, r3, #262144	; 0x40000
 8000d1c:	6023      	str	r3, [r4, #0]
        tickstart = HAL_GetTick();
 8000d1e:	f7ff fa57 	bl	80001d0 <HAL_GetTick>
 8000d22:	4606      	mov	r6, r0
        while(__HAL_RCC_GET_FLAG(RCC_FLAG_HSERDY) != RESET)
 8000d24:	6823      	ldr	r3, [r4, #0]
 8000d26:	0399      	lsls	r1, r3, #14
 8000d28:	d5b2      	bpl.n	8000c90 <HAL_RCC_OscConfig+0xc>
           if((HAL_GetTick() - tickstart ) > HSE_TIMEOUT_VALUE)
 8000d2a:	f7ff fa51 	bl	80001d0 <HAL_GetTick>
 8000d2e:	1b80      	subs	r0, r0, r6
 8000d30:	2864      	cmp	r0, #100	; 0x64
 8000d32:	d9f7      	bls.n	8000d24 <HAL_RCC_OscConfig+0xa0>
 8000d34:	e7e8      	b.n	8000d08 <HAL_RCC_OscConfig+0x84>
      __HAL_RCC_HSE_CONFIG(RCC_OscInitStruct->HSEState);
 8000d36:	f5b3 2fa0 	cmp.w	r3, #327680	; 0x50000
 8000d3a:	6823      	ldr	r3, [r4, #0]
 8000d3c:	d103      	bne.n	8000d46 <HAL_RCC_OscConfig+0xc2>
 8000d3e:	f443 2380 	orr.w	r3, r3, #262144	; 0x40000
 8000d42:	6023      	str	r3, [r4, #0]
 8000d44:	e7d1      	b.n	8000cea <HAL_RCC_OscConfig+0x66>
 8000d46:	f423 3380 	bic.w	r3, r3, #65536	; 0x10000
 8000d4a:	6023      	str	r3, [r4, #0]
 8000d4c:	6823      	ldr	r3, [r4, #0]
 8000d4e:	f423 2380 	bic.w	r3, r3, #262144	; 0x40000
 8000d52:	e7cd      	b.n	8000cf0 <HAL_RCC_OscConfig+0x6c>
    if((__HAL_RCC_GET_SYSCLK_SOURCE() == RCC_SYSCLKSOURCE_STATUS_HSI) 
 8000d54:	4c67      	ldr	r4, [pc, #412]	; (8000ef4 <HAL_RCC_OscConfig+0x270>)
 8000d56:	6863      	ldr	r3, [r4, #4]
 8000d58:	f013 0f0c 	tst.w	r3, #12
 8000d5c:	d007      	beq.n	8000d6e <HAL_RCC_OscConfig+0xea>
       || ((__HAL_RCC_GET_SYSCLK_SOURCE() == RCC_SYSCLKSOURCE_STATUS_PLLCLK) && (__HAL_RCC_GET_PLL_OSCSOURCE() == RCC_PLLSOURCE_HSI_DIV2)))
 8000d5e:	6863      	ldr	r3, [r4, #4]
 8000d60:	f003 030c 	and.w	r3, r3, #12
 8000d64:	2b08      	cmp	r3, #8
 8000d66:	d110      	bne.n	8000d8a <HAL_RCC_OscConfig+0x106>
 8000d68:	6863      	ldr	r3, [r4, #4]
 8000d6a:	03da      	lsls	r2, r3, #15
 8000d6c:	d40d      	bmi.n	8000d8a <HAL_RCC_OscConfig+0x106>
      if((__HAL_RCC_GET_FLAG(RCC_FLAG_HSIRDY) != RESET) && (RCC_OscInitStruct->HSIState != RCC_HSI_ON))
 8000d6e:	6823      	ldr	r3, [r4, #0]
 8000d70:	079b      	lsls	r3, r3, #30
 8000d72:	d502      	bpl.n	8000d7a <HAL_RCC_OscConfig+0xf6>
 8000d74:	692b      	ldr	r3, [r5, #16]
 8000d76:	2b01      	cmp	r3, #1
 8000d78:	d1af      	bne.n	8000cda <HAL_RCC_OscConfig+0x56>
        __HAL_RCC_HSI_CALIBRATIONVALUE_ADJUST(RCC_OscInitStruct->HSICalibrationValue);
 8000d7a:	6823      	ldr	r3, [r4, #0]
 8000d7c:	696a      	ldr	r2, [r5, #20]
 8000d7e:	f023 03f8 	bic.w	r3, r3, #248	; 0xf8
 8000d82:	ea43 03c2 	orr.w	r3, r3, r2, lsl #3
 8000d86:	6023      	str	r3, [r4, #0]
 8000d88:	e785      	b.n	8000c96 <HAL_RCC_OscConfig+0x12>
      if(RCC_OscInitStruct->HSIState != RCC_HSI_OFF)
 8000d8a:	692a      	ldr	r2, [r5, #16]
 8000d8c:	4b5a      	ldr	r3, [pc, #360]	; (8000ef8 <HAL_RCC_OscConfig+0x274>)
 8000d8e:	b16a      	cbz	r2, 8000dac <HAL_RCC_OscConfig+0x128>
        __HAL_RCC_HSI_ENABLE();
 8000d90:	2201      	movs	r2, #1
 8000d92:	601a      	str	r2, [r3, #0]
        tickstart = HAL_GetTick();
 8000d94:	f7ff fa1c 	bl	80001d0 <HAL_GetTick>
 8000d98:	4606      	mov	r6, r0
        while(__HAL_RCC_GET_FLAG(RCC_FLAG_HSIRDY) == RESET)
 8000d9a:	6823      	ldr	r3, [r4, #0]
 8000d9c:	079f      	lsls	r7, r3, #30
 8000d9e:	d4ec      	bmi.n	8000d7a <HAL_RCC_OscConfig+0xf6>
          if((HAL_GetTick() - tickstart ) > HSI_TIMEOUT_VALUE)
 8000da0:	f7ff fa16 	bl	80001d0 <HAL_GetTick>
 8000da4:	1b80      	subs	r0, r0, r6
 8000da6:	2802      	cmp	r0, #2
 8000da8:	d9f7      	bls.n	8000d9a <HAL_RCC_OscConfig+0x116>
 8000daa:	e7ad      	b.n	8000d08 <HAL_RCC_OscConfig+0x84>
        __HAL_RCC_HSI_DISABLE();
 8000dac:	601a      	str	r2, [r3, #0]
        tickstart = HAL_GetTick();
 8000dae:	f7ff fa0f 	bl	80001d0 <HAL_GetTick>
 8000db2:	4606      	mov	r6, r0
        while(__HAL_RCC_GET_FLAG(RCC_FLAG_HSIRDY) != RESET)
 8000db4:	6823      	ldr	r3, [r4, #0]
 8000db6:	0798      	lsls	r0, r3, #30
 8000db8:	f57f af6d 	bpl.w	8000c96 <HAL_RCC_OscConfig+0x12>
          if((HAL_GetTick() - tickstart ) > HSI_TIMEOUT_VALUE)
 8000dbc:	f7ff fa08 	bl	80001d0 <HAL_GetTick>
 8000dc0:	1b80      	subs	r0, r0, r6
 8000dc2:	2802      	cmp	r0, #2
 8000dc4:	d9f6      	bls.n	8000db4 <HAL_RCC_OscConfig+0x130>
 8000dc6:	e79f      	b.n	8000d08 <HAL_RCC_OscConfig+0x84>
    if(RCC_OscInitStruct->LSIState != RCC_LSI_OFF)
 8000dc8:	69aa      	ldr	r2, [r5, #24]
 8000dca:	4c4a      	ldr	r4, [pc, #296]	; (8000ef4 <HAL_RCC_OscConfig+0x270>)
 8000dcc:	4b4b      	ldr	r3, [pc, #300]	; (8000efc <HAL_RCC_OscConfig+0x278>)
 8000dce:	b1da      	cbz	r2, 8000e08 <HAL_RCC_OscConfig+0x184>
      __HAL_RCC_LSI_ENABLE();
 8000dd0:	2201      	movs	r2, #1
 8000dd2:	601a      	str	r2, [r3, #0]
      tickstart = HAL_GetTick();
 8000dd4:	f7ff f9fc 	bl	80001d0 <HAL_GetTick>
 8000dd8:	4606      	mov	r6, r0
      while(__HAL_RCC_GET_FLAG(RCC_FLAG_LSIRDY) == RESET)
 8000dda:	6a63      	ldr	r3, [r4, #36]	; 0x24
 8000ddc:	079b      	lsls	r3, r3, #30
 8000dde:	d50d      	bpl.n	8000dfc <HAL_RCC_OscConfig+0x178>
  * @param  mdelay: specifies the delay time length, in milliseconds.
  * @retval None
  */
static void RCC_Delay(uint32_t mdelay)
{
  __IO uint32_t Delay = mdelay * (SystemCoreClock / 8U / 1000U);
 8000de0:	f44f 52fa 	mov.w	r2, #8000	; 0x1f40
 8000de4:	4b46      	ldr	r3, [pc, #280]	; (8000f00 <HAL_RCC_OscConfig+0x27c>)
 8000de6:	681b      	ldr	r3, [r3, #0]
 8000de8:	fbb3 f3f2 	udiv	r3, r3, r2
 8000dec:	9301      	str	r3, [sp, #4]
  \brief   No Operation
  \details No Operation does nothing. This instruction can be used for code alignment purposes.
 */
__attribute__((always_inline)) __STATIC_INLINE void __NOP(void)
{
  __ASM volatile ("nop");
 8000dee:	bf00      	nop
  do 
  {
    __NOP();
  } 
  while (Delay --);
 8000df0:	9b01      	ldr	r3, [sp, #4]
 8000df2:	1e5a      	subs	r2, r3, #1
 8000df4:	9201      	str	r2, [sp, #4]
 8000df6:	2b00      	cmp	r3, #0
 8000df8:	d1f9      	bne.n	8000dee <HAL_RCC_OscConfig+0x16a>
 8000dfa:	e750      	b.n	8000c9e <HAL_RCC_OscConfig+0x1a>
        if((HAL_GetTick() - tickstart ) > LSI_TIMEOUT_VALUE)
 8000dfc:	f7ff f9e8 	bl	80001d0 <HAL_GetTick>
 8000e00:	1b80      	subs	r0, r0, r6
 8000e02:	2802      	cmp	r0, #2
 8000e04:	d9e9      	bls.n	8000dda <HAL_RCC_OscConfig+0x156>
 8000e06:	e77f      	b.n	8000d08 <HAL_RCC_OscConfig+0x84>
      __HAL_RCC_LSI_DISABLE();
 8000e08:	601a      	str	r2, [r3, #0]
      tickstart = HAL_GetTick();
 8000e0a:	f7ff f9e1 	bl	80001d0 <HAL_GetTick>
 8000e0e:	4606      	mov	r6, r0
      while(__HAL_RCC_GET_FLAG(RCC_FLAG_LSIRDY) != RESET)
 8000e10:	6a63      	ldr	r3, [r4, #36]	; 0x24
 8000e12:	079f      	lsls	r7, r3, #30
 8000e14:	f57f af43 	bpl.w	8000c9e <HAL_RCC_OscConfig+0x1a>
        if((HAL_GetTick() - tickstart ) > LSI_TIMEOUT_VALUE)
 8000e18:	f7ff f9da 	bl	80001d0 <HAL_GetTick>
 8000e1c:	1b80      	subs	r0, r0, r6
 8000e1e:	2802      	cmp	r0, #2
 8000e20:	d9f6      	bls.n	8000e10 <HAL_RCC_OscConfig+0x18c>
 8000e22:	e771      	b.n	8000d08 <HAL_RCC_OscConfig+0x84>
    if(__HAL_RCC_PWR_IS_CLK_DISABLED())
 8000e24:	4c33      	ldr	r4, [pc, #204]	; (8000ef4 <HAL_RCC_OscConfig+0x270>)
 8000e26:	69e3      	ldr	r3, [r4, #28]
 8000e28:	00d8      	lsls	r0, r3, #3
 8000e2a:	d424      	bmi.n	8000e76 <HAL_RCC_OscConfig+0x1f2>
      pwrclkchanged = SET;
 8000e2c:	2701      	movs	r7, #1
      __HAL_RCC_PWR_CLK_ENABLE();
 8000e2e:	69e3      	ldr	r3, [r4, #28]
 8000e30:	f043 5380 	orr.w	r3, r3, #268435456	; 0x10000000
 8000e34:	61e3      	str	r3, [r4, #28]
 8000e36:	69e3      	ldr	r3, [r4, #28]
 8000e38:	f003 5380 	and.w	r3, r3, #268435456	; 0x10000000
 8000e3c:	9300      	str	r3, [sp, #0]
 8000e3e:	9b00      	ldr	r3, [sp, #0]
    if(HAL_IS_BIT_CLR(PWR->CR, PWR_CR_DBP))
 8000e40:	4e30      	ldr	r6, [pc, #192]	; (8000f04 <HAL_RCC_OscConfig+0x280>)
 8000e42:	6833      	ldr	r3, [r6, #0]
 8000e44:	05d9      	lsls	r1, r3, #23
 8000e46:	d518      	bpl.n	8000e7a <HAL_RCC_OscConfig+0x1f6>
    __HAL_RCC_LSE_CONFIG(RCC_OscInitStruct->LSEState);
 8000e48:	68eb      	ldr	r3, [r5, #12]
 8000e4a:	2b01      	cmp	r3, #1
 8000e4c:	d126      	bne.n	8000e9c <HAL_RCC_OscConfig+0x218>
 8000e4e:	6a23      	ldr	r3, [r4, #32]
 8000e50:	f043 0301 	orr.w	r3, r3, #1
 8000e54:	6223      	str	r3, [r4, #32]
      tickstart = HAL_GetTick();
 8000e56:	f7ff f9bb 	bl	80001d0 <HAL_GetTick>
        if((HAL_GetTick() - tickstart ) > RCC_LSE_TIMEOUT_VALUE)
 8000e5a:	f241 3688 	movw	r6, #5000	; 0x1388
      tickstart = HAL_GetTick();
 8000e5e:	4680      	mov	r8, r0
      while(__HAL_RCC_GET_FLAG(RCC_FLAG_LSERDY) == RESET)
 8000e60:	6a23      	ldr	r3, [r4, #32]
 8000e62:	079b      	lsls	r3, r3, #30
 8000e64:	d53f      	bpl.n	8000ee6 <HAL_RCC_OscConfig+0x262>
    if(pwrclkchanged == SET)
 8000e66:	2f00      	cmp	r7, #0
 8000e68:	f43f af1d 	beq.w	8000ca6 <HAL_RCC_OscConfig+0x22>
      __HAL_RCC_PWR_CLK_DISABLE();
 8000e6c:	69e3      	ldr	r3, [r4, #28]
 8000e6e:	f023 5380 	bic.w	r3, r3, #268435456	; 0x10000000
 8000e72:	61e3      	str	r3, [r4, #28]
 8000e74:	e717      	b.n	8000ca6 <HAL_RCC_OscConfig+0x22>
    FlagStatus       pwrclkchanged = RESET;
 8000e76:	2700      	movs	r7, #0
 8000e78:	e7e2      	b.n	8000e40 <HAL_RCC_OscConfig+0x1bc>
      SET_BIT(PWR->CR, PWR_CR_DBP);
 8000e7a:	6833      	ldr	r3, [r6, #0]
 8000e7c:	f443 7380 	orr.w	r3, r3, #256	; 0x100
 8000e80:	6033      	str	r3, [r6, #0]
      tickstart = HAL_GetTick();
 8000e82:	f7ff f9a5 	bl	80001d0 <HAL_GetTick>
 8000e86:	4680      	mov	r8, r0
      while(HAL_IS_BIT_CLR(PWR->CR, PWR_CR_DBP))
 8000e88:	6833      	ldr	r3, [r6, #0]
 8000e8a:	05da      	lsls	r2, r3, #23
 8000e8c:	d4dc      	bmi.n	8000e48 <HAL_RCC_OscConfig+0x1c4>
        if((HAL_GetTick() - tickstart) > RCC_DBP_TIMEOUT_VALUE)
 8000e8e:	f7ff f99f 	bl	80001d0 <HAL_GetTick>
 8000e92:	eba0 0008 	sub.w	r0, r0, r8
 8000e96:	2864      	cmp	r0, #100	; 0x64
 8000e98:	d9f6      	bls.n	8000e88 <HAL_RCC_OscConfig+0x204>
 8000e9a:	e735      	b.n	8000d08 <HAL_RCC_OscConfig+0x84>
    __HAL_RCC_LSE_CONFIG(RCC_OscInitStruct->LSEState);
 8000e9c:	b9ab      	cbnz	r3, 8000eca <HAL_RCC_OscConfig+0x246>
 8000e9e:	6a23      	ldr	r3, [r4, #32]
        if((HAL_GetTick() - tickstart ) > RCC_LSE_TIMEOUT_VALUE)
 8000ea0:	f241 3888 	movw	r8, #5000	; 0x1388
    __HAL_RCC_LSE_CONFIG(RCC_OscInitStruct->LSEState);
 8000ea4:	f023 0301 	bic.w	r3, r3, #1
 8000ea8:	6223      	str	r3, [r4, #32]
 8000eaa:	6a23      	ldr	r3, [r4, #32]
 8000eac:	f023 0304 	bic.w	r3, r3, #4
 8000eb0:	6223      	str	r3, [r4, #32]
      tickstart = HAL_GetTick();
 8000eb2:	f7ff f98d 	bl	80001d0 <HAL_GetTick>
 8000eb6:	4606      	mov	r6, r0
      while(__HAL_RCC_GET_FLAG(RCC_FLAG_LSERDY) != RESET)
 8000eb8:	6a23      	ldr	r3, [r4, #32]
 8000eba:	0798      	lsls	r0, r3, #30
 8000ebc:	d5d3      	bpl.n	8000e66 <HAL_RCC_OscConfig+0x1e2>
        if((HAL_GetTick() - tickstart ) > RCC_LSE_TIMEOUT_VALUE)
 8000ebe:	f7ff f987 	bl	80001d0 <HAL_GetTick>
 8000ec2:	1b80      	subs	r0, r0, r6
 8000ec4:	4540      	cmp	r0, r8
 8000ec6:	d9f7      	bls.n	8000eb8 <HAL_RCC_OscConfig+0x234>
 8000ec8:	e71e      	b.n	8000d08 <HAL_RCC_OscConfig+0x84>
    __HAL_RCC_LSE_CONFIG(RCC_OscInitStruct->LSEState);
 8000eca:	2b05      	cmp	r3, #5
 8000ecc:	6a23      	ldr	r3, [r4, #32]
 8000ece:	d103      	bne.n	8000ed8 <HAL_RCC_OscConfig+0x254>
 8000ed0:	f043 0304 	orr.w	r3, r3, #4
 8000ed4:	6223      	str	r3, [r4, #32]
 8000ed6:	e7ba      	b.n	8000e4e <HAL_RCC_OscConfig+0x1ca>
 8000ed8:	f023 0301 	bic.w	r3, r3, #1
 8000edc:	6223      	str	r3, [r4, #32]
 8000ede:	6a23      	ldr	r3, [r4, #32]
 8000ee0:	f023 0304 	bic.w	r3, r3, #4
 8000ee4:	e7b6      	b.n	8000e54 <HAL_RCC_OscConfig+0x1d0>
        if((HAL_GetTick() - tickstart ) > RCC_LSE_TIMEOUT_VALUE)
 8000ee6:	f7ff f973 	bl	80001d0 <HAL_GetTick>
 8000eea:	eba0 0008 	sub.w	r0, r0, r8
 8000eee:	42b0      	cmp	r0, r6
 8000ef0:	d9b6      	bls.n	8000e60 <HAL_RCC_OscConfig+0x1dc>
 8000ef2:	e709      	b.n	8000d08 <HAL_RCC_OscConfig+0x84>
 8000ef4:	40021000 	.word	0x40021000
 8000ef8:	42420000 	.word	0x42420000
 8000efc:	42420480 	.word	0x42420480
 8000f00:	200000ac 	.word	0x200000ac
 8000f04:	40007000 	.word	0x40007000
    if(__HAL_RCC_GET_SYSCLK_SOURCE() != RCC_SYSCLKSOURCE_STATUS_PLLCLK)
 8000f08:	4c22      	ldr	r4, [pc, #136]	; (8000f94 <HAL_RCC_OscConfig+0x310>)
 8000f0a:	6863      	ldr	r3, [r4, #4]
 8000f0c:	f003 030c 	and.w	r3, r3, #12
 8000f10:	2b08      	cmp	r3, #8
 8000f12:	f43f aee2 	beq.w	8000cda <HAL_RCC_OscConfig+0x56>
 8000f16:	2300      	movs	r3, #0
 8000f18:	4e1f      	ldr	r6, [pc, #124]	; (8000f98 <HAL_RCC_OscConfig+0x314>)
      if((RCC_OscInitStruct->PLL.PLLState) == RCC_PLL_ON)
 8000f1a:	2a02      	cmp	r2, #2
        __HAL_RCC_PLL_DISABLE();
 8000f1c:	6033      	str	r3, [r6, #0]
      if((RCC_OscInitStruct->PLL.PLLState) == RCC_PLL_ON)
 8000f1e:	d12b      	bne.n	8000f78 <HAL_RCC_OscConfig+0x2f4>
        tickstart = HAL_GetTick();
 8000f20:	f7ff f956 	bl	80001d0 <HAL_GetTick>
 8000f24:	4607      	mov	r7, r0
        while(__HAL_RCC_GET_FLAG(RCC_FLAG_PLLRDY)  != RESET)
 8000f26:	6823      	ldr	r3, [r4, #0]
 8000f28:	0199      	lsls	r1, r3, #6
 8000f2a:	d41f      	bmi.n	8000f6c <HAL_RCC_OscConfig+0x2e8>
        if(RCC_OscInitStruct->PLL.PLLSource == RCC_PLLSOURCE_HSE)
 8000f2c:	6a2b      	ldr	r3, [r5, #32]
 8000f2e:	f5b3 3f80 	cmp.w	r3, #65536	; 0x10000
 8000f32:	d105      	bne.n	8000f40 <HAL_RCC_OscConfig+0x2bc>
          __HAL_RCC_HSE_PREDIV_CONFIG(RCC_OscInitStruct->HSEPredivValue);
 8000f34:	6862      	ldr	r2, [r4, #4]
 8000f36:	68a9      	ldr	r1, [r5, #8]
 8000f38:	f422 3200 	bic.w	r2, r2, #131072	; 0x20000
 8000f3c:	430a      	orrs	r2, r1
 8000f3e:	6062      	str	r2, [r4, #4]
        __HAL_RCC_PLL_CONFIG(RCC_OscInitStruct->PLL.PLLSource,
 8000f40:	6a69      	ldr	r1, [r5, #36]	; 0x24
 8000f42:	6862      	ldr	r2, [r4, #4]
 8000f44:	430b      	orrs	r3, r1
 8000f46:	f422 1274 	bic.w	r2, r2, #3997696	; 0x3d0000
 8000f4a:	4313      	orrs	r3, r2
 8000f4c:	6063      	str	r3, [r4, #4]
        __HAL_RCC_PLL_ENABLE();
 8000f4e:	2301      	movs	r3, #1
 8000f50:	6033      	str	r3, [r6, #0]
        tickstart = HAL_GetTick();
 8000f52:	f7ff f93d 	bl	80001d0 <HAL_GetTick>
 8000f56:	4605      	mov	r5, r0
        while(__HAL_RCC_GET_FLAG(RCC_FLAG_PLLRDY)  == RESET)
 8000f58:	6823      	ldr	r3, [r4, #0]
 8000f5a:	019a      	lsls	r2, r3, #6
 8000f5c:	f53f aea7 	bmi.w	8000cae <HAL_RCC_OscConfig+0x2a>
          if((HAL_GetTick() - tickstart ) > PLL_TIMEOUT_VALUE)
 8000f60:	f7ff f936 	bl	80001d0 <HAL_GetTick>
 8000f64:	1b40      	subs	r0, r0, r5
 8000f66:	2802      	cmp	r0, #2
 8000f68:	d9f6      	bls.n	8000f58 <HAL_RCC_OscConfig+0x2d4>
 8000f6a:	e6cd      	b.n	8000d08 <HAL_RCC_OscConfig+0x84>
          if((HAL_GetTick() - tickstart ) > PLL_TIMEOUT_VALUE)
 8000f6c:	f7ff f930 	bl	80001d0 <HAL_GetTick>
 8000f70:	1bc0      	subs	r0, r0, r7
 8000f72:	2802      	cmp	r0, #2
 8000f74:	d9d7      	bls.n	8000f26 <HAL_RCC_OscConfig+0x2a2>
 8000f76:	e6c7      	b.n	8000d08 <HAL_RCC_OscConfig+0x84>
        tickstart = HAL_GetTick();
 8000f78:	f7ff f92a 	bl	80001d0 <HAL_GetTick>
 8000f7c:	4605      	mov	r5, r0
        while(__HAL_RCC_GET_FLAG(RCC_FLAG_PLLRDY)  != RESET)
 8000f7e:	6823      	ldr	r3, [r4, #0]
 8000f80:	019b      	lsls	r3, r3, #6
 8000f82:	f57f ae94 	bpl.w	8000cae <HAL_RCC_OscConfig+0x2a>
          if((HAL_GetTick() - tickstart ) > PLL_TIMEOUT_VALUE)
 8000f86:	f7ff f923 	bl	80001d0 <HAL_GetTick>
 8000f8a:	1b40      	subs	r0, r0, r5
 8000f8c:	2802      	cmp	r0, #2
 8000f8e:	d9f6      	bls.n	8000f7e <HAL_RCC_OscConfig+0x2fa>
 8000f90:	e6ba      	b.n	8000d08 <HAL_RCC_OscConfig+0x84>
 8000f92:	bf00      	nop
 8000f94:	40021000 	.word	0x40021000
 8000f98:	42420060 	.word	0x42420060

08000f9c <HAL_RCC_GetSysClockFreq>:
{
 8000f9c:	b530      	push	{r4, r5, lr}
  const uint8_t aPLLMULFactorTable[16] = {2, 3, 4, 5, 6, 7, 8, 9, 10, 11, 12, 13, 14, 15, 16, 16};
 8000f9e:	4b19      	ldr	r3, [pc, #100]	; (8001004 <HAL_RCC_GetSysClockFreq+0x68>)
{
 8000fa0:	b087      	sub	sp, #28
  const uint8_t aPLLMULFactorTable[16] = {2, 3, 4, 5, 6, 7, 8, 9, 10, 11, 12, 13, 14, 15, 16, 16};
 8000fa2:	ac02      	add	r4, sp, #8
 8000fa4:	f103 0510 	add.w	r5, r3, #16
 8000fa8:	4622      	mov	r2, r4
 8000faa:	6818      	ldr	r0, [r3, #0]
 8000fac:	6859      	ldr	r1, [r3, #4]
 8000fae:	3308      	adds	r3, #8
 8000fb0:	c203      	stmia	r2!, {r0, r1}
 8000fb2:	42ab      	cmp	r3, r5
 8000fb4:	4614      	mov	r4, r2
 8000fb6:	d1f7      	bne.n	8000fa8 <HAL_RCC_GetSysClockFreq+0xc>
  const uint8_t aPredivFactorTable[2] = {1, 2};
 8000fb8:	2301      	movs	r3, #1
 8000fba:	f88d 3004 	strb.w	r3, [sp, #4]
 8000fbe:	2302      	movs	r3, #2
  tmpreg = RCC->CFGR;
 8000fc0:	4911      	ldr	r1, [pc, #68]	; (8001008 <HAL_RCC_GetSysClockFreq+0x6c>)
  const uint8_t aPredivFactorTable[2] = {1, 2};
 8000fc2:	f88d 3005 	strb.w	r3, [sp, #5]
  tmpreg = RCC->CFGR;
 8000fc6:	684b      	ldr	r3, [r1, #4]
  switch (tmpreg & RCC_CFGR_SWS)
 8000fc8:	f003 020c 	and.w	r2, r3, #12
 8000fcc:	2a08      	cmp	r2, #8
 8000fce:	d117      	bne.n	8001000 <HAL_RCC_GetSysClockFreq+0x64>
      pllmul = aPLLMULFactorTable[(uint32_t)(tmpreg & RCC_CFGR_PLLMULL) >> RCC_CFGR_PLLMULL_Pos];
 8000fd0:	f3c3 4283 	ubfx	r2, r3, #18, #4
 8000fd4:	a806      	add	r0, sp, #24
 8000fd6:	4402      	add	r2, r0
      if ((tmpreg & RCC_CFGR_PLLSRC) != RCC_PLLSOURCE_HSI_DIV2)
 8000fd8:	03db      	lsls	r3, r3, #15
      pllmul = aPLLMULFactorTable[(uint32_t)(tmpreg & RCC_CFGR_PLLMULL) >> RCC_CFGR_PLLMULL_Pos];
 8000fda:	f812 2c10 	ldrb.w	r2, [r2, #-16]
      if ((tmpreg & RCC_CFGR_PLLSRC) != RCC_PLLSOURCE_HSI_DIV2)
 8000fde:	d50c      	bpl.n	8000ffa <HAL_RCC_GetSysClockFreq+0x5e>
        prediv = aPredivFactorTable[(uint32_t)(RCC->CFGR & RCC_CFGR_PLLXTPRE) >> RCC_CFGR_PLLXTPRE_Pos];
 8000fe0:	684b      	ldr	r3, [r1, #4]
        pllclk = (uint32_t)((HSE_VALUE  * pllmul) / prediv);
 8000fe2:	480a      	ldr	r0, [pc, #40]	; (800100c <HAL_RCC_GetSysClockFreq+0x70>)
        prediv = aPredivFactorTable[(uint32_t)(RCC->CFGR & RCC_CFGR_PLLXTPRE) >> RCC_CFGR_PLLXTPRE_Pos];
 8000fe4:	f3c3 4340 	ubfx	r3, r3, #17, #1
        pllclk = (uint32_t)((HSE_VALUE  * pllmul) / prediv);
 8000fe8:	4350      	muls	r0, r2
        prediv = aPredivFactorTable[(uint32_t)(RCC->CFGR & RCC_CFGR_PLLXTPRE) >> RCC_CFGR_PLLXTPRE_Pos];
 8000fea:	aa06      	add	r2, sp, #24
 8000fec:	4413      	add	r3, r2
 8000fee:	f813 3c14 	ldrb.w	r3, [r3, #-20]
        pllclk = (uint32_t)((HSE_VALUE  * pllmul) / prediv);
 8000ff2:	fbb0 f0f3 	udiv	r0, r0, r3
}
 8000ff6:	b007      	add	sp, #28
 8000ff8:	bd30      	pop	{r4, r5, pc}
        pllclk = (uint32_t)((HSI_VALUE >> 1) * pllmul);
 8000ffa:	4805      	ldr	r0, [pc, #20]	; (8001010 <HAL_RCC_GetSysClockFreq+0x74>)
 8000ffc:	4350      	muls	r0, r2
 8000ffe:	e7fa      	b.n	8000ff6 <HAL_RCC_GetSysClockFreq+0x5a>
      sysclockfreq = HSE_VALUE;
 8001000:	4802      	ldr	r0, [pc, #8]	; (800100c <HAL_RCC_GetSysClockFreq+0x70>)
  return sysclockfreq;
 8001002:	e7f8      	b.n	8000ff6 <HAL_RCC_GetSysClockFreq+0x5a>
 8001004:	08002db4 	.word	0x08002db4
 8001008:	40021000 	.word	0x40021000
 800100c:	007a1200 	.word	0x007a1200
 8001010:	003d0900 	.word	0x003d0900

08001014 <HAL_RCC_ClockConfig>:
  if(FLatency > (FLASH->ACR & FLASH_ACR_LATENCY))
 8001014:	4a4d      	ldr	r2, [pc, #308]	; (800114c <HAL_RCC_ClockConfig+0x138>)
{
 8001016:	e92d 41f0 	stmdb	sp!, {r4, r5, r6, r7, r8, lr}
  if(FLatency > (FLASH->ACR & FLASH_ACR_LATENCY))
 800101a:	6813      	ldr	r3, [r2, #0]
{
 800101c:	4605      	mov	r5, r0
  if(FLatency > (FLASH->ACR & FLASH_ACR_LATENCY))
 800101e:	f003 0307 	and.w	r3, r3, #7
 8001022:	428b      	cmp	r3, r1
{
 8001024:	460e      	mov	r6, r1
  if(FLatency > (FLASH->ACR & FLASH_ACR_LATENCY))
 8001026:	d328      	bcc.n	800107a <HAL_RCC_ClockConfig+0x66>
  if(((RCC_ClkInitStruct->ClockType) & RCC_CLOCKTYPE_HCLK) == RCC_CLOCKTYPE_HCLK)
 8001028:	682a      	ldr	r2, [r5, #0]
 800102a:	0791      	lsls	r1, r2, #30
 800102c:	d432      	bmi.n	8001094 <HAL_RCC_ClockConfig+0x80>
  if(((RCC_ClkInitStruct->ClockType) & RCC_CLOCKTYPE_SYSCLK) == RCC_CLOCKTYPE_SYSCLK)
 800102e:	07d2      	lsls	r2, r2, #31
 8001030:	d438      	bmi.n	80010a4 <HAL_RCC_ClockConfig+0x90>
  if(FLatency < (FLASH->ACR & FLASH_ACR_LATENCY))
 8001032:	4a46      	ldr	r2, [pc, #280]	; (800114c <HAL_RCC_ClockConfig+0x138>)
 8001034:	6813      	ldr	r3, [r2, #0]
 8001036:	f003 0307 	and.w	r3, r3, #7
 800103a:	429e      	cmp	r6, r3
 800103c:	d373      	bcc.n	8001126 <HAL_RCC_ClockConfig+0x112>
  if(((RCC_ClkInitStruct->ClockType) & RCC_CLOCKTYPE_PCLK1) == RCC_CLOCKTYPE_PCLK1)
 800103e:	682a      	ldr	r2, [r5, #0]
 8001040:	4c43      	ldr	r4, [pc, #268]	; (8001150 <HAL_RCC_ClockConfig+0x13c>)
 8001042:	f012 0f04 	tst.w	r2, #4
 8001046:	d179      	bne.n	800113c <HAL_RCC_ClockConfig+0x128>
  if(((RCC_ClkInitStruct->ClockType) & RCC_CLOCKTYPE_PCLK2) == RCC_CLOCKTYPE_PCLK2)
 8001048:	0713      	lsls	r3, r2, #28
 800104a:	d506      	bpl.n	800105a <HAL_RCC_ClockConfig+0x46>
    MODIFY_REG(RCC->CFGR, RCC_CFGR_PPRE2, ((RCC_ClkInitStruct->APB2CLKDivider) << 3));
 800104c:	6863      	ldr	r3, [r4, #4]
 800104e:	692a      	ldr	r2, [r5, #16]
 8001050:	f423 5360 	bic.w	r3, r3, #14336	; 0x3800
 8001054:	ea43 03c2 	orr.w	r3, r3, r2, lsl #3
 8001058:	6063      	str	r3, [r4, #4]
  SystemCoreClock = HAL_RCC_GetSysClockFreq() >> AHBPrescTable[(RCC->CFGR & RCC_CFGR_HPRE)>> RCC_CFGR_HPRE_Pos];
 800105a:	f7ff ff9f 	bl	8000f9c <HAL_RCC_GetSysClockFreq>
 800105e:	6863      	ldr	r3, [r4, #4]
 8001060:	4a3c      	ldr	r2, [pc, #240]	; (8001154 <HAL_RCC_ClockConfig+0x140>)
 8001062:	f3c3 1303 	ubfx	r3, r3, #4, #4
 8001066:	5cd3      	ldrb	r3, [r2, r3]
 8001068:	40d8      	lsrs	r0, r3
 800106a:	4b3b      	ldr	r3, [pc, #236]	; (8001158 <HAL_RCC_ClockConfig+0x144>)
 800106c:	6018      	str	r0, [r3, #0]
  HAL_InitTick (TICK_INT_PRIORITY);
 800106e:	2000      	movs	r0, #0
 8001070:	f7ff f86c 	bl	800014c <HAL_InitTick>
  return HAL_OK;
 8001074:	2000      	movs	r0, #0
}
 8001076:	e8bd 81f0 	ldmia.w	sp!, {r4, r5, r6, r7, r8, pc}
    __HAL_FLASH_SET_LATENCY(FLatency);
 800107a:	6813      	ldr	r3, [r2, #0]
 800107c:	f023 0307 	bic.w	r3, r3, #7
 8001080:	430b      	orrs	r3, r1
 8001082:	6013      	str	r3, [r2, #0]
    if((FLASH->ACR & FLASH_ACR_LATENCY) != FLatency)
 8001084:	6813      	ldr	r3, [r2, #0]
 8001086:	f003 0307 	and.w	r3, r3, #7
 800108a:	4299      	cmp	r1, r3
 800108c:	d0cc      	beq.n	8001028 <HAL_RCC_ClockConfig+0x14>
      return HAL_ERROR;
 800108e:	2001      	movs	r0, #1
 8001090:	e8bd 81f0 	ldmia.w	sp!, {r4, r5, r6, r7, r8, pc}
    MODIFY_REG(RCC->CFGR, RCC_CFGR_HPRE, RCC_ClkInitStruct->AHBCLKDivider);
 8001094:	492e      	ldr	r1, [pc, #184]	; (8001150 <HAL_RCC_ClockConfig+0x13c>)
 8001096:	68a8      	ldr	r0, [r5, #8]
 8001098:	684b      	ldr	r3, [r1, #4]
 800109a:	f023 03f0 	bic.w	r3, r3, #240	; 0xf0
 800109e:	4303      	orrs	r3, r0
 80010a0:	604b      	str	r3, [r1, #4]
 80010a2:	e7c4      	b.n	800102e <HAL_RCC_ClockConfig+0x1a>
    if(RCC_ClkInitStruct->SYSCLKSource == RCC_SYSCLKSOURCE_HSE)
 80010a4:	686a      	ldr	r2, [r5, #4]
 80010a6:	4c2a      	ldr	r4, [pc, #168]	; (8001150 <HAL_RCC_ClockConfig+0x13c>)
 80010a8:	2a01      	cmp	r2, #1
      if(__HAL_RCC_GET_FLAG(RCC_FLAG_HSERDY) == RESET)
 80010aa:	6823      	ldr	r3, [r4, #0]
    if(RCC_ClkInitStruct->SYSCLKSource == RCC_SYSCLKSOURCE_HSE)
 80010ac:	d11c      	bne.n	80010e8 <HAL_RCC_ClockConfig+0xd4>
      if(__HAL_RCC_GET_FLAG(RCC_FLAG_HSERDY) == RESET)
 80010ae:	f413 3f00 	tst.w	r3, #131072	; 0x20000
      if(__HAL_RCC_GET_FLAG(RCC_FLAG_HSIRDY) == RESET)
 80010b2:	d0ec      	beq.n	800108e <HAL_RCC_ClockConfig+0x7a>
    __HAL_RCC_SYSCLK_CONFIG(RCC_ClkInitStruct->SYSCLKSource);
 80010b4:	6863      	ldr	r3, [r4, #4]
        if((HAL_GetTick() - tickstart ) > CLOCKSWITCH_TIMEOUT_VALUE)
 80010b6:	f241 3888 	movw	r8, #5000	; 0x1388
    __HAL_RCC_SYSCLK_CONFIG(RCC_ClkInitStruct->SYSCLKSource);
 80010ba:	f023 0303 	bic.w	r3, r3, #3
 80010be:	4313      	orrs	r3, r2
 80010c0:	6063      	str	r3, [r4, #4]
    tickstart = HAL_GetTick();
 80010c2:	f7ff f885 	bl	80001d0 <HAL_GetTick>
    if(RCC_ClkInitStruct->SYSCLKSource == RCC_SYSCLKSOURCE_HSE)
 80010c6:	686b      	ldr	r3, [r5, #4]
    tickstart = HAL_GetTick();
 80010c8:	4607      	mov	r7, r0
    if(RCC_ClkInitStruct->SYSCLKSource == RCC_SYSCLKSOURCE_HSE)
 80010ca:	2b01      	cmp	r3, #1
 80010cc:	d114      	bne.n	80010f8 <HAL_RCC_ClockConfig+0xe4>
      while (__HAL_RCC_GET_SYSCLK_SOURCE() != RCC_SYSCLKSOURCE_STATUS_HSE)
 80010ce:	6863      	ldr	r3, [r4, #4]
 80010d0:	f003 030c 	and.w	r3, r3, #12
 80010d4:	2b04      	cmp	r3, #4
 80010d6:	d0ac      	beq.n	8001032 <HAL_RCC_ClockConfig+0x1e>
        if((HAL_GetTick() - tickstart ) > CLOCKSWITCH_TIMEOUT_VALUE)
 80010d8:	f7ff f87a 	bl	80001d0 <HAL_GetTick>
 80010dc:	1bc0      	subs	r0, r0, r7
 80010de:	4540      	cmp	r0, r8
 80010e0:	d9f5      	bls.n	80010ce <HAL_RCC_ClockConfig+0xba>
          return HAL_TIMEOUT;
 80010e2:	2003      	movs	r0, #3
 80010e4:	e8bd 81f0 	ldmia.w	sp!, {r4, r5, r6, r7, r8, pc}
    else if(RCC_ClkInitStruct->SYSCLKSource == RCC_SYSCLKSOURCE_PLLCLK)
 80010e8:	2a02      	cmp	r2, #2
 80010ea:	d102      	bne.n	80010f2 <HAL_RCC_ClockConfig+0xde>
      if(__HAL_RCC_GET_FLAG(RCC_FLAG_PLLRDY) == RESET)
 80010ec:	f013 7f00 	tst.w	r3, #33554432	; 0x2000000
 80010f0:	e7df      	b.n	80010b2 <HAL_RCC_ClockConfig+0x9e>
      if(__HAL_RCC_GET_FLAG(RCC_FLAG_HSIRDY) == RESET)
 80010f2:	f013 0f02 	tst.w	r3, #2
 80010f6:	e7dc      	b.n	80010b2 <HAL_RCC_ClockConfig+0x9e>
    else if(RCC_ClkInitStruct->SYSCLKSource == RCC_SYSCLKSOURCE_PLLCLK)
 80010f8:	2b02      	cmp	r3, #2
 80010fa:	d10f      	bne.n	800111c <HAL_RCC_ClockConfig+0x108>
      while (__HAL_RCC_GET_SYSCLK_SOURCE() != RCC_SYSCLKSOURCE_STATUS_PLLCLK)
 80010fc:	6863      	ldr	r3, [r4, #4]
 80010fe:	f003 030c 	and.w	r3, r3, #12
 8001102:	2b08      	cmp	r3, #8
 8001104:	d095      	beq.n	8001032 <HAL_RCC_ClockConfig+0x1e>
        if((HAL_GetTick() - tickstart ) > CLOCKSWITCH_TIMEOUT_VALUE)
 8001106:	f7ff f863 	bl	80001d0 <HAL_GetTick>
 800110a:	1bc0      	subs	r0, r0, r7
 800110c:	4540      	cmp	r0, r8
 800110e:	d9f5      	bls.n	80010fc <HAL_RCC_ClockConfig+0xe8>
 8001110:	e7e7      	b.n	80010e2 <HAL_RCC_ClockConfig+0xce>
        if((HAL_GetTick() - tickstart ) > CLOCKSWITCH_TIMEOUT_VALUE)
 8001112:	f7ff f85d 	bl	80001d0 <HAL_GetTick>
 8001116:	1bc0      	subs	r0, r0, r7
 8001118:	4540      	cmp	r0, r8
 800111a:	d8e2      	bhi.n	80010e2 <HAL_RCC_ClockConfig+0xce>
      while (__HAL_RCC_GET_SYSCLK_SOURCE() != RCC_SYSCLKSOURCE_STATUS_HSI)
 800111c:	6863      	ldr	r3, [r4, #4]
 800111e:	f013 0f0c 	tst.w	r3, #12
 8001122:	d1f6      	bne.n	8001112 <HAL_RCC_ClockConfig+0xfe>
 8001124:	e785      	b.n	8001032 <HAL_RCC_ClockConfig+0x1e>
    __HAL_FLASH_SET_LATENCY(FLatency);
 8001126:	6813      	ldr	r3, [r2, #0]
 8001128:	f023 0307 	bic.w	r3, r3, #7
 800112c:	4333      	orrs	r3, r6
 800112e:	6013      	str	r3, [r2, #0]
    if((FLASH->ACR & FLASH_ACR_LATENCY) != FLatency)
 8001130:	6813      	ldr	r3, [r2, #0]
 8001132:	f003 0307 	and.w	r3, r3, #7
 8001136:	429e      	cmp	r6, r3
 8001138:	d1a9      	bne.n	800108e <HAL_RCC_ClockConfig+0x7a>
 800113a:	e780      	b.n	800103e <HAL_RCC_ClockConfig+0x2a>
    MODIFY_REG(RCC->CFGR, RCC_CFGR_PPRE1, RCC_ClkInitStruct->APB1CLKDivider);
 800113c:	6863      	ldr	r3, [r4, #4]
 800113e:	68e9      	ldr	r1, [r5, #12]
 8001140:	f423 63e0 	bic.w	r3, r3, #1792	; 0x700
 8001144:	430b      	orrs	r3, r1
 8001146:	6063      	str	r3, [r4, #4]
 8001148:	e77e      	b.n	8001048 <HAL_RCC_ClockConfig+0x34>
 800114a:	bf00      	nop
 800114c:	40022000 	.word	0x40022000
 8001150:	40021000 	.word	0x40021000
 8001154:	08002dc4 	.word	0x08002dc4
 8001158:	200000ac 	.word	0x200000ac

0800115c <HAL_RCC_GetHCLKFreq>:
}
 800115c:	4b01      	ldr	r3, [pc, #4]	; (8001164 <HAL_RCC_GetHCLKFreq+0x8>)
 800115e:	6818      	ldr	r0, [r3, #0]
 8001160:	4770      	bx	lr
 8001162:	bf00      	nop
 8001164:	200000ac 	.word	0x200000ac

08001168 <HAL_RCCEx_PeriphCLKConfig>:

  /* Check the parameters */
  assert_param(IS_RCC_PERIPHCLOCK(PeriphClkInit->PeriphClockSelection));
  
  /*------------------------------- RTC/LCD Configuration ------------------------*/ 
  if ((((PeriphClkInit->PeriphClockSelection) & RCC_PERIPHCLK_RTC) == RCC_PERIPHCLK_RTC))
 8001168:	6803      	ldr	r3, [r0, #0]
{
 800116a:	e92d 41f3 	stmdb	sp!, {r0, r1, r4, r5, r6, r7, r8, lr}
  if ((((PeriphClkInit->PeriphClockSelection) & RCC_PERIPHCLK_RTC) == RCC_PERIPHCLK_RTC))
 800116e:	07d9      	lsls	r1, r3, #31
{
 8001170:	4605      	mov	r5, r0
  if ((((PeriphClkInit->PeriphClockSelection) & RCC_PERIPHCLK_RTC) == RCC_PERIPHCLK_RTC))
 8001172:	d520      	bpl.n	80011b6 <HAL_RCCEx_PeriphCLKConfig+0x4e>
    FlagStatus       pwrclkchanged = RESET;

    /* As soon as function is called to change RTC clock source, activation of the 
       power domain is done. */
    /* Requires to enable write access to Backup Domain of necessary */
    if(__HAL_RCC_PWR_IS_CLK_DISABLED())
 8001174:	4c35      	ldr	r4, [pc, #212]	; (800124c <HAL_RCCEx_PeriphCLKConfig+0xe4>)
 8001176:	69e3      	ldr	r3, [r4, #28]
 8001178:	00da      	lsls	r2, r3, #3
 800117a:	d432      	bmi.n	80011e2 <HAL_RCCEx_PeriphCLKConfig+0x7a>
    {
    __HAL_RCC_PWR_CLK_ENABLE();
      pwrclkchanged = SET;
 800117c:	2701      	movs	r7, #1
    __HAL_RCC_PWR_CLK_ENABLE();
 800117e:	69e3      	ldr	r3, [r4, #28]
 8001180:	f043 5380 	orr.w	r3, r3, #268435456	; 0x10000000
 8001184:	61e3      	str	r3, [r4, #28]
 8001186:	69e3      	ldr	r3, [r4, #28]
 8001188:	f003 5380 	and.w	r3, r3, #268435456	; 0x10000000
 800118c:	9301      	str	r3, [sp, #4]
 800118e:	9b01      	ldr	r3, [sp, #4]
    }
    
    if(HAL_IS_BIT_CLR(PWR->CR, PWR_CR_DBP))
 8001190:	4e2f      	ldr	r6, [pc, #188]	; (8001250 <HAL_RCCEx_PeriphCLKConfig+0xe8>)
 8001192:	6833      	ldr	r3, [r6, #0]
 8001194:	05db      	lsls	r3, r3, #23
 8001196:	d526      	bpl.n	80011e6 <HAL_RCCEx_PeriphCLKConfig+0x7e>
        }
      }
    }
      
    /* Reset the Backup domain only if the RTC Clock source selection is modified from reset value */ 
    temp_reg = (RCC->BDCR & RCC_BDCR_RTCSEL);
 8001198:	6a23      	ldr	r3, [r4, #32]
    if((temp_reg != 0x00000000U) && (temp_reg != (PeriphClkInit->RTCClockSelection & RCC_BDCR_RTCSEL)))
 800119a:	f413 7340 	ands.w	r3, r3, #768	; 0x300
 800119e:	d136      	bne.n	800120e <HAL_RCCEx_PeriphCLKConfig+0xa6>
            return HAL_TIMEOUT;
          }      
        }  
      }
    }
    __HAL_RCC_RTC_CONFIG(PeriphClkInit->RTCClockSelection); 
 80011a0:	6a23      	ldr	r3, [r4, #32]
 80011a2:	686a      	ldr	r2, [r5, #4]
 80011a4:	f423 7340 	bic.w	r3, r3, #768	; 0x300
 80011a8:	4313      	orrs	r3, r2
 80011aa:	6223      	str	r3, [r4, #32]

    /* Require to disable power clock if necessary */
    if(pwrclkchanged == SET)
 80011ac:	b11f      	cbz	r7, 80011b6 <HAL_RCCEx_PeriphCLKConfig+0x4e>
    {
      __HAL_RCC_PWR_CLK_DISABLE();
 80011ae:	69e3      	ldr	r3, [r4, #28]
 80011b0:	f023 5380 	bic.w	r3, r3, #268435456	; 0x10000000
 80011b4:	61e3      	str	r3, [r4, #28]
    }
  }

  /*------------------------------ ADC clock Configuration ------------------*/ 
  if(((PeriphClkInit->PeriphClockSelection) & RCC_PERIPHCLK_ADC) == RCC_PERIPHCLK_ADC)
 80011b6:	6828      	ldr	r0, [r5, #0]
 80011b8:	0783      	lsls	r3, r0, #30
 80011ba:	d506      	bpl.n	80011ca <HAL_RCCEx_PeriphCLKConfig+0x62>
  {
    /* Check the parameters */
    assert_param(IS_RCC_ADCPLLCLK_DIV(PeriphClkInit->AdcClockSelection));
    
    /* Configure the ADC clock source */
    __HAL_RCC_ADC_CONFIG(PeriphClkInit->AdcClockSelection);
 80011bc:	4a23      	ldr	r2, [pc, #140]	; (800124c <HAL_RCCEx_PeriphCLKConfig+0xe4>)
 80011be:	68a9      	ldr	r1, [r5, #8]
 80011c0:	6853      	ldr	r3, [r2, #4]
 80011c2:	f423 4340 	bic.w	r3, r3, #49152	; 0xc000
 80011c6:	430b      	orrs	r3, r1
 80011c8:	6053      	str	r3, [r2, #4]

#if defined(STM32F102x6) || defined(STM32F102xB) || defined(STM32F103x6)\
 || defined(STM32F103xB) || defined(STM32F103xE) || defined(STM32F103xG)\
 || defined(STM32F105xC) || defined(STM32F107xC)
  /*------------------------------ USB clock Configuration ------------------*/ 
  if(((PeriphClkInit->PeriphClockSelection) & RCC_PERIPHCLK_USB) == RCC_PERIPHCLK_USB)
 80011ca:	f010 0010 	ands.w	r0, r0, #16
 80011ce:	d01b      	beq.n	8001208 <HAL_RCCEx_PeriphCLKConfig+0xa0>
  {
    /* Check the parameters */
    assert_param(IS_RCC_USBPLLCLK_DIV(PeriphClkInit->UsbClockSelection));
    
    /* Configure the USB clock source */
    __HAL_RCC_USB_CONFIG(PeriphClkInit->UsbClockSelection);
 80011d0:	4a1e      	ldr	r2, [pc, #120]	; (800124c <HAL_RCCEx_PeriphCLKConfig+0xe4>)
 80011d2:	68e9      	ldr	r1, [r5, #12]
 80011d4:	6853      	ldr	r3, [r2, #4]
  }
#endif /* STM32F102x6 || STM32F102xB || STM32F103x6 || STM32F103xB || STM32F103xE || STM32F103xG || STM32F105xC || STM32F107xC */

  return HAL_OK;
 80011d6:	2000      	movs	r0, #0
    __HAL_RCC_USB_CONFIG(PeriphClkInit->UsbClockSelection);
 80011d8:	f423 0380 	bic.w	r3, r3, #4194304	; 0x400000
 80011dc:	430b      	orrs	r3, r1
 80011de:	6053      	str	r3, [r2, #4]
 80011e0:	e012      	b.n	8001208 <HAL_RCCEx_PeriphCLKConfig+0xa0>
    FlagStatus       pwrclkchanged = RESET;
 80011e2:	2700      	movs	r7, #0
 80011e4:	e7d4      	b.n	8001190 <HAL_RCCEx_PeriphCLKConfig+0x28>
      SET_BIT(PWR->CR, PWR_CR_DBP);
 80011e6:	6833      	ldr	r3, [r6, #0]
 80011e8:	f443 7380 	orr.w	r3, r3, #256	; 0x100
 80011ec:	6033      	str	r3, [r6, #0]
      tickstart = HAL_GetTick();
 80011ee:	f7fe ffef 	bl	80001d0 <HAL_GetTick>
 80011f2:	4680      	mov	r8, r0
      while(HAL_IS_BIT_CLR(PWR->CR, PWR_CR_DBP))
 80011f4:	6833      	ldr	r3, [r6, #0]
 80011f6:	05d8      	lsls	r0, r3, #23
 80011f8:	d4ce      	bmi.n	8001198 <HAL_RCCEx_PeriphCLKConfig+0x30>
        if((HAL_GetTick() - tickstart) > RCC_DBP_TIMEOUT_VALUE)
 80011fa:	f7fe ffe9 	bl	80001d0 <HAL_GetTick>
 80011fe:	eba0 0008 	sub.w	r0, r0, r8
 8001202:	2864      	cmp	r0, #100	; 0x64
 8001204:	d9f6      	bls.n	80011f4 <HAL_RCCEx_PeriphCLKConfig+0x8c>
          return HAL_TIMEOUT;
 8001206:	2003      	movs	r0, #3
}
 8001208:	b002      	add	sp, #8
 800120a:	e8bd 81f0 	ldmia.w	sp!, {r4, r5, r6, r7, r8, pc}
    if((temp_reg != 0x00000000U) && (temp_reg != (PeriphClkInit->RTCClockSelection & RCC_BDCR_RTCSEL)))
 800120e:	686a      	ldr	r2, [r5, #4]
 8001210:	f402 7240 	and.w	r2, r2, #768	; 0x300
 8001214:	4293      	cmp	r3, r2
 8001216:	d0c3      	beq.n	80011a0 <HAL_RCCEx_PeriphCLKConfig+0x38>
      __HAL_RCC_BACKUPRESET_FORCE();
 8001218:	2001      	movs	r0, #1
 800121a:	4a0e      	ldr	r2, [pc, #56]	; (8001254 <HAL_RCCEx_PeriphCLKConfig+0xec>)
      temp_reg = (RCC->BDCR & ~(RCC_BDCR_RTCSEL));
 800121c:	6a23      	ldr	r3, [r4, #32]
      __HAL_RCC_BACKUPRESET_FORCE();
 800121e:	6010      	str	r0, [r2, #0]
      __HAL_RCC_BACKUPRESET_RELEASE();
 8001220:	2000      	movs	r0, #0
      temp_reg = (RCC->BDCR & ~(RCC_BDCR_RTCSEL));
 8001222:	f423 7140 	bic.w	r1, r3, #768	; 0x300
      __HAL_RCC_BACKUPRESET_RELEASE();
 8001226:	6010      	str	r0, [r2, #0]
      RCC->BDCR = temp_reg;
 8001228:	6221      	str	r1, [r4, #32]
      if (HAL_IS_BIT_SET(temp_reg, RCC_BDCR_LSEON))
 800122a:	07d9      	lsls	r1, r3, #31
 800122c:	d5b8      	bpl.n	80011a0 <HAL_RCCEx_PeriphCLKConfig+0x38>
        tickstart = HAL_GetTick();
 800122e:	f7fe ffcf 	bl	80001d0 <HAL_GetTick>
          if((HAL_GetTick() - tickstart) > RCC_LSE_TIMEOUT_VALUE)
 8001232:	f241 3888 	movw	r8, #5000	; 0x1388
        tickstart = HAL_GetTick();
 8001236:	4606      	mov	r6, r0
        while(__HAL_RCC_GET_FLAG(RCC_FLAG_LSERDY) == RESET)
 8001238:	6a23      	ldr	r3, [r4, #32]
 800123a:	079a      	lsls	r2, r3, #30
 800123c:	d4b0      	bmi.n	80011a0 <HAL_RCCEx_PeriphCLKConfig+0x38>
          if((HAL_GetTick() - tickstart) > RCC_LSE_TIMEOUT_VALUE)
 800123e:	f7fe ffc7 	bl	80001d0 <HAL_GetTick>
 8001242:	1b80      	subs	r0, r0, r6
 8001244:	4540      	cmp	r0, r8
 8001246:	d9f7      	bls.n	8001238 <HAL_RCCEx_PeriphCLKConfig+0xd0>
 8001248:	e7dd      	b.n	8001206 <HAL_RCCEx_PeriphCLKConfig+0x9e>
 800124a:	bf00      	nop
 800124c:	40021000 	.word	0x40021000
 8001250:	40007000 	.word	0x40007000
 8001254:	42420440 	.word	0x42420440

08001258 <HAL_TIM_Encoder_Start_IT>:
  *            @arg TIM_CHANNEL_2: TIM Channel 2 selected
  *            @arg TIM_CHANNEL_ALL: TIM Channel 1 and TIM Channel 2 are selected
  * @retval HAL status
*/
HAL_StatusTypeDef HAL_TIM_Encoder_Start_IT(TIM_HandleTypeDef *htim, uint32_t Channel)
{
 8001258:	6803      	ldr	r3, [r0, #0]
  /* Check the parameters */
  assert_param(IS_TIM_CC2_INSTANCE(htim->Instance));

  /* Enable the encoder interface channels */
  /* Enable the capture compare Interrupts 1 and/or 2 */
  switch (Channel)
 800125a:	b1b1      	cbz	r1, 800128a <HAL_TIM_Encoder_Start_IT+0x32>
 800125c:	2904      	cmp	r1, #4
 800125e:	d026      	beq.n	80012ae <HAL_TIM_Encoder_Start_IT+0x56>
  assert_param(IS_TIM_CHANNELS(Channel));

  tmp = TIM_CCER_CC1E << Channel;

  /* Reset the CCxE Bit */
  TIMx->CCER &= ~tmp;
 8001260:	6a1a      	ldr	r2, [r3, #32]
 8001262:	f022 0201 	bic.w	r2, r2, #1
 8001266:	621a      	str	r2, [r3, #32]

  /* Set or reset the CCxE Bit */
  TIMx->CCER |=  (uint32_t)(ChannelState << Channel);
 8001268:	6a1a      	ldr	r2, [r3, #32]
 800126a:	f042 0201 	orr.w	r2, r2, #1
 800126e:	621a      	str	r2, [r3, #32]
  TIMx->CCER &= ~tmp;
 8001270:	6a1a      	ldr	r2, [r3, #32]
 8001272:	f022 0210 	bic.w	r2, r2, #16
 8001276:	621a      	str	r2, [r3, #32]
  TIMx->CCER |=  (uint32_t)(ChannelState << Channel);
 8001278:	6a1a      	ldr	r2, [r3, #32]
 800127a:	f042 0210 	orr.w	r2, r2, #16
 800127e:	621a      	str	r2, [r3, #32]
     __HAL_TIM_ENABLE_IT(htim, TIM_IT_CC1);
 8001280:	68da      	ldr	r2, [r3, #12]
 8001282:	f042 0202 	orr.w	r2, r2, #2
 8001286:	60da      	str	r2, [r3, #12]
 8001288:	e019      	b.n	80012be <HAL_TIM_Encoder_Start_IT+0x66>
  TIMx->CCER &= ~tmp;
 800128a:	6a1a      	ldr	r2, [r3, #32]
 800128c:	f022 0201 	bic.w	r2, r2, #1
 8001290:	621a      	str	r2, [r3, #32]
  TIMx->CCER |=  (uint32_t)(ChannelState << Channel);
 8001292:	6a1a      	ldr	r2, [r3, #32]
 8001294:	f042 0201 	orr.w	r2, r2, #1
 8001298:	621a      	str	r2, [r3, #32]
    __HAL_TIM_ENABLE_IT(htim, TIM_IT_CC1);
 800129a:	68da      	ldr	r2, [r3, #12]
 800129c:	f042 0202 	orr.w	r2, r2, #2
     __HAL_TIM_ENABLE_IT(htim, TIM_IT_CC2);
 80012a0:	60da      	str	r2, [r3, #12]
  __HAL_TIM_ENABLE(htim);
 80012a2:	681a      	ldr	r2, [r3, #0]
}
 80012a4:	2000      	movs	r0, #0
  __HAL_TIM_ENABLE(htim);
 80012a6:	f042 0201 	orr.w	r2, r2, #1
 80012aa:	601a      	str	r2, [r3, #0]
}
 80012ac:	4770      	bx	lr
  TIMx->CCER &= ~tmp;
 80012ae:	6a1a      	ldr	r2, [r3, #32]
 80012b0:	f022 0210 	bic.w	r2, r2, #16
 80012b4:	621a      	str	r2, [r3, #32]
  TIMx->CCER |=  (uint32_t)(ChannelState << Channel);
 80012b6:	6a1a      	ldr	r2, [r3, #32]
 80012b8:	f042 0210 	orr.w	r2, r2, #16
 80012bc:	621a      	str	r2, [r3, #32]
     __HAL_TIM_ENABLE_IT(htim, TIM_IT_CC2);
 80012be:	68da      	ldr	r2, [r3, #12]
 80012c0:	f042 0204 	orr.w	r2, r2, #4
 80012c4:	e7ec      	b.n	80012a0 <HAL_TIM_Encoder_Start_IT+0x48>

080012c6 <HAL_TIM_PeriodElapsedCallback>:
 80012c6:	4770      	bx	lr

080012c8 <HAL_TIM_OC_DelayElapsedCallback>:
 80012c8:	4770      	bx	lr

080012ca <HAL_TIM_IC_CaptureCallback>:
 80012ca:	4770      	bx	lr

080012cc <HAL_TIM_PWM_PulseFinishedCallback>:
 80012cc:	4770      	bx	lr

080012ce <HAL_TIM_TriggerCallback>:
 80012ce:	4770      	bx	lr

080012d0 <HAL_TIM_IRQHandler>:
  if(__HAL_TIM_GET_FLAG(htim, TIM_FLAG_CC1) != RESET)
 80012d0:	6803      	ldr	r3, [r0, #0]
{
 80012d2:	b510      	push	{r4, lr}
  if(__HAL_TIM_GET_FLAG(htim, TIM_FLAG_CC1) != RESET)
 80012d4:	691a      	ldr	r2, [r3, #16]
{
 80012d6:	4604      	mov	r4, r0
  if(__HAL_TIM_GET_FLAG(htim, TIM_FLAG_CC1) != RESET)
 80012d8:	0791      	lsls	r1, r2, #30
 80012da:	d50e      	bpl.n	80012fa <HAL_TIM_IRQHandler+0x2a>
    if(__HAL_TIM_GET_IT_SOURCE(htim, TIM_IT_CC1) !=RESET)
 80012dc:	68da      	ldr	r2, [r3, #12]
 80012de:	0792      	lsls	r2, r2, #30
 80012e0:	d50b      	bpl.n	80012fa <HAL_TIM_IRQHandler+0x2a>
        __HAL_TIM_CLEAR_IT(htim, TIM_IT_CC1);
 80012e2:	f06f 0202 	mvn.w	r2, #2
 80012e6:	611a      	str	r2, [r3, #16]
        htim->Channel = HAL_TIM_ACTIVE_CHANNEL_1;
 80012e8:	2201      	movs	r2, #1
        if((htim->Instance->CCMR1 & TIM_CCMR1_CC1S) != 0x00U)
 80012ea:	699b      	ldr	r3, [r3, #24]
        htim->Channel = HAL_TIM_ACTIVE_CHANNEL_1;
 80012ec:	7702      	strb	r2, [r0, #28]
        if((htim->Instance->CCMR1 & TIM_CCMR1_CC1S) != 0x00U)
 80012ee:	079b      	lsls	r3, r3, #30
 80012f0:	d077      	beq.n	80013e2 <HAL_TIM_IRQHandler+0x112>
          HAL_TIM_IC_CaptureCallback(htim);
 80012f2:	f7ff ffea 	bl	80012ca <HAL_TIM_IC_CaptureCallback>
        htim->Channel = HAL_TIM_ACTIVE_CHANNEL_CLEARED;
 80012f6:	2300      	movs	r3, #0
 80012f8:	7723      	strb	r3, [r4, #28]
  if(__HAL_TIM_GET_FLAG(htim, TIM_FLAG_CC2) != RESET)
 80012fa:	6823      	ldr	r3, [r4, #0]
 80012fc:	691a      	ldr	r2, [r3, #16]
 80012fe:	0750      	lsls	r0, r2, #29
 8001300:	d510      	bpl.n	8001324 <HAL_TIM_IRQHandler+0x54>
    if(__HAL_TIM_GET_IT_SOURCE(htim, TIM_IT_CC2) !=RESET)
 8001302:	68da      	ldr	r2, [r3, #12]
 8001304:	0751      	lsls	r1, r2, #29
 8001306:	d50d      	bpl.n	8001324 <HAL_TIM_IRQHandler+0x54>
      __HAL_TIM_CLEAR_IT(htim, TIM_IT_CC2);
 8001308:	f06f 0204 	mvn.w	r2, #4
 800130c:	611a      	str	r2, [r3, #16]
      htim->Channel = HAL_TIM_ACTIVE_CHANNEL_2;
 800130e:	2202      	movs	r2, #2
      if((htim->Instance->CCMR1 & TIM_CCMR1_CC2S) != 0x00U)
 8001310:	699b      	ldr	r3, [r3, #24]
      htim->Channel = HAL_TIM_ACTIVE_CHANNEL_2;
 8001312:	7722      	strb	r2, [r4, #28]
      if((htim->Instance->CCMR1 & TIM_CCMR1_CC2S) != 0x00U)
 8001314:	f413 7f40 	tst.w	r3, #768	; 0x300
        HAL_TIM_IC_CaptureCallback(htim);
 8001318:	4620      	mov	r0, r4
      if((htim->Instance->CCMR1 & TIM_CCMR1_CC2S) != 0x00U)
 800131a:	d068      	beq.n	80013ee <HAL_TIM_IRQHandler+0x11e>
        HAL_TIM_IC_CaptureCallback(htim);
 800131c:	f7ff ffd5 	bl	80012ca <HAL_TIM_IC_CaptureCallback>
      htim->Channel = HAL_TIM_ACTIVE_CHANNEL_CLEARED;
 8001320:	2300      	movs	r3, #0
 8001322:	7723      	strb	r3, [r4, #28]
  if(__HAL_TIM_GET_FLAG(htim, TIM_FLAG_CC3) != RESET)
 8001324:	6823      	ldr	r3, [r4, #0]
 8001326:	691a      	ldr	r2, [r3, #16]
 8001328:	0712      	lsls	r2, r2, #28
 800132a:	d50f      	bpl.n	800134c <HAL_TIM_IRQHandler+0x7c>
    if(__HAL_TIM_GET_IT_SOURCE(htim, TIM_IT_CC3) !=RESET)
 800132c:	68da      	ldr	r2, [r3, #12]
 800132e:	0710      	lsls	r0, r2, #28
 8001330:	d50c      	bpl.n	800134c <HAL_TIM_IRQHandler+0x7c>
      __HAL_TIM_CLEAR_IT(htim, TIM_IT_CC3);
 8001332:	f06f 0208 	mvn.w	r2, #8
 8001336:	611a      	str	r2, [r3, #16]
      htim->Channel = HAL_TIM_ACTIVE_CHANNEL_3;
 8001338:	2204      	movs	r2, #4
      if((htim->Instance->CCMR2 & TIM_CCMR2_CC3S) != 0x00U)
 800133a:	69db      	ldr	r3, [r3, #28]
      htim->Channel = HAL_TIM_ACTIVE_CHANNEL_3;
 800133c:	7722      	strb	r2, [r4, #28]
      if((htim->Instance->CCMR2 & TIM_CCMR2_CC3S) != 0x00U)
 800133e:	0799      	lsls	r1, r3, #30
        HAL_TIM_IC_CaptureCallback(htim);
 8001340:	4620      	mov	r0, r4
      if((htim->Instance->CCMR2 & TIM_CCMR2_CC3S) != 0x00U)
 8001342:	d05a      	beq.n	80013fa <HAL_TIM_IRQHandler+0x12a>
        HAL_TIM_IC_CaptureCallback(htim);
 8001344:	f7ff ffc1 	bl	80012ca <HAL_TIM_IC_CaptureCallback>
      htim->Channel = HAL_TIM_ACTIVE_CHANNEL_CLEARED;
 8001348:	2300      	movs	r3, #0
 800134a:	7723      	strb	r3, [r4, #28]
  if(__HAL_TIM_GET_FLAG(htim, TIM_FLAG_CC4) != RESET)
 800134c:	6823      	ldr	r3, [r4, #0]
 800134e:	691a      	ldr	r2, [r3, #16]
 8001350:	06d2      	lsls	r2, r2, #27
 8001352:	d510      	bpl.n	8001376 <HAL_TIM_IRQHandler+0xa6>
    if(__HAL_TIM_GET_IT_SOURCE(htim, TIM_IT_CC4) !=RESET)
 8001354:	68da      	ldr	r2, [r3, #12]
 8001356:	06d0      	lsls	r0, r2, #27
 8001358:	d50d      	bpl.n	8001376 <HAL_TIM_IRQHandler+0xa6>
      __HAL_TIM_CLEAR_IT(htim, TIM_IT_CC4);
 800135a:	f06f 0210 	mvn.w	r2, #16
 800135e:	611a      	str	r2, [r3, #16]
      htim->Channel = HAL_TIM_ACTIVE_CHANNEL_4;
 8001360:	2208      	movs	r2, #8
      if((htim->Instance->CCMR2 & TIM_CCMR2_CC4S) != 0x00U)
 8001362:	69db      	ldr	r3, [r3, #28]
      htim->Channel = HAL_TIM_ACTIVE_CHANNEL_4;
 8001364:	7722      	strb	r2, [r4, #28]
      if((htim->Instance->CCMR2 & TIM_CCMR2_CC4S) != 0x00U)
 8001366:	f413 7f40 	tst.w	r3, #768	; 0x300
        HAL_TIM_IC_CaptureCallback(htim);
 800136a:	4620      	mov	r0, r4
      if((htim->Instance->CCMR2 & TIM_CCMR2_CC4S) != 0x00U)
 800136c:	d04b      	beq.n	8001406 <HAL_TIM_IRQHandler+0x136>
        HAL_TIM_IC_CaptureCallback(htim);
 800136e:	f7ff ffac 	bl	80012ca <HAL_TIM_IC_CaptureCallback>
      htim->Channel = HAL_TIM_ACTIVE_CHANNEL_CLEARED;
 8001372:	2300      	movs	r3, #0
 8001374:	7723      	strb	r3, [r4, #28]
  if(__HAL_TIM_GET_FLAG(htim, TIM_FLAG_UPDATE) != RESET)
 8001376:	6823      	ldr	r3, [r4, #0]
 8001378:	691a      	ldr	r2, [r3, #16]
 800137a:	07d1      	lsls	r1, r2, #31
 800137c:	d508      	bpl.n	8001390 <HAL_TIM_IRQHandler+0xc0>
    if(__HAL_TIM_GET_IT_SOURCE(htim, TIM_IT_UPDATE) !=RESET)
 800137e:	68da      	ldr	r2, [r3, #12]
 8001380:	07d2      	lsls	r2, r2, #31
 8001382:	d505      	bpl.n	8001390 <HAL_TIM_IRQHandler+0xc0>
      __HAL_TIM_CLEAR_IT(htim, TIM_IT_UPDATE);
 8001384:	f06f 0201 	mvn.w	r2, #1
      HAL_TIM_PeriodElapsedCallback(htim);
 8001388:	4620      	mov	r0, r4
      __HAL_TIM_CLEAR_IT(htim, TIM_IT_UPDATE);
 800138a:	611a      	str	r2, [r3, #16]
      HAL_TIM_PeriodElapsedCallback(htim);
 800138c:	f7ff ff9b 	bl	80012c6 <HAL_TIM_PeriodElapsedCallback>
  if(__HAL_TIM_GET_FLAG(htim, TIM_FLAG_BREAK) != RESET)
 8001390:	6823      	ldr	r3, [r4, #0]
 8001392:	691a      	ldr	r2, [r3, #16]
 8001394:	0610      	lsls	r0, r2, #24
 8001396:	d508      	bpl.n	80013aa <HAL_TIM_IRQHandler+0xda>
    if(__HAL_TIM_GET_IT_SOURCE(htim, TIM_IT_BREAK) !=RESET)
 8001398:	68da      	ldr	r2, [r3, #12]
 800139a:	0611      	lsls	r1, r2, #24
 800139c:	d505      	bpl.n	80013aa <HAL_TIM_IRQHandler+0xda>
      __HAL_TIM_CLEAR_IT(htim, TIM_IT_BREAK);
 800139e:	f06f 0280 	mvn.w	r2, #128	; 0x80
      HAL_TIMEx_BreakCallback(htim);
 80013a2:	4620      	mov	r0, r4
      __HAL_TIM_CLEAR_IT(htim, TIM_IT_BREAK);
 80013a4:	611a      	str	r2, [r3, #16]
      HAL_TIMEx_BreakCallback(htim);
 80013a6:	f000 f8d9 	bl	800155c <HAL_TIMEx_BreakCallback>
  if(__HAL_TIM_GET_FLAG(htim, TIM_FLAG_TRIGGER) != RESET)
 80013aa:	6823      	ldr	r3, [r4, #0]
 80013ac:	691a      	ldr	r2, [r3, #16]
 80013ae:	0652      	lsls	r2, r2, #25
 80013b0:	d508      	bpl.n	80013c4 <HAL_TIM_IRQHandler+0xf4>
    if(__HAL_TIM_GET_IT_SOURCE(htim, TIM_IT_TRIGGER) !=RESET)
 80013b2:	68da      	ldr	r2, [r3, #12]
 80013b4:	0650      	lsls	r0, r2, #25
 80013b6:	d505      	bpl.n	80013c4 <HAL_TIM_IRQHandler+0xf4>
      __HAL_TIM_CLEAR_IT(htim, TIM_IT_TRIGGER);
 80013b8:	f06f 0240 	mvn.w	r2, #64	; 0x40
      HAL_TIM_TriggerCallback(htim);
 80013bc:	4620      	mov	r0, r4
      __HAL_TIM_CLEAR_IT(htim, TIM_IT_TRIGGER);
 80013be:	611a      	str	r2, [r3, #16]
      HAL_TIM_TriggerCallback(htim);
 80013c0:	f7ff ff85 	bl	80012ce <HAL_TIM_TriggerCallback>
  if(__HAL_TIM_GET_FLAG(htim, TIM_FLAG_COM) != RESET)
 80013c4:	6823      	ldr	r3, [r4, #0]
 80013c6:	691a      	ldr	r2, [r3, #16]
 80013c8:	0691      	lsls	r1, r2, #26
 80013ca:	d522      	bpl.n	8001412 <HAL_TIM_IRQHandler+0x142>
    if(__HAL_TIM_GET_IT_SOURCE(htim, TIM_IT_COM) !=RESET)
 80013cc:	68da      	ldr	r2, [r3, #12]
 80013ce:	0692      	lsls	r2, r2, #26
 80013d0:	d51f      	bpl.n	8001412 <HAL_TIM_IRQHandler+0x142>
      __HAL_TIM_CLEAR_IT(htim, TIM_FLAG_COM);
 80013d2:	f06f 0220 	mvn.w	r2, #32
      HAL_TIMEx_CommutationCallback(htim);
 80013d6:	4620      	mov	r0, r4
}
 80013d8:	e8bd 4010 	ldmia.w	sp!, {r4, lr}
      __HAL_TIM_CLEAR_IT(htim, TIM_FLAG_COM);
 80013dc:	611a      	str	r2, [r3, #16]
      HAL_TIMEx_CommutationCallback(htim);
 80013de:	f000 b8bc 	b.w	800155a <HAL_TIMEx_CommutationCallback>
          HAL_TIM_OC_DelayElapsedCallback(htim);
 80013e2:	f7ff ff71 	bl	80012c8 <HAL_TIM_OC_DelayElapsedCallback>
          HAL_TIM_PWM_PulseFinishedCallback(htim);
 80013e6:	4620      	mov	r0, r4
 80013e8:	f7ff ff70 	bl	80012cc <HAL_TIM_PWM_PulseFinishedCallback>
 80013ec:	e783      	b.n	80012f6 <HAL_TIM_IRQHandler+0x26>
        HAL_TIM_OC_DelayElapsedCallback(htim);
 80013ee:	f7ff ff6b 	bl	80012c8 <HAL_TIM_OC_DelayElapsedCallback>
        HAL_TIM_PWM_PulseFinishedCallback(htim);
 80013f2:	4620      	mov	r0, r4
 80013f4:	f7ff ff6a 	bl	80012cc <HAL_TIM_PWM_PulseFinishedCallback>
 80013f8:	e792      	b.n	8001320 <HAL_TIM_IRQHandler+0x50>
        HAL_TIM_OC_DelayElapsedCallback(htim);
 80013fa:	f7ff ff65 	bl	80012c8 <HAL_TIM_OC_DelayElapsedCallback>
        HAL_TIM_PWM_PulseFinishedCallback(htim);
 80013fe:	4620      	mov	r0, r4
 8001400:	f7ff ff64 	bl	80012cc <HAL_TIM_PWM_PulseFinishedCallback>
 8001404:	e7a0      	b.n	8001348 <HAL_TIM_IRQHandler+0x78>
        HAL_TIM_OC_DelayElapsedCallback(htim);
 8001406:	f7ff ff5f 	bl	80012c8 <HAL_TIM_OC_DelayElapsedCallback>
        HAL_TIM_PWM_PulseFinishedCallback(htim);
 800140a:	4620      	mov	r0, r4
 800140c:	f7ff ff5e 	bl	80012cc <HAL_TIM_PWM_PulseFinishedCallback>
 8001410:	e7af      	b.n	8001372 <HAL_TIM_IRQHandler+0xa2>
 8001412:	bd10      	pop	{r4, pc}

08001414 <TIM_Base_SetConfig>:
  if (IS_TIM_COUNTER_MODE_SELECT_INSTANCE(TIMx))
 8001414:	4a1a      	ldr	r2, [pc, #104]	; (8001480 <TIM_Base_SetConfig+0x6c>)
  tmpcr1 = TIMx->CR1;
 8001416:	6803      	ldr	r3, [r0, #0]
  if (IS_TIM_COUNTER_MODE_SELECT_INSTANCE(TIMx))
 8001418:	4290      	cmp	r0, r2
 800141a:	d00a      	beq.n	8001432 <TIM_Base_SetConfig+0x1e>
 800141c:	f1b0 4f80 	cmp.w	r0, #1073741824	; 0x40000000
 8001420:	d007      	beq.n	8001432 <TIM_Base_SetConfig+0x1e>
 8001422:	f5a2 3294 	sub.w	r2, r2, #75776	; 0x12800
 8001426:	4290      	cmp	r0, r2
 8001428:	d003      	beq.n	8001432 <TIM_Base_SetConfig+0x1e>
 800142a:	f502 6280 	add.w	r2, r2, #1024	; 0x400
 800142e:	4290      	cmp	r0, r2
 8001430:	d115      	bne.n	800145e <TIM_Base_SetConfig+0x4a>
    tmpcr1 |= Structure->CounterMode;
 8001432:	684a      	ldr	r2, [r1, #4]
    tmpcr1 &= ~(TIM_CR1_DIR | TIM_CR1_CMS);
 8001434:	f023 0370 	bic.w	r3, r3, #112	; 0x70
    tmpcr1 |= Structure->CounterMode;
 8001438:	4313      	orrs	r3, r2
  if(IS_TIM_CLOCK_DIVISION_INSTANCE(TIMx))
 800143a:	4a11      	ldr	r2, [pc, #68]	; (8001480 <TIM_Base_SetConfig+0x6c>)
 800143c:	4290      	cmp	r0, r2
 800143e:	d00a      	beq.n	8001456 <TIM_Base_SetConfig+0x42>
 8001440:	f1b0 4f80 	cmp.w	r0, #1073741824	; 0x40000000
 8001444:	d007      	beq.n	8001456 <TIM_Base_SetConfig+0x42>
 8001446:	f5a2 3294 	sub.w	r2, r2, #75776	; 0x12800
 800144a:	4290      	cmp	r0, r2
 800144c:	d003      	beq.n	8001456 <TIM_Base_SetConfig+0x42>
 800144e:	f502 6280 	add.w	r2, r2, #1024	; 0x400
 8001452:	4290      	cmp	r0, r2
 8001454:	d103      	bne.n	800145e <TIM_Base_SetConfig+0x4a>
    tmpcr1 |= (uint32_t)Structure->ClockDivision;
 8001456:	68ca      	ldr	r2, [r1, #12]
    tmpcr1 &= ~TIM_CR1_CKD;
 8001458:	f423 7340 	bic.w	r3, r3, #768	; 0x300
    tmpcr1 |= (uint32_t)Structure->ClockDivision;
 800145c:	4313      	orrs	r3, r2
  tmpcr1 |= (uint32_t)Structure->AutoReloadPreload;
 800145e:	694a      	ldr	r2, [r1, #20]
  tmpcr1 &= ~TIM_CR1_ARPE;
 8001460:	f023 0380 	bic.w	r3, r3, #128	; 0x80
  tmpcr1 |= (uint32_t)Structure->AutoReloadPreload;
 8001464:	4313      	orrs	r3, r2
  TIMx->CR1 = tmpcr1;
 8001466:	6003      	str	r3, [r0, #0]
  TIMx->ARR = (uint32_t)Structure->Period ;
 8001468:	688b      	ldr	r3, [r1, #8]
 800146a:	62c3      	str	r3, [r0, #44]	; 0x2c
  TIMx->PSC = (uint32_t)Structure->Prescaler;
 800146c:	680b      	ldr	r3, [r1, #0]
 800146e:	6283      	str	r3, [r0, #40]	; 0x28
  if (IS_TIM_REPETITION_COUNTER_INSTANCE(TIMx))
 8001470:	4b03      	ldr	r3, [pc, #12]	; (8001480 <TIM_Base_SetConfig+0x6c>)
 8001472:	4298      	cmp	r0, r3
    TIMx->RCR = Structure->RepetitionCounter;
 8001474:	bf04      	itt	eq
 8001476:	690b      	ldreq	r3, [r1, #16]
 8001478:	6303      	streq	r3, [r0, #48]	; 0x30
  TIMx->EGR = TIM_EGR_UG;
 800147a:	2301      	movs	r3, #1
 800147c:	6143      	str	r3, [r0, #20]
 800147e:	4770      	bx	lr
 8001480:	40012c00 	.word	0x40012c00

08001484 <HAL_TIM_Encoder_Init>:
{
 8001484:	b5f8      	push	{r3, r4, r5, r6, r7, lr}
 8001486:	460c      	mov	r4, r1
  if(htim == NULL)
 8001488:	4605      	mov	r5, r0
 800148a:	2800      	cmp	r0, #0
 800148c:	d041      	beq.n	8001512 <HAL_TIM_Encoder_Init+0x8e>
  if(htim->State == HAL_TIM_STATE_RESET)
 800148e:	f890 303d 	ldrb.w	r3, [r0, #61]	; 0x3d
 8001492:	f003 02ff 	and.w	r2, r3, #255	; 0xff
 8001496:	b91b      	cbnz	r3, 80014a0 <HAL_TIM_Encoder_Init+0x1c>
    htim->Lock = HAL_UNLOCKED;
 8001498:	f880 203c 	strb.w	r2, [r0, #60]	; 0x3c
    HAL_TIM_Encoder_MspInit(htim);
 800149c:	f001 f9fa 	bl	8002894 <HAL_TIM_Encoder_MspInit>
  htim->Instance->SMCR &= ~TIM_SMCR_SMS;
 80014a0:	4629      	mov	r1, r5
  htim->State= HAL_TIM_STATE_BUSY;
 80014a2:	2302      	movs	r3, #2
  htim->Instance->SMCR &= ~TIM_SMCR_SMS;
 80014a4:	f851 0b04 	ldr.w	r0, [r1], #4
  htim->State= HAL_TIM_STATE_BUSY;
 80014a8:	f885 303d 	strb.w	r3, [r5, #61]	; 0x3d
  htim->Instance->SMCR &= ~TIM_SMCR_SMS;
 80014ac:	6883      	ldr	r3, [r0, #8]
 80014ae:	f023 0307 	bic.w	r3, r3, #7
 80014b2:	6083      	str	r3, [r0, #8]
  TIM_Base_SetConfig(htim->Instance, &htim->Init);
 80014b4:	f7ff ffae 	bl	8001414 <TIM_Base_SetConfig>
  tmpsmcr = htim->Instance->SMCR;
 80014b8:	6828      	ldr	r0, [r5, #0]
  tmpsmcr |= sConfig->EncoderMode;
 80014ba:	6823      	ldr	r3, [r4, #0]
  tmpsmcr = htim->Instance->SMCR;
 80014bc:	6886      	ldr	r6, [r0, #8]
  tmpccmr1 = htim->Instance->CCMR1;
 80014be:	6982      	ldr	r2, [r0, #24]
  tmpccmr1 |= (sConfig->IC1Selection | (sConfig->IC2Selection << 8U));
 80014c0:	68a1      	ldr	r1, [r4, #8]
  tmpsmcr |= sConfig->EncoderMode;
 80014c2:	431e      	orrs	r6, r3
  tmpccmr1 |= (sConfig->IC1Selection | (sConfig->IC2Selection << 8U));
 80014c4:	69a3      	ldr	r3, [r4, #24]
  tmpccmr1 &= ~(TIM_CCMR1_CC1S | TIM_CCMR1_CC2S);
 80014c6:	f422 7240 	bic.w	r2, r2, #768	; 0x300
 80014ca:	f022 0203 	bic.w	r2, r2, #3
  tmpccmr1 |= (sConfig->IC1Selection | (sConfig->IC2Selection << 8U));
 80014ce:	ea41 2303 	orr.w	r3, r1, r3, lsl #8
 80014d2:	4313      	orrs	r3, r2
  tmpccmr1 &= ~(TIM_CCMR1_IC1F | TIM_CCMR1_IC2F);
 80014d4:	f423 427c 	bic.w	r2, r3, #64512	; 0xfc00
  tmpccmr1 |= (sConfig->IC1Filter << 4U) | (sConfig->IC2Filter << 12U);
 80014d8:	6923      	ldr	r3, [r4, #16]
  tmpccmr1 |= sConfig->IC1Prescaler | (sConfig->IC2Prescaler << 8U);
 80014da:	69e1      	ldr	r1, [r4, #28]
  tmpccmr1 |= (sConfig->IC1Filter << 4U) | (sConfig->IC2Filter << 12U);
 80014dc:	011b      	lsls	r3, r3, #4
 80014de:	ea43 2301 	orr.w	r3, r3, r1, lsl #8
 80014e2:	68e1      	ldr	r1, [r4, #12]
  tmpccer = htim->Instance->CCER;
 80014e4:	6a07      	ldr	r7, [r0, #32]
  tmpccmr1 |= (sConfig->IC1Filter << 4U) | (sConfig->IC2Filter << 12U);
 80014e6:	430b      	orrs	r3, r1
 80014e8:	6a21      	ldr	r1, [r4, #32]
  tmpccmr1 &= ~(TIM_CCMR1_IC1F | TIM_CCMR1_IC2F);
 80014ea:	f022 02fc 	bic.w	r2, r2, #252	; 0xfc
  tmpccmr1 |= (sConfig->IC1Filter << 4U) | (sConfig->IC2Filter << 12U);
 80014ee:	ea43 3301 	orr.w	r3, r3, r1, lsl #12
 80014f2:	4313      	orrs	r3, r2
  tmpccer |= sConfig->IC1Polarity | (sConfig->IC2Polarity << 4U);
 80014f4:	6961      	ldr	r1, [r4, #20]
  tmpccer &= ~(TIM_CCER_CC1NP | TIM_CCER_CC2NP);
 80014f6:	f027 02aa 	bic.w	r2, r7, #170	; 0xaa
  tmpccer |= sConfig->IC1Polarity | (sConfig->IC2Polarity << 4U);
 80014fa:	6867      	ldr	r7, [r4, #4]
  htim->Instance->SMCR = tmpsmcr;
 80014fc:	6086      	str	r6, [r0, #8]
  htim->Instance->CCMR1 = tmpccmr1;
 80014fe:	6183      	str	r3, [r0, #24]
  htim->State= HAL_TIM_STATE_READY;
 8001500:	2301      	movs	r3, #1
  tmpccer |= sConfig->IC1Polarity | (sConfig->IC2Polarity << 4U);
 8001502:	ea47 1701 	orr.w	r7, r7, r1, lsl #4
 8001506:	4317      	orrs	r7, r2
  htim->Instance->CCER = tmpccer;
 8001508:	6207      	str	r7, [r0, #32]
  htim->State= HAL_TIM_STATE_READY;
 800150a:	f885 303d 	strb.w	r3, [r5, #61]	; 0x3d
  return HAL_OK;
 800150e:	2000      	movs	r0, #0
 8001510:	bdf8      	pop	{r3, r4, r5, r6, r7, pc}
    return HAL_ERROR;
 8001512:	2001      	movs	r0, #1
}
 8001514:	bdf8      	pop	{r3, r4, r5, r6, r7, pc}

08001516 <HAL_TIMEx_MasterConfigSynchronization>:
  /* Check the parameters */
  assert_param(IS_TIM_MASTER_INSTANCE(htim->Instance));
  assert_param(IS_TIM_TRGO_SOURCE(sMasterConfig->MasterOutputTrigger));
  assert_param(IS_TIM_MSM_STATE(sMasterConfig->MasterSlaveMode));

  __HAL_LOCK(htim);
 8001516:	f890 303c 	ldrb.w	r3, [r0, #60]	; 0x3c
{
 800151a:	b510      	push	{r4, lr}
  __HAL_LOCK(htim);
 800151c:	2b01      	cmp	r3, #1
 800151e:	f04f 0302 	mov.w	r3, #2
 8001522:	d018      	beq.n	8001556 <HAL_TIMEx_MasterConfigSynchronization+0x40>

  htim->State = HAL_TIM_STATE_BUSY;
 8001524:	f880 303d 	strb.w	r3, [r0, #61]	; 0x3d

  /* Reset the MMS Bits */
  htim->Instance->CR2 &= ~TIM_CR2_MMS;
 8001528:	6803      	ldr	r3, [r0, #0]
  /* Select the TRGO source */
  htim->Instance->CR2 |=  sMasterConfig->MasterOutputTrigger;
 800152a:	680c      	ldr	r4, [r1, #0]
  htim->Instance->CR2 &= ~TIM_CR2_MMS;
 800152c:	685a      	ldr	r2, [r3, #4]

  /* Reset the MSM Bit */
  htim->Instance->SMCR &= ~TIM_SMCR_MSM;
  /* Set or Reset the MSM Bit */
  htim->Instance->SMCR |= sMasterConfig->MasterSlaveMode;
 800152e:	6849      	ldr	r1, [r1, #4]
  htim->Instance->CR2 &= ~TIM_CR2_MMS;
 8001530:	f022 0270 	bic.w	r2, r2, #112	; 0x70
 8001534:	605a      	str	r2, [r3, #4]
  htim->Instance->CR2 |=  sMasterConfig->MasterOutputTrigger;
 8001536:	685a      	ldr	r2, [r3, #4]
 8001538:	4322      	orrs	r2, r4
 800153a:	605a      	str	r2, [r3, #4]
  htim->Instance->SMCR &= ~TIM_SMCR_MSM;
 800153c:	689a      	ldr	r2, [r3, #8]
 800153e:	f022 0280 	bic.w	r2, r2, #128	; 0x80
 8001542:	609a      	str	r2, [r3, #8]
  htim->Instance->SMCR |= sMasterConfig->MasterSlaveMode;
 8001544:	689a      	ldr	r2, [r3, #8]
 8001546:	430a      	orrs	r2, r1
 8001548:	609a      	str	r2, [r3, #8]

  htim->State = HAL_TIM_STATE_READY;
 800154a:	2301      	movs	r3, #1
 800154c:	f880 303d 	strb.w	r3, [r0, #61]	; 0x3d

  __HAL_UNLOCK(htim);
 8001550:	2300      	movs	r3, #0
 8001552:	f880 303c 	strb.w	r3, [r0, #60]	; 0x3c
  __HAL_LOCK(htim);
 8001556:	4618      	mov	r0, r3

  return HAL_OK;
}
 8001558:	bd10      	pop	{r4, pc}

0800155a <HAL_TIMEx_CommutationCallback>:
 800155a:	4770      	bx	lr

0800155c <HAL_TIMEx_BreakCallback>:
  * @brief  Hall Break detection callback in non blocking mode
  * @param  htim : TIM handle
  * @retval None
  */
__weak void HAL_TIMEx_BreakCallback(TIM_HandleTypeDef *htim)
{
 800155c:	4770      	bx	lr

0800155e <USB_CoreInit>:
  * @param  cfg : pointer to a USB_CfgTypeDef structure that contains
  *         the configuration information for the specified USBx peripheral.
  * @retval HAL status
  */
HAL_StatusTypeDef USB_CoreInit(USB_TypeDef *USBx, USB_CfgTypeDef cfg)
{
 800155e:	b084      	sub	sp, #16
 8001560:	a801      	add	r0, sp, #4
 8001562:	e880 000e 	stmia.w	r0, {r1, r2, r3}
  /* NOTE : - This function is not required by USB Device FS peripheral, it is used 
              only by USB OTG FS peripheral.
            - This function is added to ensure compatibility across platforms.
   */
  return HAL_OK;
}
 8001566:	b004      	add	sp, #16
 8001568:	2000      	movs	r0, #0
 800156a:	4770      	bx	lr

0800156c <USB_EnableGlobalInt>:
  /* Set winterruptmask variable */
  winterruptmask = USB_CNTR_CTRM  | USB_CNTR_WKUPM | USB_CNTR_SUSPM | USB_CNTR_ERRM \
     | USB_CNTR_SOFM | USB_CNTR_ESOFM | USB_CNTR_RESETM;
  
  /* Set interrupt mask */
  USBx->CNTR |= winterruptmask;
 800156c:	f8b0 3040 	ldrh.w	r3, [r0, #64]	; 0x40
 8001570:	b29b      	uxth	r3, r3
 8001572:	f443 433f 	orr.w	r3, r3, #48896	; 0xbf00
 8001576:	f8a0 3040 	strh.w	r3, [r0, #64]	; 0x40
  
  return HAL_OK;
}
 800157a:	2000      	movs	r0, #0
 800157c:	4770      	bx	lr

0800157e <USB_DisableGlobalInt>:
  /* Set winterruptmask variable */
  winterruptmask = USB_CNTR_CTRM  | USB_CNTR_WKUPM | USB_CNTR_SUSPM | USB_CNTR_ERRM \
    | USB_CNTR_ESOFM | USB_CNTR_RESETM;
  
  /* Clear interrupt mask */
  USBx->CNTR &= ~winterruptmask;
 800157e:	f8b0 3040 	ldrh.w	r3, [r0, #64]	; 0x40
 8001582:	f423 5374 	bic.w	r3, r3, #15616	; 0x3d00
 8001586:	045b      	lsls	r3, r3, #17
 8001588:	0c5b      	lsrs	r3, r3, #17
 800158a:	f8a0 3040 	strh.w	r3, [r0, #64]	; 0x40
  
  return HAL_OK;
}
 800158e:	2000      	movs	r0, #0
 8001590:	4770      	bx	lr

08001592 <USB_SetCurrentMode>:
  /* NOTE : - This function is not required by USB Device FS peripheral, it is used 
              only by USB OTG FS peripheral.
            - This function is added to ensure compatibility across platforms.
   */
  return HAL_OK;
}
 8001592:	2000      	movs	r0, #0
 8001594:	4770      	bx	lr

08001596 <USB_DevInit>:
  * @param  cfg  : pointer to a USB_CfgTypeDef structure that contains
  *         the configuration information for the specified USBx peripheral.
  * @retval HAL status
  */
HAL_StatusTypeDef USB_DevInit (USB_TypeDef *USBx, USB_CfgTypeDef cfg)
{
 8001596:	b084      	sub	sp, #16
 8001598:	b510      	push	{r4, lr}
 800159a:	ac03      	add	r4, sp, #12
 800159c:	e884 000e 	stmia.w	r4, {r1, r2, r3}
  
  /* Enable USB Device Interrupt mask */
  USB_EnableGlobalInt(USBx);
    
  return HAL_OK;
}
 80015a0:	e8bd 4010 	ldmia.w	sp!, {r4, lr}
  USBx->CNTR = 0;
 80015a4:	2200      	movs	r2, #0
  USBx->CNTR = USB_CNTR_FRES;
 80015a6:	2301      	movs	r3, #1
 80015a8:	f8a0 3040 	strh.w	r3, [r0, #64]	; 0x40
  USBx->CNTR = 0;
 80015ac:	f8a0 2040 	strh.w	r2, [r0, #64]	; 0x40
  USBx->ISTR = 0;
 80015b0:	f8a0 2044 	strh.w	r2, [r0, #68]	; 0x44
  USBx->BTABLE = BTABLE_ADDRESS;
 80015b4:	f8a0 2050 	strh.w	r2, [r0, #80]	; 0x50
  USBx->CNTR |= winterruptmask;
 80015b8:	f8b0 3040 	ldrh.w	r3, [r0, #64]	; 0x40
}
 80015bc:	b004      	add	sp, #16
  USBx->CNTR |= winterruptmask;
 80015be:	b29b      	uxth	r3, r3
 80015c0:	f443 433f 	orr.w	r3, r3, #48896	; 0xbf00
 80015c4:	f8a0 3040 	strh.w	r3, [r0, #64]	; 0x40
}
 80015c8:	4610      	mov	r0, r2
 80015ca:	4770      	bx	lr

080015cc <USB_ActivateEndpoint>:
  * @param  USBx : Selected device
  * @param  ep: pointer to endpoint structure
  * @retval HAL status
  */
HAL_StatusTypeDef USB_ActivateEndpoint(USB_TypeDef *USBx, USB_EPTypeDef *ep)
{
 80015cc:	b570      	push	{r4, r5, r6, lr}
  /* initialize Endpoint */
  switch (ep->type)
 80015ce:	78cb      	ldrb	r3, [r1, #3]
 80015d0:	780a      	ldrb	r2, [r1, #0]
 80015d2:	2b03      	cmp	r3, #3
 80015d4:	d80f      	bhi.n	80015f6 <USB_ActivateEndpoint+0x2a>
 80015d6:	e8df f003 	tbb	[pc, r3]
 80015da:	6402      	.short	0x6402
 80015dc:	5950      	.short	0x5950
  {
  case EP_TYPE_CTRL:
    PCD_SET_EPTYPE(USBx, ep->num, USB_EP_CONTROL);
 80015de:	f830 3022 	ldrh.w	r3, [r0, r2, lsl #2]
 80015e2:	f423 43ec 	bic.w	r3, r3, #30208	; 0x7600
 80015e6:	f023 0370 	bic.w	r3, r3, #112	; 0x70
 80015ea:	041b      	lsls	r3, r3, #16
 80015ec:	0c1b      	lsrs	r3, r3, #16
 80015ee:	f443 7300 	orr.w	r3, r3, #512	; 0x200
    break;
  case EP_TYPE_INTR:
    PCD_SET_EPTYPE(USBx, ep->num, USB_EP_INTERRUPT);
    break;
  case EP_TYPE_ISOC:
    PCD_SET_EPTYPE(USBx, ep->num, USB_EP_ISOCHRONOUS);
 80015f2:	f820 3022 	strh.w	r3, [r0, r2, lsl #2]
    break;
  default:
      break;
  } 
  
  PCD_SET_EP_ADDRESS(USBx, ep->num, ep->num);
 80015f6:	f640 730f 	movw	r3, #3855	; 0xf0f
 80015fa:	780c      	ldrb	r4, [r1, #0]
 80015fc:	f830 2024 	ldrh.w	r2, [r0, r4, lsl #2]
 8001600:	f444 4500 	orr.w	r5, r4, #32768	; 0x8000
 8001604:	f045 0580 	orr.w	r5, r5, #128	; 0x80
 8001608:	401a      	ands	r2, r3
 800160a:	432a      	orrs	r2, r5
 800160c:	f820 2024 	strh.w	r2, [r0, r4, lsl #2]
  
  if (ep->doublebuffer == 0) 
 8001610:	7a8a      	ldrb	r2, [r1, #10]
 8001612:	780d      	ldrb	r5, [r1, #0]
 8001614:	2a00      	cmp	r2, #0
 8001616:	f040 8097 	bne.w	8001748 <USB_ActivateEndpoint+0x17c>
  {
    if (ep->is_in)
 800161a:	784c      	ldrb	r4, [r1, #1]
 800161c:	888a      	ldrh	r2, [r1, #4]
 800161e:	2c00      	cmp	r4, #0
 8001620:	d04a      	beq.n	80016b8 <USB_ActivateEndpoint+0xec>
    {
      /*Set the endpoint Transmit buffer address */
      PCD_SET_EP_TX_ADDRESS(USBx, ep->num, ep->pmaadress);
 8001622:	f8b0 4050 	ldrh.w	r4, [r0, #80]	; 0x50
 8001626:	0852      	lsrs	r2, r2, #1
 8001628:	b2a4      	uxth	r4, r4
 800162a:	eb04 04c5 	add.w	r4, r4, r5, lsl #3
 800162e:	eb00 0444 	add.w	r4, r0, r4, lsl #1
 8001632:	0052      	lsls	r2, r2, #1
 8001634:	f8c4 2400 	str.w	r2, [r4, #1024]	; 0x400
      PCD_CLEAR_TX_DTOG(USBx, ep->num);
 8001638:	780c      	ldrb	r4, [r1, #0]
 800163a:	f830 2024 	ldrh.w	r2, [r0, r4, lsl #2]
 800163e:	0652      	lsls	r2, r2, #25
 8001640:	d508      	bpl.n	8001654 <USB_ActivateEndpoint+0x88>
 8001642:	f830 2024 	ldrh.w	r2, [r0, r4, lsl #2]
 8001646:	4013      	ands	r3, r2
 8001648:	f443 4300 	orr.w	r3, r3, #32768	; 0x8000
 800164c:	f043 03c0 	orr.w	r3, r3, #192	; 0xc0
 8001650:	f820 3024 	strh.w	r3, [r0, r4, lsl #2]
      /* Configure NAK status for the Endpoint*/
      PCD_SET_EP_TX_STATUS(USBx, ep->num, USB_EP_TX_NAK); 
 8001654:	780a      	ldrb	r2, [r1, #0]
 8001656:	f830 3022 	ldrh.w	r3, [r0, r2, lsl #2]
 800165a:	f423 43e0 	bic.w	r3, r3, #28672	; 0x7000
 800165e:	f023 0340 	bic.w	r3, r3, #64	; 0x40
 8001662:	041b      	lsls	r3, r3, #16
 8001664:	0c1b      	lsrs	r3, r3, #16
 8001666:	f083 0320 	eor.w	r3, r3, #32
      PCD_SET_EP_RX_ADDRESS(USBx, ep->num, ep->pmaadress);
      /*Set the endpoint Receive buffer counter*/
      PCD_SET_EP_RX_CNT(USBx, ep->num, ep->maxpacket);
      PCD_CLEAR_RX_DTOG(USBx, ep->num);
      /* Configure VALID status for the Endpoint*/
      PCD_SET_EP_RX_STATUS(USBx, ep->num, USB_EP_RX_VALID);
 800166a:	f443 4300 	orr.w	r3, r3, #32768	; 0x8000
 800166e:	f043 0380 	orr.w	r3, r3, #128	; 0x80
 8001672:	f820 3022 	strh.w	r3, [r0, r2, lsl #2]
      PCD_SET_EP_RX_STATUS(USBx, ep->num, USB_EP_RX_DIS);
    }
  }
  
  return HAL_OK;
}
 8001676:	2000      	movs	r0, #0
 8001678:	bd70      	pop	{r4, r5, r6, pc}
    PCD_SET_EPTYPE(USBx, ep->num, USB_EP_BULK);
 800167a:	f830 3022 	ldrh.w	r3, [r0, r2, lsl #2]
 800167e:	f423 43ec 	bic.w	r3, r3, #30208	; 0x7600
 8001682:	f023 0370 	bic.w	r3, r3, #112	; 0x70
 8001686:	041b      	lsls	r3, r3, #16
 8001688:	0c1b      	lsrs	r3, r3, #16
 800168a:	e7b2      	b.n	80015f2 <USB_ActivateEndpoint+0x26>
    PCD_SET_EPTYPE(USBx, ep->num, USB_EP_INTERRUPT);
 800168c:	f830 3022 	ldrh.w	r3, [r0, r2, lsl #2]
 8001690:	f423 43ec 	bic.w	r3, r3, #30208	; 0x7600
 8001694:	f023 0370 	bic.w	r3, r3, #112	; 0x70
 8001698:	041b      	lsls	r3, r3, #16
 800169a:	0c1b      	lsrs	r3, r3, #16
 800169c:	f443 63c0 	orr.w	r3, r3, #1536	; 0x600
 80016a0:	e7a7      	b.n	80015f2 <USB_ActivateEndpoint+0x26>
    PCD_SET_EPTYPE(USBx, ep->num, USB_EP_ISOCHRONOUS);
 80016a2:	f830 3022 	ldrh.w	r3, [r0, r2, lsl #2]
 80016a6:	f423 43ec 	bic.w	r3, r3, #30208	; 0x7600
 80016aa:	f023 0370 	bic.w	r3, r3, #112	; 0x70
 80016ae:	041b      	lsls	r3, r3, #16
 80016b0:	0c1b      	lsrs	r3, r3, #16
 80016b2:	f443 6380 	orr.w	r3, r3, #1024	; 0x400
 80016b6:	e79c      	b.n	80015f2 <USB_ActivateEndpoint+0x26>
      PCD_SET_EP_RX_ADDRESS(USBx, ep->num, ep->pmaadress);
 80016b8:	f8b0 3050 	ldrh.w	r3, [r0, #80]	; 0x50
 80016bc:	0852      	lsrs	r2, r2, #1
 80016be:	b29b      	uxth	r3, r3
 80016c0:	3304      	adds	r3, #4
 80016c2:	eb03 03c5 	add.w	r3, r3, r5, lsl #3
 80016c6:	0052      	lsls	r2, r2, #1
 80016c8:	f500 6480 	add.w	r4, r0, #1024	; 0x400
 80016cc:	f844 2013 	str.w	r2, [r4, r3, lsl #1]
      PCD_SET_EP_RX_CNT(USBx, ep->num, ep->maxpacket);
 80016d0:	f8b0 2050 	ldrh.w	r2, [r0, #80]	; 0x50
 80016d4:	690d      	ldr	r5, [r1, #16]
 80016d6:	b292      	uxth	r2, r2
 80016d8:	780b      	ldrb	r3, [r1, #0]
 80016da:	3206      	adds	r2, #6
 80016dc:	2d3e      	cmp	r5, #62	; 0x3e
 80016de:	eb02 02c3 	add.w	r2, r2, r3, lsl #3
 80016e2:	d929      	bls.n	8001738 <USB_ActivateEndpoint+0x16c>
 80016e4:	f3c5 164f 	ubfx	r6, r5, #5, #16
 80016e8:	06eb      	lsls	r3, r5, #27
 80016ea:	bf04      	itt	eq
 80016ec:	f106 33ff 	addeq.w	r3, r6, #4294967295
 80016f0:	b29e      	uxtheq	r6, r3
 80016f2:	4b6e      	ldr	r3, [pc, #440]	; (80018ac <USB_ActivateEndpoint+0x2e0>)
 80016f4:	ea43 2386 	orr.w	r3, r3, r6, lsl #10
 80016f8:	b29b      	uxth	r3, r3
 80016fa:	f844 3012 	str.w	r3, [r4, r2, lsl #1]
      PCD_CLEAR_RX_DTOG(USBx, ep->num);
 80016fe:	780a      	ldrb	r2, [r1, #0]
 8001700:	f830 3022 	ldrh.w	r3, [r0, r2, lsl #2]
 8001704:	045e      	lsls	r6, r3, #17
 8001706:	d50b      	bpl.n	8001720 <USB_ActivateEndpoint+0x154>
 8001708:	f830 3022 	ldrh.w	r3, [r0, r2, lsl #2]
 800170c:	f023 03f0 	bic.w	r3, r3, #240	; 0xf0
 8001710:	051b      	lsls	r3, r3, #20
 8001712:	0d1b      	lsrs	r3, r3, #20
 8001714:	f443 4340 	orr.w	r3, r3, #49152	; 0xc000
 8001718:	f043 0380 	orr.w	r3, r3, #128	; 0x80
 800171c:	f820 3022 	strh.w	r3, [r0, r2, lsl #2]
      PCD_SET_EP_RX_STATUS(USBx, ep->num, USB_EP_RX_VALID);
 8001720:	780a      	ldrb	r2, [r1, #0]
 8001722:	f830 3022 	ldrh.w	r3, [r0, r2, lsl #2]
 8001726:	f423 4380 	bic.w	r3, r3, #16384	; 0x4000
 800172a:	f023 0370 	bic.w	r3, r3, #112	; 0x70
 800172e:	041b      	lsls	r3, r3, #16
 8001730:	0c1b      	lsrs	r3, r3, #16
 8001732:	f483 5340 	eor.w	r3, r3, #12288	; 0x3000
 8001736:	e798      	b.n	800166a <USB_ActivateEndpoint+0x9e>
      PCD_SET_EP_RX_CNT(USBx, ep->num, ep->maxpacket);
 8001738:	f3c5 034f 	ubfx	r3, r5, #1, #16
 800173c:	07ed      	lsls	r5, r5, #31
 800173e:	bf44      	itt	mi
 8001740:	3301      	addmi	r3, #1
 8001742:	b29b      	uxthmi	r3, r3
 8001744:	029b      	lsls	r3, r3, #10
 8001746:	e7d7      	b.n	80016f8 <USB_ActivateEndpoint+0x12c>
    PCD_SET_EP_DBUF(USBx, ep->num);
 8001748:	f830 2025 	ldrh.w	r2, [r0, r5, lsl #2]
 800174c:	f422 72f8 	bic.w	r2, r2, #496	; 0x1f0
 8001750:	0512      	lsls	r2, r2, #20
 8001752:	0d12      	lsrs	r2, r2, #20
 8001754:	f442 4201 	orr.w	r2, r2, #33024	; 0x8100
 8001758:	f042 0280 	orr.w	r2, r2, #128	; 0x80
 800175c:	f820 2025 	strh.w	r2, [r0, r5, lsl #2]
    PCD_SET_EP_DBUF_ADDR(USBx, ep->num,ep->pmaaddr0, ep->pmaaddr1);
 8001760:	f8b0 2050 	ldrh.w	r2, [r0, #80]	; 0x50
 8001764:	780c      	ldrb	r4, [r1, #0]
 8001766:	b292      	uxth	r2, r2
 8001768:	eb02 02c4 	add.w	r2, r2, r4, lsl #3
 800176c:	88cc      	ldrh	r4, [r1, #6]
 800176e:	f500 6580 	add.w	r5, r0, #1024	; 0x400
 8001772:	0864      	lsrs	r4, r4, #1
 8001774:	0064      	lsls	r4, r4, #1
 8001776:	f845 4012 	str.w	r4, [r5, r2, lsl #1]
 800177a:	f8b0 2050 	ldrh.w	r2, [r0, #80]	; 0x50
 800177e:	780c      	ldrb	r4, [r1, #0]
 8001780:	b292      	uxth	r2, r2
 8001782:	3204      	adds	r2, #4
 8001784:	eb02 02c4 	add.w	r2, r2, r4, lsl #3
 8001788:	890c      	ldrh	r4, [r1, #8]
 800178a:	0864      	lsrs	r4, r4, #1
 800178c:	0064      	lsls	r4, r4, #1
 800178e:	f845 4012 	str.w	r4, [r5, r2, lsl #1]
    if (ep->is_in==0)
 8001792:	784a      	ldrb	r2, [r1, #1]
 8001794:	780c      	ldrb	r4, [r1, #0]
 8001796:	2a00      	cmp	r2, #0
 8001798:	d147      	bne.n	800182a <USB_ActivateEndpoint+0x25e>
      PCD_CLEAR_RX_DTOG(USBx, ep->num);
 800179a:	f830 2024 	ldrh.w	r2, [r0, r4, lsl #2]
 800179e:	0455      	lsls	r5, r2, #17
 80017a0:	d508      	bpl.n	80017b4 <USB_ActivateEndpoint+0x1e8>
 80017a2:	f830 2024 	ldrh.w	r2, [r0, r4, lsl #2]
 80017a6:	4013      	ands	r3, r2
 80017a8:	f443 4340 	orr.w	r3, r3, #49152	; 0xc000
 80017ac:	f043 0380 	orr.w	r3, r3, #128	; 0x80
 80017b0:	f820 3024 	strh.w	r3, [r0, r4, lsl #2]
      PCD_CLEAR_TX_DTOG(USBx, ep->num);
 80017b4:	780a      	ldrb	r2, [r1, #0]
 80017b6:	f830 3022 	ldrh.w	r3, [r0, r2, lsl #2]
 80017ba:	065c      	lsls	r4, r3, #25
 80017bc:	d50b      	bpl.n	80017d6 <USB_ActivateEndpoint+0x20a>
 80017be:	f830 3022 	ldrh.w	r3, [r0, r2, lsl #2]
 80017c2:	f023 03f0 	bic.w	r3, r3, #240	; 0xf0
 80017c6:	051b      	lsls	r3, r3, #20
 80017c8:	0d1b      	lsrs	r3, r3, #20
 80017ca:	f443 4300 	orr.w	r3, r3, #32768	; 0x8000
 80017ce:	f043 03c0 	orr.w	r3, r3, #192	; 0xc0
 80017d2:	f820 3022 	strh.w	r3, [r0, r2, lsl #2]
      PCD_TX_DTOG(USBx, ep->num);
 80017d6:	780a      	ldrb	r2, [r1, #0]
 80017d8:	f830 3022 	ldrh.w	r3, [r0, r2, lsl #2]
 80017dc:	f023 03f0 	bic.w	r3, r3, #240	; 0xf0
 80017e0:	051b      	lsls	r3, r3, #20
 80017e2:	0d1b      	lsrs	r3, r3, #20
 80017e4:	f443 4300 	orr.w	r3, r3, #32768	; 0x8000
 80017e8:	f043 03c0 	orr.w	r3, r3, #192	; 0xc0
 80017ec:	f820 3022 	strh.w	r3, [r0, r2, lsl #2]
      PCD_SET_EP_RX_STATUS(USBx, ep->num, USB_EP_RX_VALID);
 80017f0:	f248 0280 	movw	r2, #32896	; 0x8080
 80017f4:	780c      	ldrb	r4, [r1, #0]
 80017f6:	f830 3024 	ldrh.w	r3, [r0, r4, lsl #2]
 80017fa:	f423 4380 	bic.w	r3, r3, #16384	; 0x4000
 80017fe:	f023 0370 	bic.w	r3, r3, #112	; 0x70
 8001802:	041b      	lsls	r3, r3, #16
 8001804:	0c1b      	lsrs	r3, r3, #16
 8001806:	f483 5340 	eor.w	r3, r3, #12288	; 0x3000
 800180a:	4313      	orrs	r3, r2
 800180c:	f820 3024 	strh.w	r3, [r0, r4, lsl #2]
      PCD_SET_EP_TX_STATUS(USBx, ep->num, USB_EP_TX_DIS);
 8001810:	7809      	ldrb	r1, [r1, #0]
 8001812:	f830 3021 	ldrh.w	r3, [r0, r1, lsl #2]
 8001816:	f423 43e0 	bic.w	r3, r3, #28672	; 0x7000
 800181a:	f023 0340 	bic.w	r3, r3, #64	; 0x40
      PCD_SET_EP_RX_STATUS(USBx, ep->num, USB_EP_RX_DIS);
 800181e:	041b      	lsls	r3, r3, #16
 8001820:	0c1b      	lsrs	r3, r3, #16
 8001822:	4313      	orrs	r3, r2
 8001824:	f820 3021 	strh.w	r3, [r0, r1, lsl #2]
 8001828:	e725      	b.n	8001676 <USB_ActivateEndpoint+0xaa>
      PCD_CLEAR_RX_DTOG(USBx, ep->num);
 800182a:	f830 2024 	ldrh.w	r2, [r0, r4, lsl #2]
 800182e:	0452      	lsls	r2, r2, #17
 8001830:	d508      	bpl.n	8001844 <USB_ActivateEndpoint+0x278>
 8001832:	f830 2024 	ldrh.w	r2, [r0, r4, lsl #2]
 8001836:	4013      	ands	r3, r2
 8001838:	f443 4340 	orr.w	r3, r3, #49152	; 0xc000
 800183c:	f043 0380 	orr.w	r3, r3, #128	; 0x80
 8001840:	f820 3024 	strh.w	r3, [r0, r4, lsl #2]
      PCD_CLEAR_TX_DTOG(USBx, ep->num);
 8001844:	780a      	ldrb	r2, [r1, #0]
 8001846:	f830 3022 	ldrh.w	r3, [r0, r2, lsl #2]
 800184a:	065b      	lsls	r3, r3, #25
 800184c:	d50b      	bpl.n	8001866 <USB_ActivateEndpoint+0x29a>
 800184e:	f830 3022 	ldrh.w	r3, [r0, r2, lsl #2]
 8001852:	f023 03f0 	bic.w	r3, r3, #240	; 0xf0
 8001856:	051b      	lsls	r3, r3, #20
 8001858:	0d1b      	lsrs	r3, r3, #20
 800185a:	f443 4300 	orr.w	r3, r3, #32768	; 0x8000
 800185e:	f043 03c0 	orr.w	r3, r3, #192	; 0xc0
 8001862:	f820 3022 	strh.w	r3, [r0, r2, lsl #2]
      PCD_RX_DTOG(USBx, ep->num);
 8001866:	780a      	ldrb	r2, [r1, #0]
 8001868:	f830 3022 	ldrh.w	r3, [r0, r2, lsl #2]
 800186c:	f023 03f0 	bic.w	r3, r3, #240	; 0xf0
 8001870:	051b      	lsls	r3, r3, #20
 8001872:	0d1b      	lsrs	r3, r3, #20
 8001874:	f443 4340 	orr.w	r3, r3, #49152	; 0xc000
 8001878:	f043 0380 	orr.w	r3, r3, #128	; 0x80
 800187c:	f820 3022 	strh.w	r3, [r0, r2, lsl #2]
      PCD_SET_EP_TX_STATUS(USBx, ep->num, USB_EP_TX_DIS);
 8001880:	f248 0280 	movw	r2, #32896	; 0x8080
 8001884:	780c      	ldrb	r4, [r1, #0]
 8001886:	f830 3024 	ldrh.w	r3, [r0, r4, lsl #2]
 800188a:	f423 43e0 	bic.w	r3, r3, #28672	; 0x7000
 800188e:	f023 0340 	bic.w	r3, r3, #64	; 0x40
 8001892:	041b      	lsls	r3, r3, #16
 8001894:	0c1b      	lsrs	r3, r3, #16
 8001896:	4313      	orrs	r3, r2
 8001898:	f820 3024 	strh.w	r3, [r0, r4, lsl #2]
      PCD_SET_EP_RX_STATUS(USBx, ep->num, USB_EP_RX_DIS);
 800189c:	7809      	ldrb	r1, [r1, #0]
 800189e:	f830 3021 	ldrh.w	r3, [r0, r1, lsl #2]
 80018a2:	f423 4380 	bic.w	r3, r3, #16384	; 0x4000
 80018a6:	f023 0370 	bic.w	r3, r3, #112	; 0x70
 80018aa:	e7b8      	b.n	800181e <USB_ActivateEndpoint+0x252>
 80018ac:	ffff8000 	.word	0xffff8000

080018b0 <USB_DeactivateEndpoint>:
  * @param  USBx : Selected device
  * @param  ep: pointer to endpoint structure
  * @retval HAL status
  */
HAL_StatusTypeDef USB_DeactivateEndpoint(USB_TypeDef *USBx, USB_EPTypeDef *ep)
{
 80018b0:	b510      	push	{r4, lr}
  if (ep->doublebuffer == 0) 
 80018b2:	7a8c      	ldrb	r4, [r1, #10]
 80018b4:	784a      	ldrb	r2, [r1, #1]
 80018b6:	780b      	ldrb	r3, [r1, #0]
 80018b8:	bbcc      	cbnz	r4, 800192e <USB_DeactivateEndpoint+0x7e>
  {
    if (ep->is_in)
 80018ba:	b302      	cbz	r2, 80018fe <USB_DeactivateEndpoint+0x4e>
    {
      PCD_CLEAR_TX_DTOG(USBx, ep->num);
 80018bc:	f830 2023 	ldrh.w	r2, [r0, r3, lsl #2]
 80018c0:	0652      	lsls	r2, r2, #25
 80018c2:	d50b      	bpl.n	80018dc <USB_DeactivateEndpoint+0x2c>
 80018c4:	f830 2023 	ldrh.w	r2, [r0, r3, lsl #2]
 80018c8:	f022 02f0 	bic.w	r2, r2, #240	; 0xf0
 80018cc:	0512      	lsls	r2, r2, #20
 80018ce:	0d12      	lsrs	r2, r2, #20
 80018d0:	f442 4200 	orr.w	r2, r2, #32768	; 0x8000
 80018d4:	f042 02c0 	orr.w	r2, r2, #192	; 0xc0
 80018d8:	f820 2023 	strh.w	r2, [r0, r3, lsl #2]
      /* Configure DISABLE status for the Endpoint*/
      PCD_SET_EP_TX_STATUS(USBx, ep->num, USB_EP_TX_DIS); 
 80018dc:	780a      	ldrb	r2, [r1, #0]
 80018de:	f830 3022 	ldrh.w	r3, [r0, r2, lsl #2]
 80018e2:	f423 43e0 	bic.w	r3, r3, #28672	; 0x7000
 80018e6:	f023 0340 	bic.w	r3, r3, #64	; 0x40
    }
    else
    {
      PCD_CLEAR_RX_DTOG(USBx, ep->num);
      /* Configure DISABLE status for the Endpoint*/
      PCD_SET_EP_RX_STATUS(USBx, ep->num, USB_EP_RX_DIS);
 80018ea:	041b      	lsls	r3, r3, #16
 80018ec:	0c1b      	lsrs	r3, r3, #16
 80018ee:	f443 4300 	orr.w	r3, r3, #32768	; 0x8000
 80018f2:	f043 0380 	orr.w	r3, r3, #128	; 0x80
 80018f6:	f820 3022 	strh.w	r3, [r0, r2, lsl #2]
      PCD_SET_EP_RX_STATUS(USBx, ep->num, USB_EP_RX_DIS);
    }
  }
  
  return HAL_OK;
}
 80018fa:	2000      	movs	r0, #0
 80018fc:	bd10      	pop	{r4, pc}
      PCD_CLEAR_RX_DTOG(USBx, ep->num);
 80018fe:	f830 2023 	ldrh.w	r2, [r0, r3, lsl #2]
 8001902:	0454      	lsls	r4, r2, #17
 8001904:	d50b      	bpl.n	800191e <USB_DeactivateEndpoint+0x6e>
 8001906:	f830 2023 	ldrh.w	r2, [r0, r3, lsl #2]
 800190a:	f022 02f0 	bic.w	r2, r2, #240	; 0xf0
 800190e:	0512      	lsls	r2, r2, #20
 8001910:	0d12      	lsrs	r2, r2, #20
 8001912:	f442 4240 	orr.w	r2, r2, #49152	; 0xc000
 8001916:	f042 0280 	orr.w	r2, r2, #128	; 0x80
 800191a:	f820 2023 	strh.w	r2, [r0, r3, lsl #2]
      PCD_SET_EP_RX_STATUS(USBx, ep->num, USB_EP_RX_DIS);
 800191e:	780a      	ldrb	r2, [r1, #0]
 8001920:	f830 3022 	ldrh.w	r3, [r0, r2, lsl #2]
 8001924:	f423 4380 	bic.w	r3, r3, #16384	; 0x4000
 8001928:	f023 0370 	bic.w	r3, r3, #112	; 0x70
 800192c:	e7dd      	b.n	80018ea <USB_DeactivateEndpoint+0x3a>
    if (ep->is_in==0)
 800192e:	2a00      	cmp	r2, #0
 8001930:	d148      	bne.n	80019c4 <USB_DeactivateEndpoint+0x114>
      PCD_CLEAR_RX_DTOG(USBx, ep->num);
 8001932:	f830 2023 	ldrh.w	r2, [r0, r3, lsl #2]
 8001936:	0452      	lsls	r2, r2, #17
 8001938:	d50b      	bpl.n	8001952 <USB_DeactivateEndpoint+0xa2>
 800193a:	f830 2023 	ldrh.w	r2, [r0, r3, lsl #2]
 800193e:	f022 02f0 	bic.w	r2, r2, #240	; 0xf0
 8001942:	0512      	lsls	r2, r2, #20
 8001944:	0d12      	lsrs	r2, r2, #20
 8001946:	f442 4240 	orr.w	r2, r2, #49152	; 0xc000
 800194a:	f042 0280 	orr.w	r2, r2, #128	; 0x80
 800194e:	f820 2023 	strh.w	r2, [r0, r3, lsl #2]
      PCD_CLEAR_TX_DTOG(USBx, ep->num);
 8001952:	780a      	ldrb	r2, [r1, #0]
 8001954:	f830 3022 	ldrh.w	r3, [r0, r2, lsl #2]
 8001958:	065c      	lsls	r4, r3, #25
 800195a:	d50b      	bpl.n	8001974 <USB_DeactivateEndpoint+0xc4>
 800195c:	f830 3022 	ldrh.w	r3, [r0, r2, lsl #2]
 8001960:	f023 03f0 	bic.w	r3, r3, #240	; 0xf0
 8001964:	051b      	lsls	r3, r3, #20
 8001966:	0d1b      	lsrs	r3, r3, #20
 8001968:	f443 4300 	orr.w	r3, r3, #32768	; 0x8000
 800196c:	f043 03c0 	orr.w	r3, r3, #192	; 0xc0
 8001970:	f820 3022 	strh.w	r3, [r0, r2, lsl #2]
      PCD_TX_DTOG(USBx, ep->num);
 8001974:	780a      	ldrb	r2, [r1, #0]
 8001976:	f830 3022 	ldrh.w	r3, [r0, r2, lsl #2]
 800197a:	f023 03f0 	bic.w	r3, r3, #240	; 0xf0
 800197e:	051b      	lsls	r3, r3, #20
 8001980:	0d1b      	lsrs	r3, r3, #20
 8001982:	f443 4300 	orr.w	r3, r3, #32768	; 0x8000
 8001986:	f043 03c0 	orr.w	r3, r3, #192	; 0xc0
 800198a:	f820 3022 	strh.w	r3, [r0, r2, lsl #2]
      PCD_SET_EP_RX_STATUS(USBx, ep->num, USB_EP_RX_DIS);
 800198e:	f248 0280 	movw	r2, #32896	; 0x8080
 8001992:	780c      	ldrb	r4, [r1, #0]
 8001994:	f830 3024 	ldrh.w	r3, [r0, r4, lsl #2]
 8001998:	f423 4380 	bic.w	r3, r3, #16384	; 0x4000
 800199c:	f023 0370 	bic.w	r3, r3, #112	; 0x70
 80019a0:	041b      	lsls	r3, r3, #16
 80019a2:	0c1b      	lsrs	r3, r3, #16
 80019a4:	4313      	orrs	r3, r2
 80019a6:	f820 3024 	strh.w	r3, [r0, r4, lsl #2]
      PCD_SET_EP_TX_STATUS(USBx, ep->num, USB_EP_TX_DIS);
 80019aa:	7809      	ldrb	r1, [r1, #0]
 80019ac:	f830 3021 	ldrh.w	r3, [r0, r1, lsl #2]
 80019b0:	f423 43e0 	bic.w	r3, r3, #28672	; 0x7000
 80019b4:	f023 0340 	bic.w	r3, r3, #64	; 0x40
      PCD_SET_EP_RX_STATUS(USBx, ep->num, USB_EP_RX_DIS);
 80019b8:	041b      	lsls	r3, r3, #16
 80019ba:	0c1b      	lsrs	r3, r3, #16
 80019bc:	4313      	orrs	r3, r2
 80019be:	f820 3021 	strh.w	r3, [r0, r1, lsl #2]
 80019c2:	e79a      	b.n	80018fa <USB_DeactivateEndpoint+0x4a>
      PCD_CLEAR_RX_DTOG(USBx, ep->num);
 80019c4:	f830 2023 	ldrh.w	r2, [r0, r3, lsl #2]
 80019c8:	0452      	lsls	r2, r2, #17
 80019ca:	d50b      	bpl.n	80019e4 <USB_DeactivateEndpoint+0x134>
 80019cc:	f830 2023 	ldrh.w	r2, [r0, r3, lsl #2]
 80019d0:	f022 02f0 	bic.w	r2, r2, #240	; 0xf0
 80019d4:	0512      	lsls	r2, r2, #20
 80019d6:	0d12      	lsrs	r2, r2, #20
 80019d8:	f442 4240 	orr.w	r2, r2, #49152	; 0xc000
 80019dc:	f042 0280 	orr.w	r2, r2, #128	; 0x80
 80019e0:	f820 2023 	strh.w	r2, [r0, r3, lsl #2]
      PCD_CLEAR_TX_DTOG(USBx, ep->num);
 80019e4:	780a      	ldrb	r2, [r1, #0]
 80019e6:	f830 3022 	ldrh.w	r3, [r0, r2, lsl #2]
 80019ea:	065b      	lsls	r3, r3, #25
 80019ec:	d50b      	bpl.n	8001a06 <USB_DeactivateEndpoint+0x156>
 80019ee:	f830 3022 	ldrh.w	r3, [r0, r2, lsl #2]
 80019f2:	f023 03f0 	bic.w	r3, r3, #240	; 0xf0
 80019f6:	051b      	lsls	r3, r3, #20
 80019f8:	0d1b      	lsrs	r3, r3, #20
 80019fa:	f443 4300 	orr.w	r3, r3, #32768	; 0x8000
 80019fe:	f043 03c0 	orr.w	r3, r3, #192	; 0xc0
 8001a02:	f820 3022 	strh.w	r3, [r0, r2, lsl #2]
      PCD_RX_DTOG(USBx, ep->num);
 8001a06:	780a      	ldrb	r2, [r1, #0]
 8001a08:	f830 3022 	ldrh.w	r3, [r0, r2, lsl #2]
 8001a0c:	f023 03f0 	bic.w	r3, r3, #240	; 0xf0
 8001a10:	051b      	lsls	r3, r3, #20
 8001a12:	0d1b      	lsrs	r3, r3, #20
 8001a14:	f443 4340 	orr.w	r3, r3, #49152	; 0xc000
 8001a18:	f043 0380 	orr.w	r3, r3, #128	; 0x80
 8001a1c:	f820 3022 	strh.w	r3, [r0, r2, lsl #2]
      PCD_SET_EP_TX_STATUS(USBx, ep->num, USB_EP_TX_DIS);
 8001a20:	f248 0280 	movw	r2, #32896	; 0x8080
 8001a24:	780c      	ldrb	r4, [r1, #0]
 8001a26:	f830 3024 	ldrh.w	r3, [r0, r4, lsl #2]
 8001a2a:	f423 43e0 	bic.w	r3, r3, #28672	; 0x7000
 8001a2e:	f023 0340 	bic.w	r3, r3, #64	; 0x40
 8001a32:	041b      	lsls	r3, r3, #16
 8001a34:	0c1b      	lsrs	r3, r3, #16
 8001a36:	4313      	orrs	r3, r2
 8001a38:	f820 3024 	strh.w	r3, [r0, r4, lsl #2]
      PCD_SET_EP_RX_STATUS(USBx, ep->num, USB_EP_RX_DIS);
 8001a3c:	7809      	ldrb	r1, [r1, #0]
 8001a3e:	f830 3021 	ldrh.w	r3, [r0, r1, lsl #2]
 8001a42:	f423 4380 	bic.w	r3, r3, #16384	; 0x4000
 8001a46:	f023 0370 	bic.w	r3, r3, #112	; 0x70
 8001a4a:	e7b5      	b.n	80019b8 <USB_DeactivateEndpoint+0x108>

08001a4c <USB_EPSetStall>:
  * @param  ep: pointer to endpoint structure   
  * @retval HAL status
  */
HAL_StatusTypeDef USB_EPSetStall(USB_TypeDef *USBx , USB_EPTypeDef *ep)
{
  if (ep->num == 0)
 8001a4c:	780a      	ldrb	r2, [r1, #0]
 8001a4e:	b98a      	cbnz	r2, 8001a74 <USB_EPSetStall+0x28>
  {
    /* This macro sets STALL status for RX & TX*/ 
    PCD_SET_EP_TXRX_STATUS(USBx, ep->num, USB_EP_RX_STALL, USB_EP_TX_STALL); 
 8001a50:	8803      	ldrh	r3, [r0, #0]
 8001a52:	f423 4380 	bic.w	r3, r3, #16384	; 0x4000
 8001a56:	f023 0340 	bic.w	r3, r3, #64	; 0x40
 8001a5a:	041b      	lsls	r3, r3, #16
 8001a5c:	0c1b      	lsrs	r3, r3, #16
 8001a5e:	f483 5380 	eor.w	r3, r3, #4096	; 0x1000
 8001a62:	f083 0310 	eor.w	r3, r3, #16
 8001a66:	f443 4300 	orr.w	r3, r3, #32768	; 0x8000
 8001a6a:	f043 0380 	orr.w	r3, r3, #128	; 0x80
 8001a6e:	8003      	strh	r3, [r0, #0]
    {
      PCD_SET_EP_RX_STATUS(USBx, ep->num , USB_EP_RX_STALL);
    }
  }
  return HAL_OK;
}
 8001a70:	2000      	movs	r0, #0
 8001a72:	4770      	bx	lr
    if (ep->is_in)
 8001a74:	784b      	ldrb	r3, [r1, #1]
 8001a76:	b183      	cbz	r3, 8001a9a <USB_EPSetStall+0x4e>
      PCD_SET_EP_TX_STATUS(USBx, ep->num , USB_EP_TX_STALL); 
 8001a78:	f830 3022 	ldrh.w	r3, [r0, r2, lsl #2]
 8001a7c:	f423 43e0 	bic.w	r3, r3, #28672	; 0x7000
 8001a80:	f023 0340 	bic.w	r3, r3, #64	; 0x40
 8001a84:	041b      	lsls	r3, r3, #16
 8001a86:	0c1b      	lsrs	r3, r3, #16
 8001a88:	f083 0310 	eor.w	r3, r3, #16
      PCD_SET_EP_RX_STATUS(USBx, ep->num , USB_EP_RX_STALL);
 8001a8c:	f443 4300 	orr.w	r3, r3, #32768	; 0x8000
 8001a90:	f043 0380 	orr.w	r3, r3, #128	; 0x80
 8001a94:	f820 3022 	strh.w	r3, [r0, r2, lsl #2]
 8001a98:	e7ea      	b.n	8001a70 <USB_EPSetStall+0x24>
 8001a9a:	f830 3022 	ldrh.w	r3, [r0, r2, lsl #2]
 8001a9e:	f423 4380 	bic.w	r3, r3, #16384	; 0x4000
 8001aa2:	f023 0370 	bic.w	r3, r3, #112	; 0x70
 8001aa6:	041b      	lsls	r3, r3, #16
 8001aa8:	0c1b      	lsrs	r3, r3, #16
 8001aaa:	f483 5380 	eor.w	r3, r3, #4096	; 0x1000
 8001aae:	e7ed      	b.n	8001a8c <USB_EPSetStall+0x40>

08001ab0 <USB_EPClearStall>:
  * @param  ep: pointer to endpoint structure
  * @retval HAL status
  */
HAL_StatusTypeDef USB_EPClearStall(USB_TypeDef *USBx, USB_EPTypeDef *ep)
{
  if (ep->is_in)
 8001ab0:	784b      	ldrb	r3, [r1, #1]
 8001ab2:	780a      	ldrb	r2, [r1, #0]
 8001ab4:	b313      	cbz	r3, 8001afc <USB_EPClearStall+0x4c>
  {
    PCD_CLEAR_TX_DTOG(USBx, ep->num);
 8001ab6:	f830 3022 	ldrh.w	r3, [r0, r2, lsl #2]
 8001aba:	065b      	lsls	r3, r3, #25
 8001abc:	d50b      	bpl.n	8001ad6 <USB_EPClearStall+0x26>
 8001abe:	f830 3022 	ldrh.w	r3, [r0, r2, lsl #2]
 8001ac2:	f023 03f0 	bic.w	r3, r3, #240	; 0xf0
 8001ac6:	051b      	lsls	r3, r3, #20
 8001ac8:	0d1b      	lsrs	r3, r3, #20
 8001aca:	f443 4300 	orr.w	r3, r3, #32768	; 0x8000
 8001ace:	f043 03c0 	orr.w	r3, r3, #192	; 0xc0
 8001ad2:	f820 3022 	strh.w	r3, [r0, r2, lsl #2]
    PCD_SET_EP_TX_STATUS(USBx, ep->num, USB_EP_TX_VALID);
 8001ad6:	780a      	ldrb	r2, [r1, #0]
 8001ad8:	f830 3022 	ldrh.w	r3, [r0, r2, lsl #2]
 8001adc:	f423 43e0 	bic.w	r3, r3, #28672	; 0x7000
 8001ae0:	f023 0340 	bic.w	r3, r3, #64	; 0x40
 8001ae4:	041b      	lsls	r3, r3, #16
 8001ae6:	0c1b      	lsrs	r3, r3, #16
 8001ae8:	f083 0330 	eor.w	r3, r3, #48	; 0x30
  }
  else
  {
    PCD_CLEAR_RX_DTOG(USBx, ep->num);
    PCD_SET_EP_RX_STATUS(USBx, ep->num, USB_EP_RX_VALID);
 8001aec:	f443 4300 	orr.w	r3, r3, #32768	; 0x8000
 8001af0:	f043 0380 	orr.w	r3, r3, #128	; 0x80
 8001af4:	f820 3022 	strh.w	r3, [r0, r2, lsl #2]
  }
  return HAL_OK;
}
 8001af8:	2000      	movs	r0, #0
 8001afa:	4770      	bx	lr
    PCD_CLEAR_RX_DTOG(USBx, ep->num);
 8001afc:	f830 3022 	ldrh.w	r3, [r0, r2, lsl #2]
 8001b00:	045b      	lsls	r3, r3, #17
 8001b02:	d50b      	bpl.n	8001b1c <USB_EPClearStall+0x6c>
 8001b04:	f830 3022 	ldrh.w	r3, [r0, r2, lsl #2]
 8001b08:	f023 03f0 	bic.w	r3, r3, #240	; 0xf0
 8001b0c:	051b      	lsls	r3, r3, #20
 8001b0e:	0d1b      	lsrs	r3, r3, #20
 8001b10:	f443 4340 	orr.w	r3, r3, #49152	; 0xc000
 8001b14:	f043 0380 	orr.w	r3, r3, #128	; 0x80
 8001b18:	f820 3022 	strh.w	r3, [r0, r2, lsl #2]
    PCD_SET_EP_RX_STATUS(USBx, ep->num, USB_EP_RX_VALID);
 8001b1c:	780a      	ldrb	r2, [r1, #0]
 8001b1e:	f830 3022 	ldrh.w	r3, [r0, r2, lsl #2]
 8001b22:	f423 4380 	bic.w	r3, r3, #16384	; 0x4000
 8001b26:	f023 0370 	bic.w	r3, r3, #112	; 0x70
 8001b2a:	041b      	lsls	r3, r3, #16
 8001b2c:	0c1b      	lsrs	r3, r3, #16
 8001b2e:	f483 5340 	eor.w	r3, r3, #12288	; 0x3000
 8001b32:	e7db      	b.n	8001aec <USB_EPClearStall+0x3c>

08001b34 <USB_SetDevAddress>:
  *          This parameter can be a value from 0 to 255
  * @retval HAL status
  */
HAL_StatusTypeDef  USB_SetDevAddress (USB_TypeDef *USBx, uint8_t address)
{
  if(address == 0) 
 8001b34:	b911      	cbnz	r1, 8001b3c <USB_SetDevAddress+0x8>
  {
   /* set device address and enable function */
   USBx->DADDR = USB_DADDR_EF;
 8001b36:	2380      	movs	r3, #128	; 0x80
 8001b38:	f8a0 304c 	strh.w	r3, [r0, #76]	; 0x4c
  }
  
  return HAL_OK;
}
 8001b3c:	2000      	movs	r0, #0
 8001b3e:	4770      	bx	lr

08001b40 <USB_DevConnect>:
 8001b40:	2000      	movs	r0, #0
 8001b42:	4770      	bx	lr

08001b44 <USB_DevDisconnect>:
  /* NOTE : - This function is not required by USB Device FS peripheral, it is used 
              only by USB OTG FS peripheral.
            - This function is added to ensure compatibility across platforms.
   */
  return HAL_OK;
}
 8001b44:	2000      	movs	r0, #0
 8001b46:	4770      	bx	lr

08001b48 <USB_ReadInterrupts>:
  */
uint32_t  USB_ReadInterrupts (USB_TypeDef *USBx)
{
  uint32_t tmpreg = 0;
  
  tmpreg = USBx->ISTR;
 8001b48:	f8b0 0044 	ldrh.w	r0, [r0, #68]	; 0x44
  return tmpreg;
}
 8001b4c:	b280      	uxth	r0, r0
 8001b4e:	4770      	bx	lr

08001b50 <USB_EP0_OutStart>:
  /* NOTE : - This function is not required by USB Device FS peripheral, it is used 
              only by USB OTG FS peripheral.
            - This function is added to ensure compatibility across platforms.
   */
  return HAL_OK;
}
 8001b50:	2000      	movs	r0, #0
 8001b52:	4770      	bx	lr

08001b54 <USB_WritePMA>:
  * @param  wPMABufAddr : address into PMA.
  * @param  wNBytes : number of bytes to be copied.
  * @retval None
  */
void USB_WritePMA(USB_TypeDef *USBx, uint8_t *pbUsrBuf, uint16_t wPMABufAddr, uint16_t wNBytes)
{
 8001b54:	b510      	push	{r4, lr}
  uint32_t nbytes = (wNBytes + 1) >> 1;   /* nbytes = (wNBytes + 1) / 2 */
  uint32_t index = 0, temp1 = 0, temp2 = 0;
  uint16_t *pdwVal = NULL;
  
  pdwVal = (uint16_t *)(wPMABufAddr * 2 + (uint32_t)USBx + 0x400);
  for (index = nbytes; index != 0; index--)
 8001b56:	2400      	movs	r4, #0
  uint32_t nbytes = (wNBytes + 1) >> 1;   /* nbytes = (wNBytes + 1) / 2 */
 8001b58:	3301      	adds	r3, #1
  pdwVal = (uint16_t *)(wPMABufAddr * 2 + (uint32_t)USBx + 0x400);
 8001b5a:	f500 6080 	add.w	r0, r0, #1024	; 0x400
  uint32_t nbytes = (wNBytes + 1) >> 1;   /* nbytes = (wNBytes + 1) / 2 */
 8001b5e:	105b      	asrs	r3, r3, #1
  pdwVal = (uint16_t *)(wPMABufAddr * 2 + (uint32_t)USBx + 0x400);
 8001b60:	eb00 0242 	add.w	r2, r0, r2, lsl #1
  for (index = nbytes; index != 0; index--)
 8001b64:	42a3      	cmp	r3, r4
 8001b66:	d100      	bne.n	8001b6a <USB_WritePMA+0x16>
    temp2 = temp1 | (uint16_t) * pbUsrBuf << 8;
    *pdwVal++ = temp2;
    pdwVal++;
    pbUsrBuf++;
  }
}
 8001b68:	bd10      	pop	{r4, pc}
 8001b6a:	f831 0b02 	ldrh.w	r0, [r1], #2
    *pdwVal++ = temp2;
 8001b6e:	f822 0024 	strh.w	r0, [r2, r4, lsl #2]
 8001b72:	3401      	adds	r4, #1
 8001b74:	e7f6      	b.n	8001b64 <USB_WritePMA+0x10>
	...

08001b78 <USB_EPStartXfer>:
{
 8001b78:	b570      	push	{r4, r5, r6, lr}
 8001b7a:	460e      	mov	r6, r1
  uint32_t len = ep->xfer_len;
 8001b7c:	698a      	ldr	r2, [r1, #24]
  if (ep->is_in == 1)
 8001b7e:	7849      	ldrb	r1, [r1, #1]
{
 8001b80:	4605      	mov	r5, r0
  if (ep->is_in == 1)
 8001b82:	2901      	cmp	r1, #1
 8001b84:	6933      	ldr	r3, [r6, #16]
 8001b86:	7ab0      	ldrb	r0, [r6, #10]
 8001b88:	d166      	bne.n	8001c58 <USB_EPStartXfer+0xe0>
    if (ep->xfer_len > ep->maxpacket)
 8001b8a:	429a      	cmp	r2, r3
 8001b8c:	461c      	mov	r4, r3
      ep->xfer_len =0;
 8001b8e:	bf9b      	ittet	ls
 8001b90:	2300      	movls	r3, #0
 8001b92:	4614      	movls	r4, r2
      ep->xfer_len-=len; 
 8001b94:	1ad2      	subhi	r2, r2, r3
      ep->xfer_len =0;
 8001b96:	61b3      	strls	r3, [r6, #24]
      ep->xfer_len-=len; 
 8001b98:	bf88      	it	hi
 8001b9a:	61b2      	strhi	r2, [r6, #24]
 8001b9c:	b2a3      	uxth	r3, r4
    if (ep->doublebuffer == 0) 
 8001b9e:	bb10      	cbnz	r0, 8001be6 <USB_EPStartXfer+0x6e>
      USB_WritePMA(USBx, ep->xfer_buff, ep->pmaadress, len);
 8001ba0:	88b2      	ldrh	r2, [r6, #4]
 8001ba2:	6971      	ldr	r1, [r6, #20]
 8001ba4:	4628      	mov	r0, r5
 8001ba6:	f7ff ffd5 	bl	8001b54 <USB_WritePMA>
      PCD_SET_EP_TX_CNT(USBx, ep->num, len);
 8001baa:	f8b5 3050 	ldrh.w	r3, [r5, #80]	; 0x50
 8001bae:	7832      	ldrb	r2, [r6, #0]
 8001bb0:	b29b      	uxth	r3, r3
 8001bb2:	3302      	adds	r3, #2
 8001bb4:	eb03 03c2 	add.w	r3, r3, r2, lsl #3
 8001bb8:	eb05 0343 	add.w	r3, r5, r3, lsl #1
 8001bbc:	f8c3 4400 	str.w	r4, [r3, #1024]	; 0x400
    PCD_SET_EP_TX_STATUS(USBx, ep->num, USB_EP_TX_VALID);
 8001bc0:	7832      	ldrb	r2, [r6, #0]
 8001bc2:	f835 3022 	ldrh.w	r3, [r5, r2, lsl #2]
 8001bc6:	f423 43e0 	bic.w	r3, r3, #28672	; 0x7000
 8001bca:	f023 0340 	bic.w	r3, r3, #64	; 0x40
 8001bce:	041b      	lsls	r3, r3, #16
 8001bd0:	0c1b      	lsrs	r3, r3, #16
 8001bd2:	f083 0330 	eor.w	r3, r3, #48	; 0x30
    PCD_SET_EP_RX_STATUS(USBx, ep->num, USB_EP_RX_VALID);
 8001bd6:	f443 4300 	orr.w	r3, r3, #32768	; 0x8000
 8001bda:	f043 0380 	orr.w	r3, r3, #128	; 0x80
 8001bde:	f825 3022 	strh.w	r3, [r5, r2, lsl #2]
}
 8001be2:	2000      	movs	r0, #0
 8001be4:	bd70      	pop	{r4, r5, r6, pc}
      if (PCD_GET_ENDPOINT(USBx, ep->num)& USB_EP_DTOG_TX)
 8001be6:	7832      	ldrb	r2, [r6, #0]
 8001be8:	f835 1022 	ldrh.w	r1, [r5, r2, lsl #2]
 8001bec:	00d2      	lsls	r2, r2, #3
 8001bee:	f011 0f40 	tst.w	r1, #64	; 0x40
        PCD_SET_EP_DBUF1_CNT(USBx, ep->num, ep->is_in, len);
 8001bf2:	f8b5 1050 	ldrh.w	r1, [r5, #80]	; 0x50
 8001bf6:	b289      	uxth	r1, r1
      if (PCD_GET_ENDPOINT(USBx, ep->num)& USB_EP_DTOG_TX)
 8001bf8:	d01a      	beq.n	8001c30 <USB_EPStartXfer+0xb8>
        PCD_SET_EP_DBUF1_CNT(USBx, ep->num, ep->is_in, len);
 8001bfa:	3102      	adds	r1, #2
 8001bfc:	440a      	add	r2, r1
 8001bfe:	eb05 0242 	add.w	r2, r5, r2, lsl #1
 8001c02:	f8c2 4400 	str.w	r4, [r2, #1024]	; 0x400
        pmabuffer = ep->pmaaddr1;
 8001c06:	8932      	ldrh	r2, [r6, #8]
      USB_WritePMA(USBx, ep->xfer_buff, pmabuffer, len);
 8001c08:	6971      	ldr	r1, [r6, #20]
 8001c0a:	4628      	mov	r0, r5
 8001c0c:	f7ff ffa2 	bl	8001b54 <USB_WritePMA>
      PCD_FreeUserBuffer(USBx, ep->num, ep->is_in);
 8001c10:	7873      	ldrb	r3, [r6, #1]
 8001c12:	7832      	ldrb	r2, [r6, #0]
 8001c14:	b99b      	cbnz	r3, 8001c3e <USB_EPStartXfer+0xc6>
 8001c16:	f835 3022 	ldrh.w	r3, [r5, r2, lsl #2]
 8001c1a:	f023 03f0 	bic.w	r3, r3, #240	; 0xf0
 8001c1e:	051b      	lsls	r3, r3, #20
 8001c20:	0d1b      	lsrs	r3, r3, #20
 8001c22:	f443 4300 	orr.w	r3, r3, #32768	; 0x8000
 8001c26:	f043 03c0 	orr.w	r3, r3, #192	; 0xc0
 8001c2a:	f825 3022 	strh.w	r3, [r5, r2, lsl #2]
 8001c2e:	e7c7      	b.n	8001bc0 <USB_EPStartXfer+0x48>
        PCD_SET_EP_DBUF0_CNT(USBx, ep->num, ep->is_in, len);
 8001c30:	440a      	add	r2, r1
 8001c32:	eb05 0242 	add.w	r2, r5, r2, lsl #1
 8001c36:	f8c2 4404 	str.w	r4, [r2, #1028]	; 0x404
        pmabuffer = ep->pmaaddr0;
 8001c3a:	88f2      	ldrh	r2, [r6, #6]
 8001c3c:	e7e4      	b.n	8001c08 <USB_EPStartXfer+0x90>
      PCD_FreeUserBuffer(USBx, ep->num, ep->is_in);
 8001c3e:	2b01      	cmp	r3, #1
 8001c40:	d1be      	bne.n	8001bc0 <USB_EPStartXfer+0x48>
 8001c42:	f835 3022 	ldrh.w	r3, [r5, r2, lsl #2]
 8001c46:	f023 03f0 	bic.w	r3, r3, #240	; 0xf0
 8001c4a:	051b      	lsls	r3, r3, #20
 8001c4c:	0d1b      	lsrs	r3, r3, #20
 8001c4e:	f443 4340 	orr.w	r3, r3, #49152	; 0xc000
 8001c52:	f043 0380 	orr.w	r3, r3, #128	; 0x80
 8001c56:	e7e8      	b.n	8001c2a <USB_EPStartXfer+0xb2>
    if (ep->xfer_len > ep->maxpacket)
 8001c58:	429a      	cmp	r2, r3
      ep->xfer_len =0;
 8001c5a:	bf93      	iteet	ls
 8001c5c:	2300      	movls	r3, #0
      ep->xfer_len-=len; 
 8001c5e:	1ad2      	subhi	r2, r2, r3
 8001c60:	61b2      	strhi	r2, [r6, #24]
      ep->xfer_len =0;
 8001c62:	61b3      	strls	r3, [r6, #24]
 8001c64:	bf98      	it	ls
 8001c66:	4613      	movls	r3, r2
 8001c68:	7832      	ldrb	r2, [r6, #0]
    if (ep->doublebuffer == 0) 
 8001c6a:	bb70      	cbnz	r0, 8001cca <USB_EPStartXfer+0x152>
      PCD_SET_EP_RX_CNT(USBx, ep->num, len);
 8001c6c:	f8b5 1050 	ldrh.w	r1, [r5, #80]	; 0x50
 8001c70:	2b3e      	cmp	r3, #62	; 0x3e
 8001c72:	b289      	uxth	r1, r1
 8001c74:	f101 0106 	add.w	r1, r1, #6
 8001c78:	eb01 01c2 	add.w	r1, r1, r2, lsl #3
 8001c7c:	f505 6080 	add.w	r0, r5, #1024	; 0x400
 8001c80:	d918      	bls.n	8001cb4 <USB_EPStartXfer+0x13c>
 8001c82:	f3c3 124f 	ubfx	r2, r3, #5, #16
 8001c86:	06db      	lsls	r3, r3, #27
 8001c88:	bf04      	itt	eq
 8001c8a:	f102 33ff 	addeq.w	r3, r2, #4294967295
 8001c8e:	b29a      	uxtheq	r2, r3
 8001c90:	4b38      	ldr	r3, [pc, #224]	; (8001d74 <USB_EPStartXfer+0x1fc>)
 8001c92:	ea43 2382 	orr.w	r3, r3, r2, lsl #10
 8001c96:	b29b      	uxth	r3, r3
 8001c98:	f840 3011 	str.w	r3, [r0, r1, lsl #1]
    PCD_SET_EP_RX_STATUS(USBx, ep->num, USB_EP_RX_VALID);
 8001c9c:	7832      	ldrb	r2, [r6, #0]
 8001c9e:	f835 3022 	ldrh.w	r3, [r5, r2, lsl #2]
 8001ca2:	f423 4380 	bic.w	r3, r3, #16384	; 0x4000
 8001ca6:	f023 0370 	bic.w	r3, r3, #112	; 0x70
 8001caa:	041b      	lsls	r3, r3, #16
 8001cac:	0c1b      	lsrs	r3, r3, #16
 8001cae:	f483 5340 	eor.w	r3, r3, #12288	; 0x3000
 8001cb2:	e790      	b.n	8001bd6 <USB_EPStartXfer+0x5e>
      PCD_SET_EP_RX_CNT(USBx, ep->num, len);
 8001cb4:	f3c3 024f 	ubfx	r2, r3, #1, #16
 8001cb8:	07dc      	lsls	r4, r3, #31
 8001cba:	bf44      	itt	mi
 8001cbc:	3201      	addmi	r2, #1
 8001cbe:	b292      	uxthmi	r2, r2
 8001cc0:	0292      	lsls	r2, r2, #10
 8001cc2:	b292      	uxth	r2, r2
 8001cc4:	f840 2011 	str.w	r2, [r0, r1, lsl #1]
 8001cc8:	e7e8      	b.n	8001c9c <USB_EPStartXfer+0x124>
      PCD_SET_EP_DBUF_CNT(USBx, ep->num, ep->is_in, len);
 8001cca:	b9b9      	cbnz	r1, 8001cfc <USB_EPStartXfer+0x184>
 8001ccc:	f8b5 1050 	ldrh.w	r1, [r5, #80]	; 0x50
 8001cd0:	2b3e      	cmp	r3, #62	; 0x3e
 8001cd2:	b289      	uxth	r1, r1
 8001cd4:	f101 0102 	add.w	r1, r1, #2
 8001cd8:	eb01 01c2 	add.w	r1, r1, r2, lsl #3
 8001cdc:	f505 6480 	add.w	r4, r5, #1024	; 0x400
 8001ce0:	d928      	bls.n	8001d34 <USB_EPStartXfer+0x1bc>
 8001ce2:	f3c3 104f 	ubfx	r0, r3, #5, #16
 8001ce6:	06da      	lsls	r2, r3, #27
 8001ce8:	bf04      	itt	eq
 8001cea:	f100 32ff 	addeq.w	r2, r0, #4294967295
 8001cee:	b290      	uxtheq	r0, r2
 8001cf0:	4a20      	ldr	r2, [pc, #128]	; (8001d74 <USB_EPStartXfer+0x1fc>)
 8001cf2:	ea42 2280 	orr.w	r2, r2, r0, lsl #10
 8001cf6:	b292      	uxth	r2, r2
 8001cf8:	f844 2011 	str.w	r2, [r4, r1, lsl #1]
 8001cfc:	7872      	ldrb	r2, [r6, #1]
 8001cfe:	7831      	ldrb	r1, [r6, #0]
 8001d00:	bb5a      	cbnz	r2, 8001d5a <USB_EPStartXfer+0x1e2>
 8001d02:	f8b5 2050 	ldrh.w	r2, [r5, #80]	; 0x50
 8001d06:	2b3e      	cmp	r3, #62	; 0x3e
 8001d08:	b292      	uxth	r2, r2
 8001d0a:	f102 0206 	add.w	r2, r2, #6
 8001d0e:	eb02 02c1 	add.w	r2, r2, r1, lsl #3
 8001d12:	f505 6080 	add.w	r0, r5, #1024	; 0x400
 8001d16:	d915      	bls.n	8001d44 <USB_EPStartXfer+0x1cc>
 8001d18:	f3c3 114f 	ubfx	r1, r3, #5, #16
 8001d1c:	06dc      	lsls	r4, r3, #27
 8001d1e:	bf04      	itt	eq
 8001d20:	f101 33ff 	addeq.w	r3, r1, #4294967295
 8001d24:	b299      	uxtheq	r1, r3
 8001d26:	4b13      	ldr	r3, [pc, #76]	; (8001d74 <USB_EPStartXfer+0x1fc>)
 8001d28:	ea43 2381 	orr.w	r3, r3, r1, lsl #10
 8001d2c:	b29b      	uxth	r3, r3
 8001d2e:	f840 3012 	str.w	r3, [r0, r2, lsl #1]
 8001d32:	e7b3      	b.n	8001c9c <USB_EPStartXfer+0x124>
 8001d34:	f3c3 024f 	ubfx	r2, r3, #1, #16
 8001d38:	07d8      	lsls	r0, r3, #31
 8001d3a:	bf44      	itt	mi
 8001d3c:	3201      	addmi	r2, #1
 8001d3e:	b292      	uxthmi	r2, r2
 8001d40:	0292      	lsls	r2, r2, #10
 8001d42:	e7d8      	b.n	8001cf6 <USB_EPStartXfer+0x17e>
 8001d44:	f3c3 014f 	ubfx	r1, r3, #1, #16
 8001d48:	07db      	lsls	r3, r3, #31
 8001d4a:	bf44      	itt	mi
 8001d4c:	3101      	addmi	r1, #1
 8001d4e:	b289      	uxthmi	r1, r1
 8001d50:	0289      	lsls	r1, r1, #10
 8001d52:	b289      	uxth	r1, r1
 8001d54:	f840 1012 	str.w	r1, [r0, r2, lsl #1]
 8001d58:	e7a0      	b.n	8001c9c <USB_EPStartXfer+0x124>
 8001d5a:	2a01      	cmp	r2, #1
 8001d5c:	d19e      	bne.n	8001c9c <USB_EPStartXfer+0x124>
 8001d5e:	f8b5 2050 	ldrh.w	r2, [r5, #80]	; 0x50
 8001d62:	b292      	uxth	r2, r2
 8001d64:	3202      	adds	r2, #2
 8001d66:	eb02 02c1 	add.w	r2, r2, r1, lsl #3
 8001d6a:	eb05 0242 	add.w	r2, r5, r2, lsl #1
 8001d6e:	f8c2 3400 	str.w	r3, [r2, #1024]	; 0x400
 8001d72:	e793      	b.n	8001c9c <USB_EPStartXfer+0x124>
 8001d74:	ffff8000 	.word	0xffff8000

08001d78 <USB_ReadPMA>:
  * @param  wPMABufAddr : address into PMA.
  * @param  wNBytes : number of bytes to be copied.
  * @retval None
  */
void USB_ReadPMA(USB_TypeDef *USBx, uint8_t *pbUsrBuf, uint16_t wPMABufAddr, uint16_t wNBytes)
{
 8001d78:	b510      	push	{r4, lr}
  uint32_t nbytes = (wNBytes + 1) >> 1;/* /2*/
  uint32_t index = 0;
  uint32_t *pdwVal = NULL;
  
  pdwVal = (uint32_t *)(wPMABufAddr * 2 + (uint32_t)USBx + 0x400);
  for (index = nbytes; index != 0; index--)
 8001d7a:	2400      	movs	r4, #0
  uint32_t nbytes = (wNBytes + 1) >> 1;/* /2*/
 8001d7c:	3301      	adds	r3, #1
  pdwVal = (uint32_t *)(wPMABufAddr * 2 + (uint32_t)USBx + 0x400);
 8001d7e:	f500 6080 	add.w	r0, r0, #1024	; 0x400
  uint32_t nbytes = (wNBytes + 1) >> 1;/* /2*/
 8001d82:	105b      	asrs	r3, r3, #1
  pdwVal = (uint32_t *)(wPMABufAddr * 2 + (uint32_t)USBx + 0x400);
 8001d84:	eb00 0242 	add.w	r2, r0, r2, lsl #1
  for (index = nbytes; index != 0; index--)
 8001d88:	42a3      	cmp	r3, r4
 8001d8a:	d100      	bne.n	8001d8e <USB_ReadPMA+0x16>
  {
    *(uint16_t*)pbUsrBuf++ = *pdwVal++;
    pbUsrBuf++;
  }
}
 8001d8c:	bd10      	pop	{r4, pc}
    *(uint16_t*)pbUsrBuf++ = *pdwVal++;
 8001d8e:	f852 0024 	ldr.w	r0, [r2, r4, lsl #2]
 8001d92:	f821 0014 	strh.w	r0, [r1, r4, lsl #1]
 8001d96:	3401      	adds	r4, #1
 8001d98:	e7f6      	b.n	8001d88 <USB_ReadPMA+0x10>
	...

08001d9c <USBD_HID_GetCfgDesc>:
  * @param  length : pointer data length
  * @retval pointer to descriptor buffer
  */
static uint8_t  *USBD_HID_GetCfgDesc (uint16_t *length)
{
  *length = sizeof (USBD_HID_CfgDesc);
 8001d9c:	2322      	movs	r3, #34	; 0x22
 8001d9e:	8003      	strh	r3, [r0, #0]
  return USBD_HID_CfgDesc;
}
 8001da0:	4800      	ldr	r0, [pc, #0]	; (8001da4 <USBD_HID_GetCfgDesc+0x8>)
 8001da2:	4770      	bx	lr
 8001da4:	20000070 	.word	0x20000070

08001da8 <USBD_HID_DataIn>:
                              uint8_t epnum)
{
  
  /* Ensure that the FIFO is empty before a new transfer, this condition could 
  be caused by  a new transfer before the end of the previous transfer */
  ((USBD_HID_HandleTypeDef *)pdev->pClassData)->state = HID_IDLE;
 8001da8:	f8d0 3218 	ldr.w	r3, [r0, #536]	; 0x218
 8001dac:	2000      	movs	r0, #0
 8001dae:	7318      	strb	r0, [r3, #12]
  return USBD_OK;
}
 8001db0:	4770      	bx	lr
	...

08001db4 <USBD_HID_GetDeviceQualifierDesc>:
* @param  length : pointer data length
* @retval pointer to descriptor buffer
*/
static uint8_t  *USBD_HID_GetDeviceQualifierDesc (uint16_t *length)
{
  *length = sizeof (USBD_HID_DeviceQualifierDesc);
 8001db4:	230a      	movs	r3, #10
 8001db6:	8003      	strh	r3, [r0, #0]
  return USBD_HID_DeviceQualifierDesc;
}
 8001db8:	4800      	ldr	r0, [pc, #0]	; (8001dbc <USBD_HID_GetDeviceQualifierDesc+0x8>)
 8001dba:	4770      	bx	lr
 8001dbc:	200000a0 	.word	0x200000a0

08001dc0 <USBD_HID_Setup>:
{
 8001dc0:	b538      	push	{r3, r4, r5, lr}
  switch (req->bmRequest & USB_REQ_TYPE_MASK)
 8001dc2:	780c      	ldrb	r4, [r1, #0]
{
 8001dc4:	4605      	mov	r5, r0
  switch (req->bmRequest & USB_REQ_TYPE_MASK)
 8001dc6:	f014 0460 	ands.w	r4, r4, #96	; 0x60
  USBD_HID_HandleTypeDef     *hhid = (USBD_HID_HandleTypeDef*) pdev->pClassData;
 8001dca:	f8d0 3218 	ldr.w	r3, [r0, #536]	; 0x218
  switch (req->bmRequest & USB_REQ_TYPE_MASK)
 8001dce:	d023      	beq.n	8001e18 <USBD_HID_Setup+0x58>
 8001dd0:	2c20      	cmp	r4, #32
 8001dd2:	d10c      	bne.n	8001dee <USBD_HID_Setup+0x2e>
    switch (req->bRequest)
 8001dd4:	784a      	ldrb	r2, [r1, #1]
 8001dd6:	3a02      	subs	r2, #2
 8001dd8:	2a09      	cmp	r2, #9
 8001dda:	d817      	bhi.n	8001e0c <USBD_HID_Setup+0x4c>
 8001ddc:	e8df f002 	tbb	[pc, r2]
 8001de0:	16160913 	.word	0x16160913
 8001de4:	16161616 	.word	0x16161616
 8001de8:	050f      	.short	0x050f
      hhid->Protocol = (uint8_t)(req->wValue);
 8001dea:	788a      	ldrb	r2, [r1, #2]
 8001dec:	601a      	str	r2, [r3, #0]
  return USBD_OK;
 8001dee:	2400      	movs	r4, #0
 8001df0:	e010      	b.n	8001e14 <USBD_HID_Setup+0x54>
      USBD_CtlSendData (pdev, 
 8001df2:	2201      	movs	r2, #1
 8001df4:	4619      	mov	r1, r3
      USBD_CtlSendData (pdev, 
 8001df6:	4628      	mov	r0, r5
 8001df8:	f000 fb46 	bl	8002488 <USBD_CtlSendData>
 8001dfc:	e7f7      	b.n	8001dee <USBD_HID_Setup+0x2e>
      hhid->IdleState = (uint8_t)(req->wValue >> 8);
 8001dfe:	884a      	ldrh	r2, [r1, #2]
 8001e00:	0a12      	lsrs	r2, r2, #8
 8001e02:	605a      	str	r2, [r3, #4]
 8001e04:	e7f3      	b.n	8001dee <USBD_HID_Setup+0x2e>
      USBD_CtlSendData (pdev, 
 8001e06:	2201      	movs	r2, #1
 8001e08:	1d19      	adds	r1, r3, #4
 8001e0a:	e7f4      	b.n	8001df6 <USBD_HID_Setup+0x36>
      USBD_CtlError (pdev, req);
 8001e0c:	4628      	mov	r0, r5
 8001e0e:	f000 fb14 	bl	800243a <USBD_CtlError>
      return USBD_FAIL; 
 8001e12:	2402      	movs	r4, #2
}
 8001e14:	4620      	mov	r0, r4
 8001e16:	bd38      	pop	{r3, r4, r5, pc}
    switch (req->bRequest)
 8001e18:	784a      	ldrb	r2, [r1, #1]
 8001e1a:	2a0a      	cmp	r2, #10
 8001e1c:	d018      	beq.n	8001e50 <USBD_HID_Setup+0x90>
 8001e1e:	2a0b      	cmp	r2, #11
 8001e20:	d01c      	beq.n	8001e5c <USBD_HID_Setup+0x9c>
 8001e22:	2a06      	cmp	r2, #6
 8001e24:	d1f6      	bne.n	8001e14 <USBD_HID_Setup+0x54>
      if( req->wValue >> 8 == HID_REPORT_DESC)
 8001e26:	884b      	ldrh	r3, [r1, #2]
 8001e28:	0a1b      	lsrs	r3, r3, #8
 8001e2a:	2b22      	cmp	r3, #34	; 0x22
 8001e2c:	d105      	bne.n	8001e3a <USBD_HID_Setup+0x7a>
        len = MIN(HID_KEYBOARD_REPORT_DESC_SIZE , req->wLength);
 8001e2e:	88ca      	ldrh	r2, [r1, #6]
        pbuf = HID_KEYBOARD_ReportDesc;
 8001e30:	490c      	ldr	r1, [pc, #48]	; (8001e64 <USBD_HID_Setup+0xa4>)
        len = MIN(HID_KEYBOARD_REPORT_DESC_SIZE , req->wLength);
 8001e32:	2a2d      	cmp	r2, #45	; 0x2d
 8001e34:	bf28      	it	cs
 8001e36:	222d      	movcs	r2, #45	; 0x2d
 8001e38:	e7dd      	b.n	8001df6 <USBD_HID_Setup+0x36>
      else if( req->wValue >> 8 == HID_DESCRIPTOR_TYPE)
 8001e3a:	2b21      	cmp	r3, #33	; 0x21
 8001e3c:	d105      	bne.n	8001e4a <USBD_HID_Setup+0x8a>
        len = MIN(USB_HID_DESC_SIZ , req->wLength);
 8001e3e:	88ca      	ldrh	r2, [r1, #6]
        pbuf = USBD_HID_Desc;   
 8001e40:	4909      	ldr	r1, [pc, #36]	; (8001e68 <USBD_HID_Setup+0xa8>)
        len = MIN(USB_HID_DESC_SIZ , req->wLength);
 8001e42:	2a09      	cmp	r2, #9
 8001e44:	bf28      	it	cs
 8001e46:	2209      	movcs	r2, #9
 8001e48:	e7d5      	b.n	8001df6 <USBD_HID_Setup+0x36>
  uint8_t  *pbuf = NULL;
 8001e4a:	4621      	mov	r1, r4
  uint16_t len = 0;
 8001e4c:	4622      	mov	r2, r4
 8001e4e:	e7d2      	b.n	8001df6 <USBD_HID_Setup+0x36>
      USBD_CtlSendData (pdev,
 8001e50:	2201      	movs	r2, #1
 8001e52:	f103 0108 	add.w	r1, r3, #8
 8001e56:	f000 fb17 	bl	8002488 <USBD_CtlSendData>
      break;
 8001e5a:	e7db      	b.n	8001e14 <USBD_HID_Setup+0x54>
      hhid->AltSetting = (uint8_t)(req->wValue);
 8001e5c:	788a      	ldrb	r2, [r1, #2]
 8001e5e:	609a      	str	r2, [r3, #8]
      break;
 8001e60:	e7d8      	b.n	8001e14 <USBD_HID_Setup+0x54>
 8001e62:	bf00      	nop
 8001e64:	20000008 	.word	0x20000008
 8001e68:	20000094 	.word	0x20000094

08001e6c <USBD_HID_DeInit>:
{
 8001e6c:	b510      	push	{r4, lr}
 8001e6e:	4604      	mov	r4, r0
  USBD_LL_CloseEP(pdev,
 8001e70:	2181      	movs	r1, #129	; 0x81
 8001e72:	f000 fe8d 	bl	8002b90 <USBD_LL_CloseEP>
  if(pdev->pClassData != NULL)
 8001e76:	f8d4 0218 	ldr.w	r0, [r4, #536]	; 0x218
 8001e7a:	b120      	cbz	r0, 8001e86 <USBD_HID_DeInit+0x1a>
    USBD_free(pdev->pClassData);
 8001e7c:	f000 fef0 	bl	8002c60 <USBD_static_free>
    pdev->pClassData = NULL;
 8001e80:	2300      	movs	r3, #0
 8001e82:	f8c4 3218 	str.w	r3, [r4, #536]	; 0x218
}
 8001e86:	2000      	movs	r0, #0
 8001e88:	bd10      	pop	{r4, pc}

08001e8a <USBD_HID_Init>:
{
 8001e8a:	b510      	push	{r4, lr}
  USBD_LL_OpenEP(pdev,
 8001e8c:	2304      	movs	r3, #4
 8001e8e:	2203      	movs	r2, #3
 8001e90:	2181      	movs	r1, #129	; 0x81
{
 8001e92:	4604      	mov	r4, r0
  USBD_LL_OpenEP(pdev,
 8001e94:	f000 fe6c 	bl	8002b70 <USBD_LL_OpenEP>
  pdev->pClassData = USBD_malloc(sizeof (USBD_HID_HandleTypeDef));
 8001e98:	2010      	movs	r0, #16
 8001e9a:	f000 fedd 	bl	8002c58 <USBD_static_malloc>
 8001e9e:	f8c4 0218 	str.w	r0, [r4, #536]	; 0x218
  if(pdev->pClassData == NULL)
 8001ea2:	b118      	cbz	r0, 8001eac <USBD_HID_Init+0x22>
    ((USBD_HID_HandleTypeDef *)pdev->pClassData)->state = HID_IDLE;
 8001ea4:	2300      	movs	r3, #0
 8001ea6:	7303      	strb	r3, [r0, #12]
  uint8_t ret = 0;
 8001ea8:	4618      	mov	r0, r3
 8001eaa:	bd10      	pop	{r4, pc}
    ret = 1; 
 8001eac:	2001      	movs	r0, #1
}
 8001eae:	bd10      	pop	{r4, pc}

08001eb0 <USBD_HID_SendReport>:
{
 8001eb0:	b510      	push	{r4, lr}
 8001eb2:	4613      	mov	r3, r2
  if (pdev->dev_state == USBD_STATE_CONFIGURED )
 8001eb4:	f890 21fc 	ldrb.w	r2, [r0, #508]	; 0x1fc
 8001eb8:	2a03      	cmp	r2, #3
 8001eba:	d109      	bne.n	8001ed0 <USBD_HID_SendReport+0x20>
  USBD_HID_HandleTypeDef     *hhid = (USBD_HID_HandleTypeDef*)pdev->pClassData;
 8001ebc:	f8d0 4218 	ldr.w	r4, [r0, #536]	; 0x218
    if(hhid->state == HID_IDLE)
 8001ec0:	7b22      	ldrb	r2, [r4, #12]
 8001ec2:	b92a      	cbnz	r2, 8001ed0 <USBD_HID_SendReport+0x20>
      hhid->state = HID_BUSY;
 8001ec4:	2201      	movs	r2, #1
 8001ec6:	7322      	strb	r2, [r4, #12]
      USBD_LL_Transmit (pdev, 
 8001ec8:	460a      	mov	r2, r1
 8001eca:	2181      	movs	r1, #129	; 0x81
 8001ecc:	f000 fea8 	bl	8002c20 <USBD_LL_Transmit>
}
 8001ed0:	2000      	movs	r0, #0
 8001ed2:	bd10      	pop	{r4, pc}

08001ed4 <USBD_Init>:
* @param  pdesc: Descriptor structure address
* @param  id: Low level core index
* @retval None
*/
USBD_StatusTypeDef USBD_Init(USBD_HandleTypeDef *pdev, USBD_DescriptorsTypeDef *pdesc, uint8_t id)
{
 8001ed4:	b508      	push	{r3, lr}
  /* Check whether the USB Host handle is valid */
  if(pdev == NULL)
 8001ed6:	b180      	cbz	r0, 8001efa <USBD_Init+0x26>
    USBD_ErrLog("Invalid Device handle");
    return USBD_FAIL; 
  }
  
  /* Unlink previous class*/
  if(pdev->pClass != NULL)
 8001ed8:	f8d0 3214 	ldr.w	r3, [r0, #532]	; 0x214
 8001edc:	b113      	cbz	r3, 8001ee4 <USBD_Init+0x10>
  {
    pdev->pClass = NULL;
 8001ede:	2300      	movs	r3, #0
 8001ee0:	f8c0 3214 	str.w	r3, [r0, #532]	; 0x214
  }
  
  /* Assign USBD Descriptors */
  if(pdesc != NULL)
 8001ee4:	b109      	cbz	r1, 8001eea <USBD_Init+0x16>
  {
    pdev->pDesc = pdesc;
 8001ee6:	f8c0 1210 	str.w	r1, [r0, #528]	; 0x210
  }
  
  /* Set Device initial State */
  pdev->dev_state  = USBD_STATE_DEFAULT;
 8001eea:	2301      	movs	r3, #1
  pdev->id = id;
 8001eec:	7002      	strb	r2, [r0, #0]
  pdev->dev_state  = USBD_STATE_DEFAULT;
 8001eee:	f880 31fc 	strb.w	r3, [r0, #508]	; 0x1fc
  /* Initialize low level driver */
  USBD_LL_Init(pdev);
 8001ef2:	f000 fdf7 	bl	8002ae4 <USBD_LL_Init>
  
  return USBD_OK; 
 8001ef6:	2000      	movs	r0, #0
 8001ef8:	bd08      	pop	{r3, pc}
    return USBD_FAIL; 
 8001efa:	2002      	movs	r0, #2
}
 8001efc:	bd08      	pop	{r3, pc}

08001efe <USBD_RegisterClass>:
  * @retval USBD Status
  */
USBD_StatusTypeDef  USBD_RegisterClass(USBD_HandleTypeDef *pdev, USBD_ClassTypeDef *pclass)
{
  USBD_StatusTypeDef   status = USBD_OK;
  if(pclass != 0)
 8001efe:	b119      	cbz	r1, 8001f08 <USBD_RegisterClass+0xa>
  {
    /* link the class to the USB Device handle */
    pdev->pClass = pclass;
 8001f00:	f8c0 1214 	str.w	r1, [r0, #532]	; 0x214
    status = USBD_OK;
 8001f04:	2000      	movs	r0, #0
 8001f06:	4770      	bx	lr
  }
  else
  {
    USBD_ErrLog("Invalid Class handle");
    status = USBD_FAIL; 
 8001f08:	2002      	movs	r0, #2
  }
  
  return status;
}
 8001f0a:	4770      	bx	lr

08001f0c <USBD_Start>:
  *         Start the USB Device Core.
  * @param  pdev: Device Handle
  * @retval USBD Status
  */
USBD_StatusTypeDef  USBD_Start  (USBD_HandleTypeDef *pdev)
{
 8001f0c:	b508      	push	{r3, lr}
  
  /* Start the low level driver  */
  USBD_LL_Start(pdev); 
 8001f0e:	f000 fe21 	bl	8002b54 <USBD_LL_Start>
  
  return USBD_OK;  
}
 8001f12:	2000      	movs	r0, #0
 8001f14:	bd08      	pop	{r3, pc}

08001f16 <USBD_SetClassConfig>:
* @param  cfgidx: configuration index
* @retval status
*/

USBD_StatusTypeDef USBD_SetClassConfig(USBD_HandleTypeDef  *pdev, uint8_t cfgidx)
{
 8001f16:	b508      	push	{r3, lr}
  USBD_StatusTypeDef   ret = USBD_FAIL;
  
  if(pdev->pClass != NULL)
 8001f18:	f8d0 3214 	ldr.w	r3, [r0, #532]	; 0x214
 8001f1c:	b90b      	cbnz	r3, 8001f22 <USBD_SetClassConfig+0xc>
  USBD_StatusTypeDef   ret = USBD_FAIL;
 8001f1e:	2002      	movs	r0, #2
 8001f20:	bd08      	pop	{r3, pc}
  {
    /* Set configuration  and Start the Class*/
    if(pdev->pClass->Init(pdev, cfgidx) == 0)
 8001f22:	681b      	ldr	r3, [r3, #0]
 8001f24:	4798      	blx	r3
 8001f26:	2800      	cmp	r0, #0
 8001f28:	d1f9      	bne.n	8001f1e <USBD_SetClassConfig+0x8>
    {
      ret = USBD_OK;
    }
  }
  return ret; 
}
 8001f2a:	bd08      	pop	{r3, pc}

08001f2c <USBD_ClrClassConfig>:
* @param  pdev: device instance
* @param  cfgidx: configuration index
* @retval status: USBD_StatusTypeDef
*/
USBD_StatusTypeDef USBD_ClrClassConfig(USBD_HandleTypeDef  *pdev, uint8_t cfgidx)
{
 8001f2c:	b508      	push	{r3, lr}
  /* Clear configuration  and De-initialize the Class process*/
  pdev->pClass->DeInit(pdev, cfgidx);  
 8001f2e:	f8d0 3214 	ldr.w	r3, [r0, #532]	; 0x214
 8001f32:	685b      	ldr	r3, [r3, #4]
 8001f34:	4798      	blx	r3
  return USBD_OK;
}
 8001f36:	2000      	movs	r0, #0
 8001f38:	bd08      	pop	{r3, pc}

08001f3a <USBD_LL_SetupStage>:
*         Handle the setup stage
* @param  pdev: device instance
* @retval status
*/
USBD_StatusTypeDef USBD_LL_SetupStage(USBD_HandleTypeDef *pdev, uint8_t *psetup)
{
 8001f3a:	b538      	push	{r3, r4, r5, lr}

  USBD_ParseSetupRequest(&pdev->request, psetup);
 8001f3c:	f500 7502 	add.w	r5, r0, #520	; 0x208
{
 8001f40:	4604      	mov	r4, r0
  USBD_ParseSetupRequest(&pdev->request, psetup);
 8001f42:	4628      	mov	r0, r5
 8001f44:	f000 fa65 	bl	8002412 <USBD_ParseSetupRequest>
  
  pdev->ep0_state = USBD_EP0_SETUP;
 8001f48:	2301      	movs	r3, #1
  pdev->ep0_data_len = pdev->request.wLength;
  
  switch (pdev->request.bmRequest & 0x1F) 
 8001f4a:	f894 1208 	ldrb.w	r1, [r4, #520]	; 0x208
  pdev->ep0_state = USBD_EP0_SETUP;
 8001f4e:	f8c4 31f4 	str.w	r3, [r4, #500]	; 0x1f4
  pdev->ep0_data_len = pdev->request.wLength;
 8001f52:	f8b4 320e 	ldrh.w	r3, [r4, #526]	; 0x20e
 8001f56:	f8c4 31f8 	str.w	r3, [r4, #504]	; 0x1f8
  switch (pdev->request.bmRequest & 0x1F) 
 8001f5a:	f001 031f 	and.w	r3, r1, #31
 8001f5e:	2b01      	cmp	r3, #1
 8001f60:	d00e      	beq.n	8001f80 <USBD_LL_SetupStage+0x46>
 8001f62:	d307      	bcc.n	8001f74 <USBD_LL_SetupStage+0x3a>
 8001f64:	2b02      	cmp	r3, #2
 8001f66:	d010      	beq.n	8001f8a <USBD_LL_SetupStage+0x50>
  case USB_REQ_RECIPIENT_ENDPOINT:        
    USBD_StdEPReq(pdev, &pdev->request);   
    break;
    
  default:           
    USBD_LL_StallEP(pdev , pdev->request.bmRequest & 0x80);
 8001f68:	f001 0180 	and.w	r1, r1, #128	; 0x80
 8001f6c:	4620      	mov	r0, r4
 8001f6e:	f000 fe1d 	bl	8002bac <USBD_LL_StallEP>
    break;
 8001f72:	e003      	b.n	8001f7c <USBD_LL_SetupStage+0x42>
    USBD_StdDevReq (pdev, &pdev->request);
 8001f74:	4629      	mov	r1, r5
 8001f76:	4620      	mov	r0, r4
 8001f78:	f000 f8d6 	bl	8002128 <USBD_StdDevReq>
  }  
  return USBD_OK;  
}
 8001f7c:	2000      	movs	r0, #0
 8001f7e:	bd38      	pop	{r3, r4, r5, pc}
    USBD_StdItfReq(pdev, &pdev->request);
 8001f80:	4629      	mov	r1, r5
 8001f82:	4620      	mov	r0, r4
 8001f84:	f000 f9ca 	bl	800231c <USBD_StdItfReq>
    break;
 8001f88:	e7f8      	b.n	8001f7c <USBD_LL_SetupStage+0x42>
    USBD_StdEPReq(pdev, &pdev->request);   
 8001f8a:	4629      	mov	r1, r5
 8001f8c:	4620      	mov	r0, r4
 8001f8e:	f000 f9dd 	bl	800234c <USBD_StdEPReq>
    break;
 8001f92:	e7f3      	b.n	8001f7c <USBD_LL_SetupStage+0x42>

08001f94 <USBD_LL_DataOutStage>:
* @param  pdev: device instance
* @param  epnum: endpoint index
* @retval status
*/
USBD_StatusTypeDef USBD_LL_DataOutStage(USBD_HandleTypeDef *pdev , uint8_t epnum, uint8_t *pdata)
{
 8001f94:	b538      	push	{r3, r4, r5, lr}
 8001f96:	4604      	mov	r4, r0
 8001f98:	4615      	mov	r5, r2
  USBD_EndpointTypeDef    *pep;
  
  if(epnum == 0) 
 8001f9a:	bb11      	cbnz	r1, 8001fe2 <USBD_LL_DataOutStage+0x4e>
  {
    pep = &pdev->ep_out[0];
    
    if ( pdev->ep0_state == USBD_EP0_DATA_OUT)
 8001f9c:	f8d0 31f4 	ldr.w	r3, [r0, #500]	; 0x1f4
 8001fa0:	2b03      	cmp	r3, #3
 8001fa2:	d10f      	bne.n	8001fc4 <USBD_LL_DataOutStage+0x30>
    {
      if(pep->rem_length > pep->maxpacket)
 8001fa4:	f8d0 310c 	ldr.w	r3, [r0, #268]	; 0x10c
 8001fa8:	f8d0 2110 	ldr.w	r2, [r0, #272]	; 0x110
 8001fac:	4293      	cmp	r3, r2
 8001fae:	d90b      	bls.n	8001fc8 <USBD_LL_DataOutStage+0x34>
      {
        pep->rem_length -=  pep->maxpacket;
 8001fb0:	1a9b      	subs	r3, r3, r2
       
        USBD_CtlContinueRx (pdev, 
                            pdata,
                            MIN(pep->rem_length ,pep->maxpacket));
 8001fb2:	429a      	cmp	r2, r3
 8001fb4:	bf28      	it	cs
 8001fb6:	461a      	movcs	r2, r3
        pep->rem_length -=  pep->maxpacket;
 8001fb8:	f8c0 310c 	str.w	r3, [r0, #268]	; 0x10c
        USBD_CtlContinueRx (pdev, 
 8001fbc:	b292      	uxth	r2, r2
 8001fbe:	4629      	mov	r1, r5
 8001fc0:	f000 fa77 	bl	80024b2 <USBD_CtlContinueRx>
          (pdev->dev_state == USBD_STATE_CONFIGURED))
  {
    pdev->pClass->DataOut(pdev, epnum); 
  }  
  return USBD_OK;
}
